:100000000C947E000C949D000C94750E0C949D0035
:100010000C949D000C949D000C949D000C949D00EC
:100020000C949D000C94D2170C949D000C949D0090
:100030000C949D000C949D000C949D000C949D00CC
:100040000C949D170C949D000C949D000C949D00A5
:100050000C94780E0C94AE0E0C949D000C949D00A4
:100060000C949D000C949D000C949D000C949D009C
:100070000C94810F0C94B70F0C949D000C949D0070
:100080000C949D000C949D000C949D001D1C0A0B6B
:100090000B0B1E1B1B1B1B1B1F1A1A1A1A1A1312DF
:1000A0000F00000001020D0D0D0D030C10101010BB
:1000B0000E0E0E0E0E0E1111111111111415151533
:1000C00015150405060708091617171717171F0037
:1000D000001F01011E02021E03031D13041C05055F
:1000E0001C12061B07071B08081A09090B0C0C0D2C
:1000F0000E0E0F10111416160A15170011241FBE2C
:10010000CFEFD0E4DEBFCDBF12E0A0E0B1E0E8E485
:10011000F4E300E00BBF02C007900D92A830B107D6
:10012000D9F724E0A8E0B2E001C01D92A43DB207D7
:10013000E1F70E947D180C94E5190C940000FF92E1
:100140000F931F93CF93DF93FB016730710508F086
:100150007BC0E951F64E0C94FD18109218021092D3
:10016000170224E042E350E065E070E086E290E0B0
:100170000E94F91041E050E062E070E02BC041E0E5
:1001800050E06AE070E090E080E00E943D188091CD
:10019000180291E0980F9093180223E042E350E098
:1001A00066E070E090E00E94F910809118028032C1
:1001B00008F44AC01092180280911702833020F48C
:1001C0008F5F8093170240C01092170242E050E008
:1001D00062E370E090E080E0DF91CF911F910F919A
:1001E000FF900C943D1842E050E06AE070E090E02F
:1001F00080E00E943D18D0E0C0E00AE010E046E058
:10020000F42E80911802282F30E09091170290FD73
:1002100021C0FE018F9DE00DF11D1124E457FF4F19
:10022000849190E021E042E350E068E070E00E94B9
:10023000F9102196C630D10521F7809118028A3035
:10024000A0F48F5F80931802DF91CF911F910F91DF
:10025000FF900895C801821B930BF89EF001F99E50
:10026000F00D1124EC0FFD1FD9CF109218028091D0
:100270001702853008F4A4CF1092170243E050E033
:100280007BCFD0E0C0E020E050E040E067E070E0ED
:10029000CE010E94F9102196C032D105A1F744E0A9
:1002A00050E062E070E090E080E00E943D18109223
:1002B0001802CACF44E050E062E070E090E080E0D5
:1002C0000E943D188091180291E0980F90931802B7
:1002D00021E049E150E065E070E090E00E94F91013
:1002E00080911802803208F4AFCF109218028091EA
:1002F0001702843008F464CF1092170245E050E0F2
:1003000067CF45E050E06AE070E090E080E00E9456
:100310003D18D0E0C0E00EE010E033E0F32E809115
:100320001802282F30E09091170290FD25C0FE01A1
:100330008F9DE00DF11D1124E253FF4F849190E059
:1003400021E042E350E068E070E00E94F91021965D
:10035000C330D10521F7809118028E3008F471CF97
:100360001092180280911702853008F429CF10925C
:10037000170246E050E000CFC801821B930BFC013E
:10038000EE0FFF1FE80FF91FEC0FFD1FD5CFD0E0D8
:10039000C0E020E050E040E067E070E0CE010E9465
:1003A000F9102196C032D105A1F750E040E079CF95
:1003B0009C019091210223303105D1F4943091F0C9
:1003C00028F4992331F0923051F00895963069F075
:1003D000089562E070E081E090E00C945A1864E0C7
:1003E00070E0F9CF66E070E0F6CF70E060E0F3CF48
:1003F000943079F328F49923A9F39230B1F3089556
:10040000963069F3089587E090E00E94751820E027
:1004100050E040E067E070E084E290E00E94F91074
:1004200020E050E040E067E070E085E290E00E946C
:10043000F91020E050E040E067E070E086E290E0F4
:100440000C94F910AB0161307105F9F0623071055F
:1004500089F1672BA1F420E050E040E067E070E014
:1004600086E290E00E94F91020E050E040E070E069
:1004700060E084E290E00E94F91041E050E06AE020
:1004800070E087E090E00C943D1820E050E040E000
:1004900067E070E084E290E00E94F91020E050E014
:1004A00040E070E060E085E290E00E94F91042E0F8
:1004B00050E0E5CF20E050E040E067E070E085E20A
:1004C00090E00E94F91020E050E040E070E060E031
:1004D00086E290E00E94F91050E040E0D0CFCF9348
:1004E000DF93EB016530710598F4219623E049E133
:1004F00050E066E070E0CE010C960E94F910AE016B
:1005000064E170E085E090E0DF91CF910C943D18BC
:10051000D0E0C0E0EBCF80911502672BB9F58111D7
:1005200004C082E090E00E9490108091140290E05C
:1005300022E044E150E068E070E04A960E94F91041
:1005400050E040E068E070E086E090E00E943D18F6
:1005500080911402853020F48F5F809314020895F7
:10056000109214028091150281508093150281111E
:1005700013C086E090E00E94751820E049E150E049
:1005800068E070E08AE190E00C94F910843068F63D
:100590008F5F80931502C9CF08950E94871969E083
:1005A00070E00E94C7188093190208959C019FB7BC
:1005B0009078F89410928500109284002C9A4091C3
:1005C00084005091850042175307C8F32C988FB7C9
:1005D000892B8FBF0895CF93DF93FB01683071059E
:1005E00008F0A2C0E251F64E0C94FD1880918E04E2
:1005F00090918F040E94D60250E040E069E170E0E3
:1006000083E090E0DF91CF910C943D18809111022E
:10061000811103C083E08093110280919004909136
:1006200091040E94D60242E050E062E370E083E071
:1006300090E00E943D188091900490919104DF9188
:10064000CF910C94D60280918E0490918F040E94D9
:10065000D6028091110281508093110241E050E056
:10066000811102C043E050E062E370E083E090E07B
:100670000E943D1880918E0490918F04E0CF28E075
:1006800049E150E066E070E083E190E00E94F910FB
:1006900044E050E069E170E083E090E00E943D18A2
:1006A00010921102DF91CF91089580918E04909164
:1006B0008F040E94D6028091110291E0980F9093CE
:1006C000110245E050E0853008F098CF44E050E05A
:1006D00095CF1092110221E042E350E063E070E018
:1006E00084E090E00E94151646E050E064E670E079
:1006F00083E090E00E943D18D0E0C0E020E049E1B6
:1007000050E068E070E0CE010E94F9102196C430FC
:10071000D105A1F7C7CF80918404909185040E94F0
:10072000D60247E050E06ACF809190049091910406
:100730000E94D60246E050E061CFCF93DF93109243
:100740000B02D0E0C0E021E050E040E070E060E06B
:10075000CE010E94F9102196C832D105A1F721E0FF
:1007600050E040E070E060E083E090E00E94151609
:1007700021E050E040E070E060E082E090E00E9424
:10078000151620E050E040E067E070E081E290E084
:100790000E94F91020E050E040E067E070E087E25E
:1007A00090E00E94F91020E050E040E067E070E047
:1007B00082E290E00E94F91020E048EC50E063E013
:1007C00070E083E290E00E94F91085E090E00E94E2
:1007D00075180E94030246E050E062E370E083E097
:1007E00090E0DF91CF910C943D18AF92CF92EF92B1
:1007F0000F93CF93A12CC12C87E4E82E0EE720E0C5
:1008000040E060E080E00E943E0C40912202842F94
:1008100064E60E94A718392F2AE0842F622F0E94D5
:10082000A718C92F3A3038F0832F0E94A718682FD5
:1008300082E00E94710B6C2F83E00E94710B60912B
:10084000960488E0CF910F91EF90CF90AF900C94E9
:10085000710B90912202890F843698F480932202C2
:10086000662389F021E046E050E068E070E087E030
:1008700090E00E94151668E070E081E090E00C9432
:100880005A1883E6EBCF0895CF93DF93EB018CE00A
:1008900090E00E949010C330D10509F48EC068F436
:1008A000C130D10509F45DC0C230D10509F464C07E
:1008B000CD2BE1F1DF91CF910895C430D10509F43A
:1008C000A9C02597B9F79091190280911F0242E0C3
:1008D00050E0981319C021E044E150E068E070E076
:1008E00086E090E00E94151660E0809196040E94D8
:1008F00029048091990490919A04019690939A0406
:10090000809399044DE050E062E070E081E090E077
:100910000E943D1850E040E068EC70E090E080E01C
:100920000E943D18DF91CF910C94030288E0E3E22E
:10093000F2E0A9E1B2E001900D928A95E1F750E072
:1009400040E062E370E087E090E00E943D1841E003
:1009500050E064E170E082E090E0DF91CF910C9490
:100960003D18109213028091280280931F0210926A
:10097000200242E050E0EDCF0E94871969E070E06C
:100980000E94C718809319020E946F0C609119028F
:1009900081E00E94710B60E082E00E94710B609127
:1009A0001F0287E00E94710B60E088E00E94710BDB
:1009B0001092120243E050E0CCCF8091120260E02E
:1009C0008F5F0E945A0B80911202609119028E5F14
:1009D0000E94710B8091120260E08D5F0E94710B8A
:1009E00080911202833038F48F5F80931202AE013F
:1009F0006AE070E0B0CF109212028091130291E091
:100A0000980F90931302C5E0D0E08A3080F7C4E0DD
:100A1000D0E0EDCF909112026091190284E0891B21
:100A20000E94710B9091120260E085E0891B0E9488
:100A3000710B9091120260E086E0891B0E945A0BB4
:100A40008091120291E0980F90931202833078F215
:100A5000C2E0D0E0CCCF80919704909198040196A9
:100A60009093980480939704909196048091220229
:100A7000891728F0891B8093220281E0089580E085
:100A80000895CF93DF93CDB7DEB768970FB6F8948C
:100A9000DEBF0FBECDBF88E1E5E0F1E0DE011196DB
:100AA00001900D928A95E1F788E1FE013196A6E862
:100AB000B4E001900D928A95E1F768960FB6F8942C
:100AC000DEBF0FBECDBFDF91CF91089548E150E06A
:100AD00070E060E086E894E00E949619E6E8F4E0B1
:100AE00080E09191890F94E0ED39F907D1F7909169
:100AF0009D0498130C9441050895E6E8F4E080E025
:100B00009191890F94E0ED39F907D1F780939D0415
:100B100048E150E070E060E086E894E00C94A619AB
:100B200080E890E00E9490108BE090E00E9490108E
:100B30000E949D0380910A028823C9F080919B0442
:100B400090919C04019690939C0480939B0460E098
:100B5000809196040E94290488E0E3E2F2E0A6E88E
:100B6000B4E001900D928A95E1F70E947D0550E076
:100B700040E062E070E082E090E00C943D18CF929B
:100B8000DF92EF92FF920F931F93CF93DF93CDB736
:100B9000DEB766970FB6F894DEBF0FBECDBF1092DA
:100BA0000D0210920C0220E050E040E070E060E0A6
:100BB00080E290E00E94F91020E050E040E067E021
:100BC00070E084E290E00E94F91020E050E040E004
:100BD00067E070E085E290E00E94F91020E050E0CC
:100BE00040E067E070E086E290E00E94F91020E0CB
:100BF00050E040E067E070E087E290E00E94F9108A
:100C000020E050E040E067E070E088E190E00E9482
:100C1000F91020E050E040E067E070E089E190E00A
:100C20000E94F91086E1EDE1F1E0DE0111960190FC
:100C30000D928A95E1F78E010F5F1F4F6E0187E1DC
:100C4000C80ED11CF801E190F1908F01C7010E94FC
:100C5000F110892B41F420E049E150E068E070E0B8
:100C6000C7010E94F910C016D10661F70CE010E030
:100C70008091000190E09C01255F3F4F20173107D4
:100C800094F50C960E94F110089759F0809100019C
:100C900090E020E049E150E068E070E00C960E94AE
:100CA000F9100E948F0C80910E0291E0980F9093A2
:100CB0000E0290919404891730F550E040E062E014
:100CC00070E084E090E066960FB6F894DEBF0FBE49
:100CD000CDBFDF91CF911F910F91FF90EF90DF90EB
:100CE000CF900C943D18C8010E94F110892B41F45B
:100CF00021E050E040E067E070E0C8010E94F91098
:100D00000F5F1F4FB5CF66960FB6F894DEBF0FBECC
:100D1000CDBFDF91CF911F910F91FF90EF90DF90AA
:100D2000CF900C94900568E083E292E00C94780BED
:100D3000AF92CF92EF920F93FB0180910B02811142
:100D400020C06E307105E8F4EA50F64E0C94FD18A0
:100D5000109221020E948F0CA12CC12C5BE3E52E86
:100D600007E72EE047E660E080E00E943E0C41E0AD
:100D700050E060E971E081E090E00E943D1810923F
:100D800016020F91EF90CF90AF90089580911602C8
:100D9000811103C088E08093160280911602815071
:100DA000809316028823F1F080FF19C02EE0A22E56
:100DB0003EE0C32E47E7E42E0FE125E140E367E67E
:100DC00080E00E943E0C41E050E062E370E081E090
:100DD00090E00F91EF90CF90AF900C943D180E944F
:100DE0006F0CF1CF42E050E068EC70E0F0CF82E0B1
:100DF000809321020E94930644E050E068EE73E085
:100E0000E6CF84E0809321020FE4A02E85E0C82E77
:100E10009EE7E92E0EE42BE540E060E387E30E94C5
:100E20003E0C45E050E0E0CF68E086E894E00E94A8
:100E3000780B46E050E068E572E0C9CF86E0809329
:100E40002102F5E0AF2EAFE4CA2EBEE3EB2E0EE793
:100E50002FE445E167E78EE50E943E0C47E050E055
:100E6000C3CF80919604882379F0A12C7BE5C72E0F
:100E7000E5E1EE2E00E32EE74EE460E080E00E9424
:100E80003E0C48E050E0B0CF50E040E062E070E05F
:100E90009ECF0E94F50350E040E0A6CF0E94F503EC
:100EA0004AE050E0A1CFA12C50E7C52E65E0E62E28
:100EB0000FE42BE545E160E380E00E943E0C4BE04F
:100EC00050E092CFA12C3BE5C32E45E1E42E00E398
:100ED0002EE74EE460E080E00E943E0C4CE050E0E3
:100EE00083CF0E946F0CD7CF8DE0809321028FE4D7
:100EF000A82E95E1C92E27E7E22E0EE52FE44FE458
:100F000065E087E40E943E0C42E050E0BFCFAF9224
:100F1000CF92EF920F93CF93DF93CB0120910B02EF
:100F2000222381F06330710509F4ACC090F4613084
:100F3000710509F475C06230710509F494C0892BFC
:100F400009F44EC0DF91CF910F91EF90CF90AF9009
:100F500008956430710509F4A0C06530710591F7FA
:100F600081E08093090246E050E068EC70E083E0A5
:100F700090E00E943D1821E040E951E065E070E01A
:100F800087E290E00E94F910D0E0C0E020E050E05D
:100F900040E070E060E0CE010E94F9102196C0327E
:100FA000D105A1F721E050E040E070E060E083E08F
:100FB00090E00E94151621E050E040E070E060E013
:100FC00082E090E00E941516A12CC12C80E7E82E4B
:100FD0000EE020E340E760E080E00E943E0CB2CFEC
:100FE00081E08093080221E042E350E068E070E095
:100FF00085E090E00E941516A12CC12CE12C0EE09A
:101000002EE047E76FE180E00E943E0C60910E0207
:1010100088E00E94710B43E050E060E971E019C084
:1010200021E042E350E068E070E085E090E00E945B
:101030001516A12C60E7C62E7EE7E72E0EE727E304
:101040004BE560E080E00E943E0C42E050E068EC3E
:1010500070E084E090E0DF91CF910F91EF90CF901E
:10106000AF900C943D18A12C45E1C42E50E3E52E21
:1010700007E72EE547E760E080E00E943E0C43E092
:1010800050E0E5CF10920902109208020E949306E8
:1010900043E050E062E370E0DCCF81E0809309023E
:1010A0009FE4A92E25E1C22E37E7E32E0EE52FE4BB
:1010B0004FE465E087E40E943E0CADCFE3E2F2E04E
:1010C0001082118212821382148215821682178274
:1010D0000C9493060E949D030E945E0881E0809319
:1010E0000B0210920A0210920E02809300011092DD
:1010F000830482E090E00E94751881E090E00E94F5
:10110000751890E080E00E94751820E050E040E003
:1011100070E060E081E290E00E94F9100C94BF055D
:10112000CF93DF9300D000D0CDB7DEB7EBE2F2E093
:1011300019821A821B821C82AAE0B0E029813A81BE
:101140004B815C810E94061969837A838B839C831F
:10115000829129813A814B815C81280F311D411D8B
:10116000511D29833A834B835C8332E0E332F307DA
:1011700019F769817A818B819C810F900F900F9074
:101180000F90DF91CF910895CF93DF93EC01809181
:101190008304811104C080919204811109C021E06F
:1011A00046E050E068E070E087E090E00E941516AD
:1011B0003091000120E090E039132AC080910902AB
:1011C000811102C00E94930680910A02811139C0E8
:1011D000A6E8B4E0E3E2F2E028E02E0F91918D91D1
:1011E000891758F581E080930A0244E050E062E0FC
:1011F00070E084E090E00E943D1821E044E150E07E
:1012000068E070E086E090E0DF91CF910C941516D5
:10121000EBE2F2E0DE01189682914E91840F820F8C
:101220008A3040F08A50808321E0AC17BD07A1F7D7
:101230009F5FC2CF808320E0F8CF981710F02E1365
:10124000CDCFDF91CF910895AF92CF92EF920F93D0
:10125000CF93DF9300D000D0CDB7DEB786319105B4
:1012600009F4B3C0D0F4E0910F02F0911002843180
:10127000910571F1459709F44DC0E0910F02F0918D
:1012800010023197EB30F10508F009C2EC5FF54E22
:10129000A12CC12CE12C0C94FD18479771F71092EA
:1012A000100210920F020E947D050E949D0350E0E3
:1012B00040E068EC70E090E080E00E943D1850E073
:1012C00040E068EC70E081E090E00E943D18D5CFEE
:1012D000EF2B81F483E090E00E94751881E090E0AC
:1012E0000E94751890E080E00E94751884E090E0FC
:1012F0000E94751880910F029091100201968C3017
:10130000910528F49093100280930F02B6CF81E0EC
:1013100090E0F8CF3197EB30F10508F0AECFE15F08
:10132000F54E0C94FD1880918E0490918F04873BAC
:1013300027E0920708F0A1CF499690938F048093FD
:101340008E049BCF8091900490919104873B37E06D
:10135000930708F092CF499690939104809390045C
:101360008CCF80919204823008F087CF8F5F80937A
:10137000920483CF81E0809395047FCF8091930482
:10138000833608F07ACF8F5F8093930476CF809175
:101390009404893008F071CF8F5F809394046DCFEF
:1013A00080919604893008F068CF8F5F809396040F
:1013B00064CF21E044E150E068E070E086E090E036
:1013C0000E9415160E94410558CFE0910F02F0913E
:1013D00010023197EA30F10508F04FCFE65EF54E86
:1013E0000C94FD1880918E0490918F04823044E01B
:1013F000940708F442CF4997A0CF80919004909130
:101400009104823054E0950708F437CF4997A4CF70
:1014100080919204882309F430CF8150A8CF109294
:1014200095042BCF80919304823008F426CF81500D
:10143000ABCF80919404823008F41FCF8150ADCFA0
:1014400080919604882309F418CF8150AFCF00E033
:1014500020E04EE76DE387E30E943E0C80918E040E
:1014600090918F04909385048093840447E050E02A
:1014700062E370E083E090E00E943D1880918E046A
:1014800090918F049C0150E040E029833A834B8384
:101490005C8344E069817A818B819C810F900F90FD
:1014A0000F900F90DF91CF910F91EF90CF90AF9071
:1014B0000C948A0B00E020E04EE46DE387E30E9489
:1014C0003E0C8091900490919104909385048093B8
:1014D000840447E050E062E370E083E090E00E9423
:1014E0003D188091900490919104CCCF00E72FE4B7
:1014F00040E36CE18EEF0E943E0C6091920488E024
:101500000F900F900F900F90DF91CF910F91EF9070
:10151000CF90AF900C94710B0BE320E74EE060E3AB
:1015200080E70E943E0C8091930464E60E94A71815
:10153000892F6AE00E94A718682F87E00E94710B2C
:10154000809193046AE00E94A718692FD8CF0BE519
:101550002EE04EE067E78FE10E943E0C609194041C
:10156000CECF0DE325E14CE16EE78BE50E943E0C0A
:1015700060919504C4CF0BE525E140E36EE78EE46E
:101580000E943E0C60919604BACF00E02BE347E73F
:101590006EE087E60E943E0C80919704909198043B
:1015A00068EE73E00E94B31864E670E00E94B3181E
:1015B00086E00E94710B809197049091980464E6F4
:1015C00070E00E94B3186AE070E00E94B31887E0F0
:1015D0000E94710B80919704909198046AE070E0EA
:1015E0000E94B318682F8BCF00E02BE547E36EE530
:1015F00087E40E943E0C80919B0490919C0468EECD
:1016000073E00E94B31864E670E00E94B31886E0AD
:101610000E94710B80919B0490919C0464E670E0A1
:101620000E94B3186AE070E00E94B31887E00E943D
:10163000710B80919B0490919C04D0CF00E027E730
:1016400045E16EE587E40E943E0C809199049091FB
:101650009A0468EE73E00E94B31864E670E00E949A
:10166000B31886E00E94710B8091990490919A04BE
:1016700064E670E00E94B3186AE070E00E94B3185C
:1016800087E00E94710B8091990490919A04A6CFF3
:1016900000E72FE44BE56FE485E00E943E0C0F90DD
:1016A0000F900F900F90DF91CF910F91EF90CF900F
:1016B000AF900895CF93DF93D62FCFB7F8940E94C1
:1016C0008A0D8D2F0E948A0D299A85E08A95F1F75F
:1016D000000029988FB7C078C82BCFBFDF91CF917A
:1016E0000895E62FF0E0E55AFE4F60810C945A0B06
:1016F0000F931F93CF938C01C0E0F80161918F018C
:10170000CF5F8C2F0E94710BC830B9F7CF911F911A
:101710000F910895EF92FF920F931F93CF93DF9352
:10172000CDB7DEB72E970FB6F894DEBF0FBECDBF94
:10173000162F072FF82EE92E88E0841B8E8798E05D
:101740009D8781E090E0A0E0B0E08D839E83AF8331
:10175000B8878AE090E0A0E0B0E089839A83AB8309
:10176000BC83AE85BD85AB1779F1612F702F8F2DAE
:101770009E2D29813A814B815C810E94DB182D814D
:101780003E814F8158850E94DB18622F8D850E9413
:10179000710BAAE0B0E029813A814B815C810E9403
:1017A000061969837A838B839C832D813E814F81C7
:1017B00058850E9406196D837E838F8398879D8547
:1017C00091509D879111CDCF2E960FB6F894DEBF24
:1017D0000FBECDBFDF91CF911F910F91FF90EF9082
:1017E00008951F93CF93DF93182F682F617088E0BF
:1017F0000E94710BC12FD0E0BE0175956795617095
:1018000087E00E94710BBE01759567957595679588
:10181000617086E00E94710BBE0123E075956795AB
:101820002A95E1F7617085E00E94710BBE0134E0FA
:10183000759567953A95E1F7617084E00E94710BA8
:10184000BE0145E0759567954A95E1F7617083E0C3
:101850000E94710B56E0D595C7955A95E1F76C2F0C
:10186000617082E00E94710B612F661F6627661F00
:1018700081E0DF91CF911F910C94710BAF92CF92C9
:10188000EF920F931F93CF93DF93162FD42FC22F76
:10189000682F81E00E945A0B612F82E00E945A0B50
:1018A0006D2F83E00E945A0B6C2F84E00E945A0B2C
:1018B000602F85E00E945A0B6E2D86E00E945A0B25
:1018C0006C2D87E00E945A0B6A2D88E0DF91CF9142
:1018D0001F910F91EF90CF90AF900C945A0B60E056
:1018E00081E00E945A0B60E082E00E945A0B60E0A7
:1018F00083E00E945A0B60E084E00E945A0B60E093
:1019000085E00E945A0B60E086E00E945A0B60E07E
:1019100087E00E945A0B60E088E00C945A0B60E06C
:1019200089E00E945A0B61E08CE00E945A0B67E04C
:101930008BE00E945A0B6FE08AE00E945A0B0C94D5
:101940006F0C61E08FE00E945A0B2AEA36EE86E9BE
:1019500091E02150304080409040D9F7000060E095
:101960008FE00E945A0B0C948F0C1F93CF93DF9340
:10197000EC01162F61111AC080918304811134C0CB
:10198000C559DE4FC881D0E01123B1F1CE010E94CC
:101990000D1621E046E050E065E070E0892B01F58E
:1019A000CE01DF91CF911F910C94151682E090E04B
:1019B0000E946E18882319F0CE010E94CD0281E0AA
:1019C00090E00E946E18882319F0CE010E94D80181
:1019D00080910B02882321F080910D02882361F20F
:1019E000DF91CF911F910895229719F0C2E0D0E0C6
:1019F000C7CFC3E0D0E0C4CF21E050E040E070E0CA
:101A000060E0CECF0F931F93CF93DF93EC0166235B
:101A1000C1F180910B028823F1F180910D028111B7
:101A20003AC0FE01E559FE4F008110E0C8010E9456
:101A30000D16892B81F58BE491E00E94C40821E00A
:101A400048E050E067E070E0C8010E94151689E1A7
:101A500090E0CD2B11F488E190E023E049E150E0E3
:101A600065E070E00E94F91021E046E050E068E097
:101A700070E087E090E0DF91CF911F910F910C947F
:101A80001516C559DE4F888121E050E040E070E036
:101A900060E090E0F0CFDF91CF911F910F9108951A
:101AA000CF92DF92EF92FF920F931F93CF93C9B122
:101AB000C07FC09597E7E92E91E0F92E10E000E095
:101AC000CC24C394D12CF70181917F01B60101C0D0
:101AD000660F8A95EAF780912B028C27862359F0AE
:101AE000F801EE0FFF1FE159FE4F0190F081E02D4C
:101AF0006C23C80109950F5F1F4F0430110519F7BA
:101B0000C0932B02CF911F910F91FF90EF90DF9028
:101B1000CF90089527E030E090E02F98AC01022E9E
:101B200002C0559547950A94E2F740FF0FC02D9AE1
:101B300045E34A95F1F700002F9A45E34A95F1F7FE
:101B400000002150310948F72D9808952D98F0CFC5
:101B500027E030E080E041E050E02F9895E39A954F
:101B6000F1F700002F9A95E39A95F1F700001E9B7C
:101B700007C0BA01022E01C0660F0A94EAF7862B4D
:101B80002150310950F708951F93CF93DF93162FFB
:101B9000D42FCFB7C078F89498B12DEF843008F4E3
:101BA0002EEF922398B9880F867080640E948A0D68
:101BB000812F0E948A0D8D2F0E948A0D88B183602B
:101BC00088B98FB78C2B8FBFDF91CF911F9108956C
:101BD000CF93DF93D62FCFB7C078F89498B12DEF7D
:101BE000843008F42EEF922398B9880F86708164B0
:101BF0000E948A0D8D2F0E948A0D0E94A80D98B117
:101C0000936098B99FB79C2B9FBFDF91CF910895A8
:101C1000CF9382B112B881B18FEF81B988B18F7340
:101C200088B987B1806C87B98BB1806F8BB98AB165
:101C30008F708AB984B1806A84B926982F9A2B98BC
:101C4000239A88B1836088B987B1836087B980E1BE
:101C50008A95F1F72B9AC0E04CE265E08C2F0E9448
:101C6000C40D4FEF60E08C2F0E94C40D4FEF66E073
:101C70008C2F0E94C40D4FEF61E08C2F0E94C40D89
:101C8000CF5FC33049F748E265E08C2F0E94C40D56
:101C900040E06AE08C2F0E94C40D40E060E08C2F91
:101CA0000E94C40DCF5FC83071F72998289A84B17B
:101CB000836084B98EE487BD87E084BD80916E0027
:101CC000826080936E008DE78093B30086E08093FE
:101CD000B00080916E00846080936E0083E08093FA
:101CE00081002C98249ACF9108951895789408959E
:101CF0001F921FB61F9211242F932BB72F933F9340
:101D00004F935F938F939F93EF93FF932091C00026
:101D10004091C60030917302832F90E0019650915C
:101D2000720258171906C1F028713F5F3093730291
:101D30008A589D4FFC01408320937102FF91EF91DF
:101D40009F918F915F914F913F912F912BBF2F9139
:101D50001F901FBE1F90189522E0EECF8F938FB774
:101D60008F938BB78F939F93EF93FF93909175020F
:101D7000809174029817B9F08091740290E00196F6
:101D80008F739927809374028A589D4FFC0180813C
:101D90008093C600FF91EF919F918F918BBF8F91A0
:101DA0008FBF8F9118958091C1008F7D8093C10066
:101DB000F1CFCF93DF93EC01F8941092750210925B
:101DC000740210927302109272020E94760ED7FF74
:101DD00004C082E08093C000DF77D093C500C09339
:101DE000C40088E98093C10086E08093C200DF913F
:101DF000CF910895F8949091730280917202981394
:101E000005C00E94760E80E091E008950E94760E53
:101E100080917202E82FF0E08F5F80937202E958A0
:101E2000FD4F208190917102892F90E0982F882793
:101E3000820F911D0895F89490917302809172021F
:101E4000981305C00E94760E80E091E008950E94EC
:101E5000760EE0917202F0E0E958FD4F20819091FA
:101E60007102892F90E0982F8827820F911D089585
:101E70002091750230E02F5F3F4F2F7333279091F1
:101E8000740292171306D9F3F901EA58FD4F8083C3
:101E9000209375028091C10080628093C1000895F3
:101EA000CF93DF93EC018991811103C0DF91CF9132
:101EB00008950E94380FF7CFCF93DF93EC01FE0116
:101EC00084912196811103C0DF91CF9108950E94E2
:101ED000380FF5CFCF93DF93F894D0917302C09170
:101EE00072020E94760E2D2F2C1B330BC901DF913D
:101EF000CF910895F89480917202809373020C94AC
:101F0000760E1F921FB61F9211242F932BB72F937B
:101F10003F934F935F938F939F93EF93FF93209102
:101F2000C8004091CE0030912E02832F90E00196A0
:101F300050912D0258171906C1F028713F5F309358
:101F40002E028F5C9D4FFC01408320932C02FF9159
:101F5000EF919F918F915F914F913F912F912BBF67
:101F60002F911F901FBE1F90189522E0EECF8F93E8
:101F70008FB78F938BB78F939F93EF93FF9390912E
:101F8000300280912F029817B9F080912F0290E0D3
:101F900001968F73992780932F028F5C9D4FFC01D0
:101FA00080818093CE00FF91EF919F918F918BBFA5
:101FB0008F918FBF8F9118958091C9008F7D8093ED
:101FC000C900F1CFCF93DF93EC01F8941092300267
:101FD00010922F0210922E0210922D020E94760E65
:101FE000D7FF04C082E08093C800DF77D093CD0094
:101FF000C093CC0088E98093C90086E08093CA0032
:10200000DF91CF910895CF93DF93F89490912E02B2
:1020100080912D02981307C00E94760E80E091E017
:10202000DF91CF91089580912D02C82FD0E02196A5
:102030008F5F80932D020E94760ECF5CDD4F28814A
:1020400090912C02892F90E0982F8827820F911D64
:10205000E7CFF89490912E0280912D02981305C03D
:102060000E94760E80E091E008950E94760EE09145
:102070002D02F0E0EE5CFD4F208190912C02892F23
:1020800090E0982F8827820F911D089520913002AB
:1020900030E02F5F3F4F2F73332790912F0292171D
:1020A0001306D9F3F901EF5CFD4F808320933002D2
:1020B0008091C90080628093C9000895CF93DF9317
:1020C000EC018991811103C0DF91CF9108950E94A5
:1020D0004610F7CFCF93DF93EC01FE018491219658
:1020E000811103C0DF91CF9108950E944610F5CF72
:1020F000CF93DF93F894D0912E02C0912D020E94CD
:10210000760E2D2F2C1B330BC901DF91CF91089533
:10211000F89480912D0280932E020C94760E0895EF
:1021200008950F931F93CF93DF9385589E4FFC0123
:10213000208130E0285E3F4FC90143E095958795A7
:102140004A95E1F727703327C1E0D0E0AE0102C025
:10215000440F551F2A95E2F79A018C01025E1B4F2E
:10216000F801C081662361F0C42B4C2F6AE00E9405
:10217000C40DF801C083DF91CF911F910F91089595
:102180002095C223F2CF0F931F93CF93DF93EC01DF
:102190008C01000F111FF801E258FC4F80819181E2
:1021A000019691838083FE01EA5FFC4F208128170E
:1021B000190621F460E0CE010E94911002581C4FD4
:1021C000F80180819181089739F461E0CE010E9485
:1021D0009110F80111821082DF91CF911F910F9120
:1021E0000895FC01EE0FFF1FE253FC4F80819181A7
:1021F0000895CF92DF92EF92FF920F931F93CF93A8
:10220000DF938C01EB016A01E22E8FB78078F82E04
:10221000F89461E0C730D10508F460E0C8010E947D
:102220009110C801880F991FFC01E253FC4FD18324
:10223000C083FC01E25DFC4FC082D182F801EA5FFD
:10224000FC4FE08223978C0102581C4F2297A0F488
:102250008A549D4FFC0111821082F8011182108274
:102260008FB78F298FBFDF91CF911F910F91FF9073
:10227000EF90DF90CF9008950E94FA17F8019183B4
:102280008083EECFAF92BF92CF92DF92EF92FF9218
:102290000F931F93CF93DF934EECE42E43E0F42E85
:1022A00006EB12E0D0E0C0E054E0C52ED12C63E094
:1022B000A62EB12CF701819191917F018330910578
:1022C00099F00497B1F121960E5F1F4FC832D105E6
:1022D00089F7DF91CF911F910F91FF90EF90DF90E1
:1022E000CF90BF90AF900895F801808191819C01BB
:1022F0002F5F3F4F31832083FE01EE0FFF1FE25D12
:10230000FC4F208131812817390778F4F8011182B8
:102310001082FE01EA5FFC4F80818F5F80838930ED
:1023200021F4F7013297D182C082CE010E94C310FE
:10233000CACFF801808191819C012F5F3F4F31838B
:102340002083FE01EE0FFF1FE25DFC4F20813181F3
:102350002817390750F7F80111821082FE01EA5F51
:10236000FC4F8081815080838330F9F6F8013183FE
:102370002083F7013297B182A082D7CF2F923F926C
:102380004F925F926F927F928F929F92AF92BF9285
:10239000CF92DF92EF92FF920F931F93CF93DF9331
:1023A0008EECE82E83E0F82E06E013E0D0E0C0E0EB
:1023B00022242394312C26E0422E512C37E0632E28
:1023C000712C45E0A42EB12CD7018D919D917D01FA
:1023D0008530910509F477C000F58130910509F445
:1023E00043C0029709F48FC00F5F1F4F2296C0357C
:1023F000D10551F7DF91CF911F910F91FF90EF9091
:10240000DF90CF90BF90AF909F908F907F906F9014
:102410005F904F903F902F9008958630910511F076
:10242000089711F70E94FA17FE01E258FC4F6F015E
:1024300020813181821B930BFE01E25DFC4F2081E4
:1024400031812817390780F6F701329731822082CF
:102450000E94FA17D6018D939C9360E0C8018650C4
:1024600093400E949110C0CF0E94FA17FE01E258DB
:10247000FC4F4F0120813181821B930BFE01E25DF5
:10248000FC4F208131812817390708F0ADCFD801E2
:102490008C91F801E650F3406F01F70132978111FA
:1024A00009C0518240820E94FA17D4018D939C93F7
:1024B00061E007C081508C938111F3CF11821082AB
:1024C00060E0C601CECF0E94FA17FE01E258FC4F31
:1024D0006F0120813181821B930BFE01E25DFC4F75
:1024E000208131812817390708F07ECFF701329714
:1024F00022E030E0318320830E94FA17D6018D93C9
:102500009C9361E0ABCF0E94FA17FE01E258FC4FAA
:102510004F0120813181821B930BFE01E25DFC4F54
:10252000208131812817390708F05ECFD8018C91BE
:10253000F801E650F3406F01F7013297811108C0AE
:10254000B182A0820E94FA17D4018D939C93B8CFD8
:1025500081508C938111F4CF71826082A9CF08954C
:1025600061E081E00C9429040C942409CF93DF935B
:10257000D82FC92F80910B02882309F444C08BE423
:1025800091E00E94C40881E090E00E9490108D2F9D
:102590009C2F0E94F1100797B1F121E050E040E03C
:1025A00067E070E08D2F9C2F0E94F9108AE090E088
:1025B0000E94F110079739F58BE090E00E94F1102E
:1025C000079709F58BE391E00E94C40825E049E1F3
:1025D00050E066E070E08AE090E00E94F91025E0AB
:1025E00049E150E066E070E08BE090E00E94F91075
:1025F00025E049E150E065E070E089E190E0DF919D
:10260000CF910C94F910DF91CF910895CF93DF9380
:10261000D82FC92F80910B02882309F44FC08BE477
:1026200091E00E94C40883E090E00E9490108D2FFA
:102630009C2F0E94F110079709F440C021E050E060
:1026400040E067E070E08D2F9C2F0E94F910D0E0F1
:10265000C0E0CE010E94F110079781F52196C430A9
:10266000D105B9F78BE391E00E94C40884E090E0C3
:102670000E94901050E040E062E070E083E090E063
:102680000E943D1850E040E062E370E087E090E097
:102690000E943D1820E049E150E066E070E082E1F0
:1026A00090E00E94F91020E050E040E067E070E028
:1026B00083E190E0DF91CF910C94F910DF91CF91FD
:1026C000089580910B02882329F183E190E00E9414
:1026D000F110892B71F083E190E00E94F1100797CF
:1026E00041F043E050E069E170E083E090E00C9459
:1026F0003D1882E190E00E94F110892B91F383E371
:1027000091E00E94C40885E090E00E94901041E0B2
:1027100050E0E9CF089580910B02882361F08BE4AB
:1027200091E00E94C40841E050E062E070E086E081
:1027300090E00C943D180895CF93DF93D82FC92FC4
:1027400080910B02882309F473C08BE491E00E940E
:10275000C40886E090E00E9490108D2F9C2F0E946C
:10276000F110079709F464C021E050E040E067E011
:1027700070E08D2F9C2F0E94F910C4E0D0E0CE01B4
:102780000E94F110079709F053C02196CA30D10575
:10279000B1F78BE391E00E94C40887E090E00E94CB
:1027A0009010C4E0D0E020E049E150E068E070E043
:1027B000CE010E94F9102196CA30D105A1F780916F
:1027C0000001863010F58F5F8093000190E021E0DA
:1027D00050E040E067E070E00B960E94F9108091B5
:1027E000000190E020E049E150E068E070E00C96E4
:1027F0000E94F91021E046E050E068E070E087E0D8
:1028000090E0DF91CF910C94151680918304811193
:102810000FC081E08093830450E040E062E070E00C
:1028200085E090E00E943D1823E049E150E0E5CFCB
:10283000DF91CF910895CF9380910B02882309F403
:1028400052C080910C028F5F80930C029091930490
:10285000981708F048C0CFB7F89481E080930D0234
:1028600021E050E040E070E060E083E090E00E9412
:10287000151621E050E040E070E060E082E090E07A
:102880000E9415168FB7C078C82BCFBF45E050E027
:1028900062E070E084E090E00E943D1820E050E0AB
:1028A00040E070E060E084E290E00E94F91020E0F7
:1028B00050E040E070E060E085E290E00E94F910B6
:1028C00020E050E040E070E060E086E290E00E94AE
:1028D000F91020E050E040E067E070E080E290E036
:1028E000CF910C94F910CF91089580910B02811132
:1028F00015C00E942B05882351F00E946A0850E001
:1029000040E062E070E084E090E00C943D1849E023
:1029100050E062E070E081E090E0F7CF0895CF935F
:10292000DF9300D000D0CDB7DEB780910B028823B3
:10293000C1F150E040E062E070E084E090E00E948D
:102940003D188091080281112CC00E949008698373
:102950007A838B839C83672B682B692BB1F48091DE
:102960000E02813091F480910D0281110EC041E080
:1029700050E062E070E084E090E00F900F900F90E4
:102980000F90DF91CF910C943D1889E090E00E9468
:1029900090100F900F900F900F90DF91CF910C94AB
:1029A000BF050F900F900F900F90DF91CF9108957A
:1029B000EF92FF921F93CF93DF9300D00F92CDB78A
:1029C000DEB7CE0101967C0110E069E0812F0E9404
:1029D000E80DF70181937F011F5F1330B1F76BE5BD
:1029E00081E00E945A0B60E082E00E945A0B1B813A
:1029F000612F62956F7083E00E94710B612F6F7081
:102A000084E00E94710B1A81612F62956F7085E0DE
:102A10000E94710B612F6F7086E00E94710B19810B
:102A2000612F62956F7087E00E94710B612F6F704C
:102A300088E00F900F900F90DF91CF911F91FF9042
:102A4000EF900C94710BAF92BF92CF92DF92EF9206
:102A5000FF920F931F93CF93DF9300D00F92CDB7C8
:102A6000DEB7CE0101966C01F12CE12C8C0169E0FE
:102A70008F2D0E94E80DD6018D936D01882311F0F2
:102A8000EE24E394F394B3E0FB12F1CFE3EDF1E035
:102A900030E020E041E050E071E0EE2019F0283114
:102AA0003105B9F4898180933E048A8180933F0483
:102AB0008B81809340040F900F900F90DF91CF9106
:102AC0001F910F91FF90EF90DF90CF90BF90AF904C
:102AD00008958191982F97705A0101C0AA0C9A9578
:102AE000EAF786958695869590E06801C80ED91E0E
:102AF000D6016C916A2151F0825C9B4FDC018C9174
:102B00008A2121F4D901AA5DBB4F7C932F5F3F4FEF
:102B1000C4CF0F931F93CF93DF9306E214E0D0E06E
:102B2000C0E08FB78078F894F80191918F019923D4
:102B300009F1319710829FB7892B8FBFFE01EE0FED
:102B4000FF1FED55FE4F0190F081E02D80910D02A9
:102B5000882321F084E1EF38F80719F461E0CE0111
:102B600009952196C831D105E1F6DF91CF911F91EA
:102B70000F9108959FB7892B8FBFF3CF9C01809150
:102B80009204823021F4C9010697029718F1662356
:102B900011F12830310570F482B125513E4FF90111
:102BA000908121E030E001C0220F9A95EAF7822B54
:102BB00082B908952A30310568F488B125513E4F15
:102BC000F901908121E030E001C0220F9A95EAF7E7
:102BD000822B88B908952830310570F442B125510F
:102BE0003E4FF901208181E090E001C0880F2A95D5
:102BF000EAF780958423DCCF2A30310558F748B1B5
:102C000025513E4FF901208181E090E001C0880FFD
:102C10002A95EAF780958423DCCFFC01EE0FFF1F95
:102C2000EF58FB4F808191810895AF92BF92CF9270
:102C3000DF92EF92FF920F931F93CF93DF93EC01FC
:102C40006B015A01E22E0697029768F588E090E042
:102C50000E946E188823F9F0C630D10589F481E00E
:102C600080934104D0934304C0934204D09245041E
:102C7000C0924404A0924604B0924704E0924804F3
:102C8000DF91CF911F910F91FF90EF90DF90CF9048
:102C9000BF90AF90089550E040E062E370E088E0BC
:102CA00090E00E943D18FFB6F89461E085E0C816F8
:102CB000D10408F460E0CE010E94BE158E01000F21
:102CC000111FF801EF58FB4FD182C0820E94FA1702
:102CD000F801EF59FB4F91838083F801EF5AFB4FC6
:102CE000A082B182C75BDB4FE8828FB79F2D9078BF
:102CF000F92EF82AFFBEC4CF80914104882391F0B9
:102D0000109241044091460450914704609144045C
:102D100070914504209148048091420490914304AD
:102D20000C94151608952F923F924F925F926F92D6
:102D30007F928F929F92AF92BF92CF92DF92EF924B
:102D4000FF920F931F93CF93DF9381E7E82E84E0E8
:102D5000F82E09E414E0D0E0C0E0CC24C394D12CD8
:102D600022E0222E312C33E0432E512C48E0642EF9
:102D7000712C56E0A52EB12CF701819191917F0124
:102D80008630910509F485C020F58330910509F45A
:102D9000B5C08530910509F441C0019709F497C089
:102DA0000F5F1F4F2296C031D10531F7DF91CF91D0
:102DB0001F910F91FF90EF90DF90CF90BF90AF9059
:102DC0009F908F907F906F905F904F903F902F904B
:102DD00008958730910509F43FC0089709F70E94CC
:102DE000FA179E012F593B4F4901F901208131818A
:102DF000821B930BFE01EF5AFB4F20813181281774
:102E0000390770F6F801808181508083F70132978D
:102E1000882309F470C05182408218C00E94FA17BA
:102E20009E012F593B4F4901F90120813181821BBD
:102E3000930BFE01EF5AFB4F208131812817390790
:102E400008F0AECFF7013297D182C0820E94FA1704
:102E5000F4019183808316C00E94FA17FE01EF5996
:102E6000FB4F20813181821B930BFE01EF5AFB4FF8
:102E7000208131812817390708F092CFF701329766
:102E80003182208260E0C801895494400E94BE15BE
:102E900087CF0E94FA179E012F593B4F4901F90134
:102EA00020813181821B930B039708F479CFF701BE
:102EB0003297D182C08260E0C801895494400E9458
:102EC000BE150E94FA17F4019183808369CF0E9496
:102ED000FA179E012F593B4F4901F9012081318199
:102EE000821B930B099708F45BCFF7013297B182ED
:102EF000A08261E0E1CF11821082C4CF0E94FA1754
:102F00009E012F593B4F4901F90120813181821BDC
:102F1000930BFE01EF5AFB4F2081318128173907AF
:102F200008F03ECFF7013297718260820E94FA1753
:102F3000F4019183808361E0A6CF1F920F920FB6B8
:102F40000F9211240BB60F922F933F934F935F93E1
:102F50006F937F938F939F93AF93BF93EF93FF9361
:102F600080918104909182040196909382048093D1
:102F700081040E94500D0E9493160E942315FF9118
:102F8000EF91BF91AF919F918F917F916F915F91E1
:102F90004F913F912F910F900BBE0F900FBE0F904E
:102FA0001F9018951F920F920FB60F9211240BB617
:102FB0000F922F933F934F935F936F937F938F93D2
:102FC0009F93AF93BF93EF93FF930E944211FF91A2
:102FD000EF91BF91AF919F918F917F916F915F9191
:102FE0004F913F912F910F900BBE0F900FBE0F90FE
:102FF0001F9018959FB7F894209181043091820416
:103000008FB79078982B9FBFC90108950F931F9396
:10301000CF93DF9300EB14E0D0E0C0E0D8018D91B6
:103020009D918D01892B01F10E94FA179E01220FBB
:10303000331FF801D901A256BB4F4D915C91841BFF
:10304000950B529142914817590770F411821082E2
:10305000F901EE53FB4F608171812B503E4FD90136
:10306000ED91FC91CE0109952196C930D105B1F6BB
:10307000DF91CF911F910F9108950F931F93CF93DD
:10308000DF938A01EC01CC0FDD1FFE01E055FB4F01
:10309000718360830E94FA17FE01E256FB4F918311
:1030A0008083CE53DB4F08831983DF91CF911F912B
:1030B0000F910895FC01EE0FFF1FDF01A055BB4FDC
:1030C0008D919C911197892B41F081E090E08D9337
:1030D0009C93EE53FB4F608371830895FC01EE0FC8
:1030E000FF1FE055FB4F80810895FC01EE0FFF1F8D
:1030F000E055FB4F1182108208950E94080E0E9435
:10310000A10C0E948F100E949D0343E050E062E3F7
:1031100070E083E090E00E943D180E94660550E058
:1031200040E062E070E081E090E00E943D1850E0F5
:1031300040E062E070E090E080E00E943D1878940A
:103140000E94BE110E9489150E940618F9CF991B92
:1031500079E004C0991F961708F0961B881F7A958E
:10316000C9F780950895AA1BBB1B51E107C0AA1F90
:10317000BB1FA617B70710F0A61BB70B881F991F18
:103180005A95A9F780959095BC01CD01089597FBBC
:10319000072E16F4009407D077FD09D00E94B318CB
:1031A00007FC05D03EF4909581959F4F089570954A
:1031B00061957F4F0895A1E21A2EAA1BBB1BFD014A
:1031C0000DC0AA1FBB1FEE1FFF1FA217B307E40706
:1031D000F50720F0A21BB30BE40BF50B661F771F5E
:1031E000881F991F1A9469F760957095809590953E
:1031F0009B01AC01BD01CF010895EE0FFF1F00241C
:10320000001C0BBE0790F691E02D09940E94111945
:10321000A59F900DB49F900DA49F800D911D11242A
:103220000895A29FB001B39FC001A39F700D811D9F
:103230001124911DB29F700D811D1124911D0895BF
:10324000CF92DF92EF92FF92CF93DF93CDB7DEB7AD
:103250002A970FB6F894DEBF0FBECDBF89879A8735
:10326000A985BA852D913D914D915C9129833A8331
:103270004B835C83232B242B252B41F424E239ED53
:103280004BE557E029833A834B835C8369817A81DC
:103290008B819C812DE133EF41E050E00E94BE190B
:1032A00069017A01A7EAB1E49B01AC010E94061909
:1032B00069837A838B839C83ACEEB4EFA70196017C
:1032C0000E94E0199B01AC0189819A81AB81BC818C
:1032D000820F931FA41FB51FB7FF03C00197A10959
:1032E000B048E985FA8580839183A283B3839F7771
:1032F0002A960FB6F894DEBF0FBECDBFDF91CF91F7
:10330000FF90EF90DF90CF9008950C94201981E00A
:1033100091E00C942019B0E0A0E08093010190931B
:103320000201A0930301B09304010895DC01CB01D5
:10333000FC01F999FECF06C0F2BDE1BDF89A3196C5
:1033400000B40D9241505040B8F70895DC01CB0114
:1033500003C02D910E94B11941505040D0F70895FB
:10336000262FF999FECF1FBA92BD81BD20BD0FB6A1
:10337000F894FA9AF99A0FBE01960895052E97FBD4
:103380001EF400940E94D51957FD07D00E94DB1847
:1033900007FC03D04EF40C94D51950954095309508
:1033A00021953F4F4F4F5F4F0895909580957095B1
:1033B00061957F4F8F4F9F4F0895B7FF0C9406196B
:1033C0000E940619821B930B0895F894FFCFAD005D
:1033D000BF00F30041015A018101C701F602060353
:1033E00023033F035503690394038B03A806C60612
:1033F000F706C106010714071E07310749074E07E4
:103400005307620771077407A70ABB0AC50AF40AC3
:103410001E0B760AB10A8C0A270A5A0A480BC709FA
:10342000D0093D093D093D09B109BA09BE09930911
:10343000A209D909190A200A3D093D093D09080ACE
:083440000F0A120AF209FD094E
:10344800010100000000000005000000007805D61A
:10345800060103030100000000000000001A00003C
:103468000001000200030004000500060007000830
:103478000009000000000005000000000000000135
:10348800000000000000000005000000000000002F
:1034980001000000000000000001007E306D79335B
:1034A8005B5F707F7B771F4E3D4F47000103020231
:1034B8000D020DB50CB50C0706050423131A0E12E0
:1034C800170B0C161920220D180A1125061F1D1599
:1034D800240710081B1C211E090F142726020403A9
:1034E80001000506130613061306139C139C139C70
:1034F800139C139C139C13B612B61261138F147588
:1035080014B0121B148B13AF12AF12B412B412B44E
:1035180012B4120409020E0D08030A0B0F10050756
:103528000C141213000601171516110403010500E7
:1035380002070606079F0098064404EB0287076FF8
:08354800028B0222027C160036
:00000001FF
