:100000000C94C1000C94E0000C94E0000C94E0000F
:100010000C94E0000C94E0000C94E0000C94E000E0
:100020000C94E0000C94E0000C94E0000C94E000D0
:100030000C94E0000C947F0E0C94E0000C94E00013
:100040000C94E0000C94E0000C94E0000C94E000B0
:100050000C94580C0C948E0C0C94E0000C94E00062
:100060000C94E0000C94E0000C94E0000C94E00090
:100070000C94540D0C948A0D0C94E0000C94E00048
:100080000C94E0000C94E0000C94E0001B1A0A0BA6
:100090000B0B1C19191919191D18181818181312F7
:1000A0000F00000001020D0D0D0D030C10101010BB
:1000B0000E0E0E0E0E0E1111111111111414141436
:1000C00014140405060708091515151515151D0046
:1000D000001D01011C02021C03031B13041A050569
:1000E0001A12061907071908081809090B0C0C0D34
:1000F0000E0E0F10111415150A1415424541524DDC
:100100005553004D41494E004D41494E0042454135
:10011000524D5553004F56455231004F56455230BF
:1001200000737461727400445241494E310044526C
:1001300041494E30005354415254004C4F47320015
:100140004C4F4731004C4F473000424541524D4FD4
:100150005500524F41523200524F41523100524FDE
:1001600041523000445249500048495400710A003D
:10017000710A00710A000A710A2B0A000A710A2B1F
:100180000A0011241FBECFEFD0E4DEBFCDBF19E0BF
:10019000A0E0B1E0EEE3F6E300E00BBF02C00790A1
:1001A0000D92A833B107D9F72BE0A8E3B9E001C05D
:1001B0001D92A93DB207E1F70E9439160C94CF1A9F
:1001C0000C940000AB019B012095309580910001BB
:1001D000909101012817390781F4A8954F5F5F4F6F
:1001E000CA0180959095909301018093000164E687
:1001F00070E088E090E00C94E6150895FF920F936C
:100200001F93CF93DF93FB016730710508F07BC02C
:10021000EF52F54E0C94801610925909109258091D
:1002200024E042E350E063E070E084E290E00E946A
:10023000151141E050E062E070E02BC041E050E079
:100240006AE070E090E080E00E94E6158091590934
:1002500091E0980F9093590923E042E350E064E065
:1002600070E090E00E941511809159098E3108F4D8
:100270004AC01092590980915809833020F48F5F49
:100280008093580940C01092580942E050E062E360
:1002900070E090E080E0DF91CF911F910F91FF908F
:1002A0000C94E61542E050E06AE070E090E080E0F7
:1002B0000E94E615D0E0C0E00AE010E046E0F42E2F
:1002C00080915909282F30E09091580990FD21C064
:1002D000FE018F9DE00DF11D1124E457FF4F849125
:1002E00090E021E042E350E066E070E00E941511EA
:1002F0002196C630D10521F7809159098A30A0F4A2
:100300008F5F80935909DF91CF911F910F91FF90DB
:100310000895C801821B930BF89EF001F99EF00D21
:100320001124EC0FFD1FD9CF109259098091580963
:10033000853008F4A4CF1092580943E050E07BCFF9
:10034000D0E0C0E020E050E040E065E070E0CE01A9
:100350000E9415112196CE31D105A1F744E050E05D
:1003600062E070E090E080E00E94E615109259098A
:10037000CACF44E050E062E070E090E080E00E948C
:10038000E6158091590991E0980F9093590921E061
:1003900049E150E063E070E090E00E941511809127
:1003A00059098E3108F4AFCF10925909809158093C
:1003B000843008F464CF1092580945E050E067CFCC
:1003C00045E050E06AE070E090E080E00E94E615D1
:1003D000D0E0C0E00EE010E033E0F32E8091590948
:1003E000282F30E09091580990FD25C0FE018F9D87
:1003F000E00DF11D1124E253FF4F849190E021E0C4
:1004000042E350E066E070E00E9415112196C3308F
:10041000D10521F7809159098E3008F471CF1092DF
:10042000590980915809853008F429CF109258094C
:1004300046E050E000CFC801821B930BFC01EE0F99
:10044000FF1FE80FF91FEC0FFD1FD5CFD0E0C0E074
:1004500020E050E040E065E070E0CE010E94151120
:100460002196CE31D105A1F750E040E079CF86E06A
:1004700090E00E942B1620E050E040E065E070E044
:1004800082E290E00E94151120E050E040E065E03B
:1004900070E083E290E00E94151120E050E040E01F
:1004A00065E070E084E290E00C941511AB016130DE
:1004B0007105F9F06230710589F1672BA1F420E034
:1004C00050E040E065E070E084E290E00E941511A9
:1004D00020E050E040E070E060E082E290E00E94C6
:1004E000151141E050E06AE070E086E090E00C9485
:1004F000E61520E050E040E065E070E082E290E048
:100500000E94151120E050E040E070E060E083E2DE
:1005100090E00E94151142E050E0E5CF20E050E06D
:1005200040E065E070E083E290E00E94151120E079
:1005300050E040E070E060E084E290E00E9415113D
:1005400050E040E0D0CFCF93DF93EB0165307105F1
:1005500098F4219623E049E150E064E070E0CE0198
:100560000C960E941511AE0164E170E084E090E009
:10057000DF91CF910C94E615D0E0C0E0EBCF8091F5
:100580005609672BB9F5811104C082E090E00E9402
:10059000990F8091550990E022E044E150E066E037
:1005A00070E048960E94151150E040E068E070E06D
:1005B00085E090E00E94E61580915509853020F491
:1005C0008F5F8093550908951092550980915609BF
:1005D000815080935609811113C085E090E00E94FC
:1005E0002B1620E049E150E066E070E088E190E001
:1005F0000C941511843068F68F5F80935609C9CF2B
:100600000895CF93DF93FB016930710508F083C033
:10061000E852F54E0C94801684E090E00E94990F09
:1006200086E090E00E94990F20E049E150E064E00C
:1006300070E082E190E00E94151120E049E150E075
:1006400064E070E083E190E00E94151180913C0924
:100650000E944A1541E050E064E670E018C086E070
:10066000809354098091540980FF17C080913D09FF
:100670000E944A158091540981508093540943E0A7
:1006800050E0811102C044E050E062E370E082E09B
:1006900090E0DF91CF910C94E61580913C09E8CF72
:1006A00080913C090E944A1545E050E0D5CF81E099
:1006B00090E00E94D01446E050E0CECF48E050E0F9
:1006C00069E170E0E4CF20E050E040E070E060E0FD
:1006D00082E190E00E94151120E050E040E070E0DF
:1006E00060E083E190E00E941511D0E0C0E020E0DE
:1006F00049E150E066E070E0CE010E9415112196BC
:10070000C430D105A1F780915009811104C08FE058
:1007100090E00E94990F80913D090E944A1547E0A0
:1007200050E0CECF90915A09890F843670F48093AF
:100730005A09662361F085E090E00E94D01468E0D9
:1007400070E081E090E00C94031683E6F0CF08950A
:1007500080914309909144090196909344098093B4
:1007600043099091420980915A09891728F0891B01
:1007700080935A0981E0089580E00895CF93DF9334
:10078000CDB7DEB762970FB6F894DEBF0FBECDBF10
:1007900082E1E5E1F1E0DE01119601900D928A958A
:1007A000E1F782E1FE013196A8E3B9E001900D92F4
:1007B0008A95E1F762960FB6F894DEBF0FBECDBF03
:1007C000DF91CF91089542E150E070E060E088E36E
:1007D00099E00E94441AE8E3F9E080E09191890FE2
:1007E00099E0E934F907D1F79091490998130C94ED
:1007F000BE030895E8E3F9E080E09191890F99E064
:10080000E934F907D1F78093490942E150E070E0FB
:1008100060E088E399E00C94541ACF93DF938091C1
:100820004D09882301F1809147099091480901966B
:10083000909348098093470960E0809142090E94A3
:10084000920380915B0990915C09A0915D09B09140
:100850005E098093380990933909A0933A09B093BF
:100860003B090E94FA0310924E0980E00E9489150C
:10087000D0E0C0E021E050E040E070E060E0CE0178
:100880000E9415112196C732D105A1F720E050E052
:1008900040E065E070E08FE190E00E94151120E0FB
:1008A00050E040E065E070E085E290E00E941511C4
:1008B00020E050E040E065E070E080E290E00E94DF
:1008C000151120E050E040E065E070E081E290E04A
:1008D0000E94151120E044E650E064E070E086E2FA
:1008E00090E00E94151184E090E00E942B160E9477
:1008F000370246E050E062E370E082E090E00E9460
:10090000E61550E040E062E070E081E090E00E9497
:10091000E61550E040E062E070E090E080E0DF91BA
:10092000CF910C94E615CF92DF92EF92FF920F9346
:100930001F93CF93DF93CDB7DEB766970FB6F894CA
:10094000DEBF0FBECDBF1092500910924F0981E05B
:100950000E94891520E050E040E070E060E08EE108
:1009600090E00E94151120E050E040E065E070E06A
:1009700082E290E00E94151120E050E040E065E046
:1009800070E083E290E00E94151120E050E040E02A
:1009900065E070E084E290E00E94151120E050E0F4
:1009A00040E065E070E085E290E00E94151120E0F3
:1009B00050E040E065E070E086E190E00E941511B3
:1009C00020E050E040E065E070E087E190E00E94C8
:1009D000151186E1E7E2F1E0DE01119601900D923A
:1009E0008A95E1F78E010F5F1F4F6E0187E1C80EF8
:1009F000D11CF801E190F1908F01C7010E9406110E
:100A0000892B41F420E049E150E066E070E0C70145
:100A10000E941511C016D10661F70CE010E080911C
:100A2000020190E09C01255F3F4F20173107A4F59C
:100A30000C960E940611069759F08091020190E0F1
:100A400020E049E150E066E070E00C960E9415114C
:100A50008091510991E0980F90935109909140092C
:100A6000891750F58AE090E00E94990F41E050E02C
:100A700062E070E083E090E066960FB6F894DEBF27
:100A80000FBECDBFDF91CF911F910F91FF90EF90DF
:100A9000DF90CF900C94E615C8010E940611892BB7
:100AA00041F421E050E040E065E070E0C8010E94C0
:100AB00015110F5F1F4FB3CF0E940D048CE090E023
:100AC00066960FB6F894DEBF0FBECDBFDF91CF9113
:100AD0001F910F91FF90EF90DF90CF900C94990FA2
:100AE0000F931F93CF93DF93CDB7DEB72C970FB63D
:100AF000F894DEBF0FBECDBF809362091A821982BF
:100B0000FE0133968AE0DF011D928A95E9F7809114
:100B10005E098F9380915D098F9380915C098F931B
:100B200080915B098F938DE698E09F938F938E0160
:100B30000F5F1F4F1F930F930E9467171F930F9311
:100B400081E798E09F938F930E94C0090FB6F894B5
:100B5000DEBF0FBECDBF2C960FB6F894DEBF0FBE22
:100B6000CDBFDF91CF911F910F910895FB0180912F
:100B70004E098111E0C06E30710508F0DCC0EF5104
:100B8000F54E0C94801685E798E09F938F930E9412
:100B9000C00941E050E068EC70E081E090E00E9424
:100BA000E615109257090F900F90089580915709FC
:100BB000811103C088E08093570960915709615003
:100BC00060935709662381F083E00E94BB098AE79E
:100BD00098E09F938F930E94C0090F900F9041E07F
:100BE00050E062E070E00CC042E050E068EC70E081
:100BF00007C080E00E94700544E050E068EE73E0BA
:100C000081E090E00C94E61582E898E09F938F9342
:100C10000E94C0090F900F9045E050E0E7CF80910F
:100C20003B098F9380913A098F93809139098F9373
:100C3000809138098F938DE698E09F938F930E945F
:100C4000C0090F900F900F900F900F900F9046E0FB
:100C500050E068E572E0D4CF8BE898E09F938F93E3
:100C60000E94C0090F900F9047E050E0BFCF8091E5
:100C70004209882359F084E998E09F938F930E945A
:100C8000C0090F900F9048E050E0B0CF50E040E036
:100C9000A8CF809142091F928F9380915A091F9289
:100CA0008F938AE998E09F938F930E94C0090F90D9
:100CB0000F900F900F900F900F9050E040E096CF64
:100CC000809142091F928F9380915A091F928F93AE
:100CD0008AE998E09F938F930E94C0090F900F902C
:100CE0000F900F900F900F904AE050E07FCF83EA73
:100CF00098E09F938F930E94C0090F900F904BE054
:100D000050E074CF84E998E09F938F930E94C009CC
:100D10000F900F904CE050E069CF0E94E009CDCFDA
:100D20008AEA98E09F938F930E94C0090F900F90DA
:100D300042E050E056CF0895CF93DF9320914E09C3
:100D4000222389F06430710509F495C078F462308B
:100D5000710509F46FC06330710509F481C0613019
:100D6000710509F449C0DF91CF910895653071058F
:100D700009F48AC066307105B1F781E080934C09AF
:100D800046E050E068EC70E082E090E00E94E615FA
:100D9000D0E0C0E020E050E040E070E060E0CE0154
:100DA0000E9415112196C732D105A1F721E048E52F
:100DB00052E063E070E085E290E00E94151120E0CF
:100DC00050E040E065E070E08EE190E00E94151197
:100DD0008DE090E00E94990F80E00E94891587ECD9
:100DE00098E09F938F930E94C0090F900F9050E05E
:100DF00040E068E572E02EC081E080934B098FE00F
:100E000090E00E94990F82E090E00E94D0148091BF
:100E100051091F928F9383EB98E09F938F930E94C9
:100E2000C0090F900F900F900F9044E050E060E9E0
:100E300071E010C082E090E00E94D0148BEB98E04B
:100E40009F938F930E94C0090F900F9043E050E052
:100E500068EC70E083E090E0DF91CF910C94E615B0
:100E600081EC98E09F938F930E94C0090F900F90A0
:100E700044E050E0EDCF10924C0910924B0980E015
:100E8000DF91CF910C94700581E080934C098AEA40
:100E900098E09F938F930E94C0090F900F90C5CF49
:100EA00010925B0910925C0910925D0910925E0924
:100EB00080E00C947005CF93DF930E94500781E08F
:100EC00080934E0910924D091092510980930201AE
:100ED00010924A0981E090E00E942B1690E080E099
:100EE0000E942B1620E050E040E070E060E08FE1CF
:100EF00090E00E94151120E050E040E065E070E0D5
:100F000086E290E00E941511D0E0C0E021E050E0C0
:100F100040E070E060E0CE010E9415112196C732DA
:100F2000D105A1F7DF91CF910C949304CF93DF9378
:100F300000D000D0CDB7DEB780915B0990915C09FD
:100F4000A0915D09B0915E09BC01CD010F900F9099
:100F50000F900F90DF91CF91089540910201489F2B
:100F60009001499F300D112480915B0990915C099B
:100F7000A0915D09B0915E09820F931FA11DB11D63
:100F800080935B0990935C09A0935D09B0935E091F
:100F900080914C09811103C08FEF0E9470058091F0
:100FA0004D09811124C0409138095091390960914F
:100FB0003A0970913B0980915B0990915C09A0917D
:100FC0005D09B0915E09481759076A077B0778F4F5
:100FD00081E080934D0945E050E062E070E083E0FD
:100FE00090E00E94E61590E080E00C94D014089503
:100FF0008631910509F48DC0B0F4E0915209F09169
:10100000530984319105D1F04597D1F1E09152090E
:10101000F09153093197EB30F10508F028C1E15107
:10102000F54E0C948016479789F710925309109249
:1010300052090E94FA030E940D04E8CFEF2B81F4BD
:1010400082E090E00E942B1681E090E00E942B1637
:1010500090E080E00E942B1683E090E00E942B1627
:10106000809152099091530901968C30910528F492
:101070009093530980935209C9CF81E090E0F8CF53
:101080003197EB30F10510F6E650F54E0C948016D2
:1010900080913C098F3108F0B9CF8F5F80933C0974
:1010A000B5CF80913D098F3108F0B0CF8F5F80932D
:1010B0003D09ACCF80913E09823008F0A7CF8F5F09
:1010C00080933E09A3CF81E0809341099FCF809117
:1010D0003F09833608F09ACF8F5F80933F0996CF00
:1010E00080914009893008F091CF8F5F809340094B
:1010F0008DCF80914209893008F088CF8F5F80932F
:10110000420984CF90E080E00E94D0140E94BE0388
:101110007DCFE0915209F09153093197EA30F10502
:1011200008F074CFEB5FF44E0C94801680913C096C
:10113000803108F46BCF8150B1CF80913D0980316F
:1011400008F464CF8150B3CF80913E09882309F41D
:101150005DCF8150B5CF1092410958CF80913F09A2
:10116000823008F453CF8150B8CF8091400982304B
:1011700008F44CCF8150BACF80914209882309F4FA
:1011800045CF8150BCCF80913C090E944A1548E070
:1011900050E062E370E082E090E00E94E61580910A
:1011A0003C091F928F938CEC98E09F938F930E9441
:1011B000C0090F900F900F900F90089580913D09F6
:1011C0000E944A1548E050E062E370E082E090E05F
:1011D0000E94E61580913D091F928F9385ED98E05E
:1011E000E4CF80913E091F928F938EED98E0DDCF82
:1011F00080913F091F928F9387EE98E0D6CF809120
:1012000040091F928F9380EF98E0CFCF80914109E2
:101210001F928F9389EF98E0C8CF809142091F9267
:101220008F9382E099E0C1CF809144098F938091A0
:1012300043098F938BE099E0B8CF809148098F9351
:10124000809147098F9384E199E0AFCF809146095F
:101250008F93809145098F938CE199E0A6CF84E22A
:1012600099E09F938F930E94C0090F900F9008956B
:10127000AF92BF92CF92DF92EF92FF920F931F93A4
:10128000CF93DF93162F042FCDE3D1E098818917F8
:10129000B9F029819A81299FC00DD11D112423966F
:1012A00097E0CD3ED90790F380E0DF91CF911F9179
:1012B0000F91FF90EF90DF90CF90BF90AF90089587
:1012C000D12CC12C209781F389818C151D0469F3E1
:1012D00064F3F12CE12C5E01AC0CBD1C12C0E89E45
:1012E000F001E99EF00DF89EF00D1124EA0DFB1DB2
:1012F000602F6E0D4381812F0E94050A8FEFE81A3F
:10130000F80A898190E02A812E151F0409F03CF724
:101310009FEFC91AD90A1150D7CFCF93C82F609128
:101320005F0980916109681B409160098C2F0E94C0
:101330003809982FCA3049F40E94910A88E28093B4
:101340005F0990E080E0CF91089580915F09891B4B
:1013500080935F09C0E080915F099091610940E04E
:101360006C2F891B0E94050ACF5FC830A1F78091BE
:101370005F098150E4CF809361096093600908950B
:10138000EF92FF920F931F93CF93DF93CDB7DEB70A
:101390008E01075F1F4FF801E190F1908F010E94CD
:1013A0005F0AB801C7010E9497178AE090E00E9487
:1013B0006117DF91CF911F910F91FF90EF900895EA
:1013C0000C945F0A10926109109260090E94D60A7B
:1013D0008AE090E00E94611783E091E09093D60B41
:1013E0008093D50B089584EA8093BC008091BC0063
:1013F00087FFFCCF08958093BB0084E88093BC00F6
:101400008091BC0087FFFCCF0895883208F048C067
:10141000683008F045C0423071F1B8F490E04111F5
:1014200017C021E030E001C0220F6A95EAF720954D
:10143000FC01E557F64F308132233083FC01ED5932
:10144000F64F9081292320830895433051F1089568
:1014500021E030E001C0220F6A95EAF7FC01E55770
:10146000F64F3081322B3083FC01ED59F64F209539
:1014700080812823E8CFE82FF0E081E090E001C0F0
:10148000880F6A95EAF7DF01A557B64F282F2095F8
:101490009C9192239C93ED59F64F9081892B8083E8
:1014A0000895E82FF0E081E090E001C0880F6A9590
:1014B000EAF7DF01A557B64F9C91982BEBCF0F931E
:1014C0001F93CF93DF9388E2EBE8F9E0DF01982FD9
:1014D0001D929A95E9F7E3E6F9E0DF011D928A95FE
:1014E000E9F7C0E0D4E90E94F3098C2F806E0E94D6
:1014F000FB0980E00E94FB0908E010E080E00E9408
:10150000FB0980E00E94FB0901501109B9F7D09353
:10151000BC00CE5FCA3039F7DF91CF911F910F9198
:101520000895AF92BF92CF92DF92EF92FF920F9306
:101530001F93CF93DF93D0E0C0E010E004E90E9456
:10154000F309812F806E0E94FB0980E00E94FB0955
:10155000CE018D59964F5C01FE01E557F64F6F01A4
:1015600088E0E82EF12CF50191915F0180916209EC
:1015700089270E94FB09F60181916F010E94FB09F6
:10158000F1E0EF1AF10879F70093BC001E5F28968E
:10159000C832D105A1F6DF91CF911F910F91FF9035
:1015A000EF90DF90CF90BF90AF9008951F93CF93AF
:1015B000DF9388B1836088B987B1836087B910925F
:1015C000B9008CE08093B80084E08093BC00C0E058
:1015D000D4E90E94F3091C2F106E812F0E94FB0991
:1015E00081E20E94FB09D093BC000E94F309812F85
:1015F0000E94FB0981E80E94FB09D093BC000E9475
:10160000F309812F0E94FB0986EE0E94FB09D0930B
:10161000BC00CE5FCA30E9F6DF91CF911F910C94E8
:101620005F0A8AB18F7C8AB98BB180638BB987B12D
:101630008F7387B988B1806C88B908950F931F9311
:10164000CF930E9495158C0189B190914E099923F1
:10165000A1F1C82FC09584FD17C084E090E00E94DE
:10166000C114811111C084E690E00E94AD0784E0AE
:1016700090E00E94D01421E049E150E063E070E086
:1016800086E190E00E941511C5FF17C083E090E04D
:101690000E94C114811111C084E690E00E94AD0740
:1016A00083E090E00E94D01421E049E150E063E043
:1016B00070E087E190E00E941511C6B180914E095B
:1016C000C095C07C811101C0C0E080914A09882387
:1016D00029F08C2F85958074CC0FC82B0E94601543
:1016E000853009F441C0803599F1811113C0C6FFDE
:1016F00011C08091B5099091B6099801281B390B4A
:101700002333310538F01093B6090093B50980E50D
:101710000E9476150E945D158530C1F1803541F13A
:10172000811130C0C7FF2EC08091B3099091B409D8
:101730009801281B390B2333310520F11093B4098C
:101740000093B30980E5CF911F910F910C9463151D
:101750008091B5099091B6099801281B390B2A315F
:101760003105C0F285E0D4CFC6FDD4CF80E0D0CF24
:101770008091B3099091B409081B190B85E00A31D7
:10178000110508F7CF911F910F910895C7FDFACF6A
:1017900080E0D9CF8EBD0DB407FEFDCF08951EBCED
:1017A0000DB407FEFDCF8EB50895CF93DF93D62FEE
:1017B000C42F98B127EF843008F42BEF922398B907
:1017C000880F867080640E94CA0B8D2F0E94CA0BFE
:1017D0008C2F0E94CA0B88B18C6088B9DF91CF91A1
:1017E0000895CF93C62F98B127EF843008F42BEFDC
:1017F000922398B9880F867081640E94CA0B8C2F3F
:101800000E94CA0B0E94CF0B98B19C6098B9CF91EF
:101810000895CF9384B1806A84B926982E9A2F9A1E
:101820002D98249A2C9A80E58CBD8CB581608CBD56
:1018300081E08DBD85B7806885BF85B7806885BF2D
:101840002B98239A88B18C6088B987B18C6087B94E
:1018500080E18A95F1F72B9AC0E04CE265E08C2F8D
:101860000E94D50B4FEF60E08C2F0E94D50B4FEFFD
:1018700066E08C2F0E94D50B4FEF61E08C2F0E9409
:10188000D50BCF5FC33049F748E265E08C2F0E944B
:10189000D50B40E06AE08C2F0E94D50B40E060E061
:1018A0008C2F0E94D50BCF5FC83071F7CF91089570
:1018B0001F921FB61F9211242F932BB72F933F9384
:1018C0004F935F938F939F93EF93FF932091C0006B
:1018D0004091C6003091FE09832F90E0019650910F
:1018E000FD0958171906C1F028713F5F3093FE09B2
:1018F0008F5F954FFC0140832093FC09FF91EF918E
:101900009F918F915F914F913F912F912BBF2F917D
:101910001F901FBE1F90189522E0EECF8F938FB7B8
:101920008F938BB78F939F93EF93FF939091000AC0
:101930008091FF099817B9F08091FF0990E0019616
:101940008F7399278093FF098F5F954FFC018081EA
:101950008093C600FF91EF919F918F918BBF8F91E4
:101960008FBF8F9118958091C1008F7D8093C100AA
:10197000F1CF9C018FB7F8941092000A1092FF09E2
:101980001092FE091092FD098FBF37FF04C082E05C
:101990008093C0003F773093C5002093C40088E94E
:1019A0008093C10086E08093C20008958FB7F894B9
:1019B0002091FE099091FD098FBF291303C080E09B
:1019C00091E008958091FD09E82FF0E08F5F80930A
:1019D000FD09EE5FF54F20819091FC09892F90E081
:1019E000982F8827820F911D08958FB7F894209122
:1019F000FE099091FD098FBF291303C080E091E09B
:101A00000895E091FD09F0E0EE5FF54F208190919F
:101A1000FC09892F90E0982F8827820F911D089547
:101A20002091000A30E02F5F3F4F2F7333279091B2
:101A3000FF0992171306D9F3F901EF5FF54F808381
:101A40002093000A8091C10080628093C1000895B4
:101A5000CF93DF93EC018991811103C0DF91CF9186
:101A600008950E94100DF7CFCF93DF93EC01FE0194
:101A700084912196811103C0DF91CF9108950E9436
:101A8000100DF5CF2FB7F8948091FE099091FD09C4
:101A90002FBF891B990B08958FB7F8949091FD097A
:101AA0009093FE098FBF08951F921FB61F921124B5
:101AB0002F932BB72F933F934F935F938F939F93C6
:101AC000EF93FF932091C8004091CE003091B90967
:101AD000832F90E001965091B80958171906C1F06C
:101AE00028713F5F3093B9098454964FFC014083BD
:101AF0002093B709FF91EF919F918F915F914F9143
:101B00003F912F912BBF2F911F901FBE1F901895B3
:101B100022E0EECF8F938FB78F938BB78F939F93E6
:101B2000EF93FF939091BB098091BA099817B9F090
:101B30008091BA0990E001968F7399278093BA0932
:101B40008454964FFC0180818093CE00FF91EF91E9
:101B50009F918F918BBF8F918FBF8F91189580919F
:101B6000C9008F7D8093C900F1CF9C018FB7F89495
:101B70001092BB091092BA091092B9091092B809D3
:101B80008FBF37FF04C082E08093C8003F77309357
:101B9000CD002093CC0088E98093C90086E0809333
:101BA000CA0008959FB7F8942091B9098091B809A7
:101BB000281304C09FBF80E091E008958091B80988
:101BC000E82FF0E031968F5F8093B8099FBFE4540F
:101BD000F64F20819091B709892F90E0982F8827A0
:101BE000820F911D08958FB7F8942091B9099091B3
:101BF000B8098FBF291303C080E091E00895E091F8
:101C0000B809F0E0E354F64F20819091B709892F8D
:101C100090E0982F8827820F911D08952091BB098D
:101C200030E02F5F3F4F2F7333279091BA099217FF
:101C30001306D9F3F901E454F64F80832093BB09CE
:101C40008091C90080628093C9000895CF93DF938B
:101C5000EC018991811103C0DF91CF9108950E9419
:101C60000E0EF7CFCF93DF93EC01FE018491219606
:101C7000811103C0DF91CF9108950E940E0EF5CF20
:101C80002FB7F8948091B9099091B8092FBF891B9B
:101C9000990B08958FB7F8949091B8099093B9096A
:101CA0008FBF0895EEE6F0E090819D7F908367BD41
:101CB00092E094BD85BD16BC8081826080830895CA
:101CC00015BC0895EFE6F0E090819D7F90835093DE
:101CD000420A4093410A70938900609388001092F1
:101CE00080008860809381001092850010928400AB
:101CF00080818260808308951092810008951F92F0
:101D00000F920FB60F9211240BB60F922F933F93A1
:101D10004F935F936F937F938F939F93AF93BF93F3
:101D2000EF93FF93E091410AF091420A309709F056
:101D30000995FF91EF91BF91AF919F918F917F9105
:101D40006F915F914F913F912F910F900BBE0F902C
:101D50000FBE0F901F901895E0E7F0E090819D7FF7
:101D600090836093B3001092B60092E09093B0001D
:101D70008093B1001092B2008081826080830895C8
:101D80001092B1000895662371F090916E009D7FCE
:101D900090936E0067BD92E094BD85BD16BCA99A74
:101DA000A99BFECF15BC089561157105B9F09091FE
:101DB0006F009D7F90936F007093890060938800FF
:101DC00010928000886080938100109285001092AC
:101DD0008400B19AB19BFECF1092810008956623D2
:101DE000A9F0909170009D7F909370001092B600C2
:101DF0006093B30092E09093B0008093B100109292
:101E0000B200B99AB99BFECF1092B100089587E64F
:101E100090E00E94B90C8CE791E00E94340D87E6B7
:101E200090E00E94B50D86E791E00C94320E0F937E
:101E30001F93CF93DF93CDB7DEB72E970FB6F894ED
:101E4000DEBF0FBECDBF8C018EE0EAE2F9E0DE011D
:101E5000119601900D928A95E1F7C8010E944917E9
:101E6000AC01B801CE0102960E94521783E791E0BF
:101E70000E94340D2FEF89EF90E021508040904078
:101E8000E1F700C00000CE0101960E94280D2E96B9
:101E90000FB6F894DEBF0FBECDBFDF91CF911F917B
:101EA0000F9108950F931F93CF93DF93CDB7DEB7B4
:101EB0002E970FB6F894DEBF0FBECDBF8C01809178
:101EC0004E09882319F18EE0EAE2F9E0DE0111966D
:101ED00001900D928A95E1F7C8010E944917AC0163
:101EE000B801CE0102960E94521780E791E00E944D
:101EF000320E2FEF81EE94E0215080409040E1F7C8
:101F000000C00000CE0101960E94260E2E960FB64C
:101F1000F894DEBF0FBECDBFDF91CF911F910F911F
:101F2000089587E090E00E942B168DE691E00C94D6
:101F3000320EFC01409708F081C0E15FF44E0C9432
:101F4000801689E691E00C94170F84E691E0FBCFB0
:101F50000E943A1763E070E00E946C168130910590
:101F600049F08230910549F0892B09F067C08EE570
:101F700091E0E9CF88E591E0E6CF82E591E0E3CF1B
:101F80008AE491E0E0CF0E943A1763E070E00E949B
:101F90006C168130910549F08230910549F0892B0A
:101FA00009F04CC085E491E0CECF80E491E0CBCF46
:101FB0008BE391E0C8CF85E391E0C5CF0E943A174B
:101FC000282F62E070E00E946C1620FF03C001978A
:101FD00021F008958EE291E0B6CF87E291E0B3CF91
:101FE00081E291E0B0CF0E94910F0E943A17282F12
:101FF00062E070E00E946C1620FF03C0019721F0A0
:1020000008958BE191E09FCF85E191E09CCF8DE039
:1020100091E00E94520F46E050E068E076E187E0F0
:1020200090E00C94E61588E091E00E94520F4FE09A
:1020300050E060EC71E2F3CF0C94910F089583E0CF
:1020400091E06F30710511F08BEF90E00C94520F1E
:102050000F934091430A69E083E00E94D50B2091E1
:10206000430A3091440A4091450A5091460A6091D2
:10207000470A7091480A8091490A90914A0A08E0FB
:102080000E94A416422F69E084E00E94D50B2091A3
:10209000430A3091440A4091450A5091460A6091A2
:1020A000470A7091480A8091490A90914A0A00E1D2
:1020B0000E94A416422F69E085E00E94D50B209172
:1020C000430A3091440A4091450A5091460A609172
:1020D000470A7091480A8091490A90914A0A08E19A
:1020E0000E94A416422F69E086E00E94D50B209141
:1020F000430A3091440A4091450A5091460A609142
:10210000470A7091480A8091490A90914A0A00E270
:102110000E94A416422F6AE087E00F910C94D50B21
:10212000FF920F931F93CF93DF939C01F62E889716
:10213000C0F52351384FF901008121E030E040E043
:1021400050E060E070E080E090E00E948916A0918D
:10215000430AF091440AE091450A0091460A109121
:10216000470AD091480AC091490AB0914A0AFF2013
:10217000F1F02A2B2093430A3F2B3093440A4E2B35
:102180004093450A502B5093460A612B6093470AAF
:102190007D2B7093480A8C2B8093490A9B2B90933C
:1021A0004A0ADF91CF911F910F91FF9008952095DA
:1021B00030954095509560957095809590952A231F
:1021C0002093430A3F233093440A4E234093450A09
:1021D00050235093460A61236093470A7D237093EE
:1021E000480A8C238093490A9B23D9CF9C018E34C3
:1021F000910550F4220F331FF901E25FF44F81E0A3
:1022000020813181232B09F480E008959C018E34D4
:10221000910540F4220F331FF901E25FF44F8081F2
:102220009181089590E080E00895BF92CF92DF926F
:10223000EF92FF920F931F93CF93DF93EC017B01FB
:10224000B42EC52ED22E879758F561E085E0E816AA
:10225000F10408F460E0CE010E9490108E01000F9E
:10226000111FF801E25FF44FF182E082F801EE58AD
:10227000F54FB082C182C55BD54FD8820E949515BB
:10228000F801E054F54F91838083DF91CF911F9146
:102290000F91FF90EF90DF90CF90BF900C9428109B
:1022A000DF91CF911F910F91FF90EF90DF90CF9032
:1022B000BF9008952F923F924F925F926F927F92BC
:1022C0008F929F92AF92BF92CF92DF92EF92FF9246
:1022D0000F931F93CF93DF938EE0E82E8BE0F82EC1
:1022E0000BE41AE0D0E0C0E022242394312C24E057
:1022F000422E512C35E0632E712C43E0A42EB12CDC
:10230000D7018D919D917D018330910509F476C0AF
:1023100008F58130910509F442C0029709F48EC096
:102320000F5F1F4F2296CE34D10551F7DF91CF9129
:102330001F910F91FF90EF90DF90CF90BF90AF90E3
:102340009F908F907F906F905F904F903F902F90D5
:102350000C9428108D7F049719F70E949515FE01A3
:10236000E054F54F6F0120813181821B930BFE01F8
:10237000EE58F54F208131812817390788F6F7018B
:102380003297318220820E949515D6018D939C93BD
:1023900060E0C8018B549A400E949010C1CF0E9407
:1023A0009515FE01E054F54F4F0120813181821BCC
:1023B000930BFE01EE58F54F208131812817390724
:1023C00008F0AECFD8018C91F801EB54FA406F01C0
:1023D000F7013297811109C0518240820E94951500
:1023E000D4018D939C9361E007C081508C9381113F
:1023F000F3CF1182108260E0C601CECF0E94951506
:10240000FE01E054F54F6F0120813181821B930B57
:10241000FE01EE58F54F208131812817390708F069
:102420007FCFF701329722E030E0318320830E9492
:102430009515D6018D939C9361E0ABCF0E949515C5
:10244000FE01E054F54F4F0120813181821B930B37
:10245000FE01EE58F54F208131812817390708F029
:102460005FCFD8018C91F801EB54FA406F01F7016E
:102470003297811108C0B182A0820E949515D401C3
:102480008D939C93B8CF81508C938111F4CF71823E
:102490006082A9CF08958EE090E00E94990F61E0DC
:1024A00081E00C9492030C94F807CF93DF93D82F1C
:1024B000C92F80914E09882309F444C084E690E036
:1024C0000E94AD0781E090E00E94990F8D2F9C2F14
:1024D0000E940611059749F021E050E040E065E0D8
:1024E00070E08D2F9C2F0E9415118AE090E00E94D1
:1024F0000611059739F58BE090E00E9406110597CB
:1025000009F588EE93E00E94AD0725E049E150E02F
:1025100064E070E08AE090E00E94151125E049E156
:1025200050E064E070E08BE090E00E94151125E03F
:1025300049E150E063E070E087E190E0DF91CF9106
:102540000C941511DF91CF910895CF93DF93D82F7D
:10255000C92F80914E098823C1F184E690E00E9442
:10256000AD0783E090E00E94990F8D2F9C2F0E9471
:102570000611059751F121E050E040E065E070E080
:102580008D2F9C2F0E941511D0E0C0E0CE010E943B
:1025900006110597D1F42196C430D105B9F788EE1C
:1025A00093E00E94AD0750E040E062E070E082E01E
:1025B00090E00E94E61550E040E062E370E086E0C3
:1025C00090E0DF91CF910C94E615DF91CF910895C3
:1025D00080914E09882381F088E893E10E94AD073D
:1025E00085E090E00E94990F42E050E069E170E0E0
:1025F00082E090E00C94E615089580914E098823BE
:10260000A1F080914F098F5F80934F0990913F090E
:10261000981758F481E08093500946E050E062E05A
:1026200070E083E090E00C94E615089580914E09E7
:10263000882381F084E690E00E94AD0782E090E07C
:102640000E94990F41E050E062E070E085E090E088
:102650000C94E6150895CF93DF93D82FC92F80915E
:102660004E09882309F46BC084E690E00E94AD0710
:1026700087E090E00E94990F8D2F9C2F0E940611F9
:10268000059709F45CC021E050E040E065E070E0AF
:102690008D2F9C2F0E941511C4E0D0E0CE010E9426
:1026A0000611059709F04BC02196CA30D105B1F744
:1026B00088EE93E00E94AD0788E090E00E94990FB9
:1026C000C4E0D0E020E049E150E066E070E0CE01F7
:1026D0000E9415112196CA30D105A1F780910201FF
:1026E0008530E8F48F5F8093020190E021E050E0B4
:1026F00040E065E070E00B960E94151180910201A8
:1027000090E020E049E150E066E070E00C960E9425
:10271000151185E090E0DF91CF910C94D014809159
:102720004A0981110CC081E080934A0950E040E0E1
:1027300062E070E084E090E00E94E615EACFDF916D
:10274000CF91089580914E09811115C00E94A80370
:10275000882351F00E945B0741E050E062E070E0A6
:1027600083E090E00C94E61549E050E062E070E010
:1027700081E090E0F7CF0895CF93DF9300D000D0B1
:10278000CDB7DEB780914E098823A1F141E050E03A
:1027900062E070E083E090E00E94E61580914B09D2
:1027A000811128C00E94960769837A838B839C835A
:1027B000672B682B692BB1F480915109813091F41A
:1027C0008091500981110EC042E050E062E070E05B
:1027D00083E090E00F900F900F900F90DF91CF91DA
:1027E0000C94E6150F900F900F900F90DF91CF9102
:1027F0000C9493040F900F900F900F90DF91CF9156
:1028000008950895AF92BF92CF92DF92EF92FF9218
:102810000F931F93CF93DF9300D000D0CDB7DEB7D7
:10282000CE0101966C01E12CF12C8C0169E08F2D19
:102830000E94F10BD6018D936D01882311F0EE24D7
:10284000E394F394B3E0FB12F1CFE5E4F8E030E079
:1028500020E041E050E071E0EE2019F02831310530
:10286000E9F589818093740B8A818093750B8B8144
:102870008093760B9CE5E92E9BE0F92E10E000E0BA
:10288000F70181917F018823A9F031971082F80127
:10289000EE0FFF1FEB5EF74F0190F081E02D80916E
:1028A0005009882321F083E1EC3BF80719F461E03B
:1028B000C80109950F5F1F4F0831110509F70F90E7
:1028C0000F900F900F90DF91CF911F910F91FF907C
:1028D000EF90DF90CF90BF90AF9008958191982FA7
:1028E00097705A0101C0AA0C9A95EAF786958695C9
:1028F000869590E06801C80ED91ED6016C916A21B8
:1029000051F08C58944FDC018C918A2121F4D9012B
:10291000A45AB44F7C932F5F3F4F9ECF9C018330CE
:10292000910501F148F40197F9F084E02230310576
:1029300069F0232B89F0089584309105B9F005974B
:1029400051F480913E09823031F081E092B16623EA
:1029500079F0892B82B9089580913E098230D9F3AC
:1029600082E0F4CF88E0F2CF80E2F0CF80E1EECFDA
:1029700080958923EFCF82B112B881B18FEF81B9F1
:1029800008959C01089750F4220F331FF901E8576E
:10299000F44F81E020813181232B09F480E00895F8
:1029A000CF92DF92EF92FF920F931F93CF93DF931B
:1029B0008C010E949515EC0108301105E8F47801AE
:1029C000EE0CFF1C97012858344F6901F9018081F2
:1029D00091819E01281B390B2233310568F061E09B
:1029E000C8010E948E14F601D183C083F701E85715
:1029F000F44F6496D183C083DF91CF911F910F91E3
:102A0000FF90EF90DF90CF900895EF92FF920F9399
:102A10001F93CF93DF930E9495158C0188E8E82ED1
:102A20008BE0F82ED0E0C0E0F701819191917F0119
:102A3000009751F08017910738F432971182108275
:102A400060E0CE010E948E142196C830D10561F756
:102A5000DF91CF911F910F91FF90EF90089580919A
:102A6000980B9091990B01969093990B8093980BEA
:102A700008954FE255E16EE470E085E00C94620E3B
:102A80002C98249A80E284BD84B5836084BD85E05F
:102A900085BD089588BD08958AB1806C8AB98AB1D0
:102AA000806C8AB9E0EBF0E080EA80838081896005
:102AB000808386E08093B100089580919B0B0895F8
:102AC00080919A0B089590919C0B911102C08111F5
:102AD0000CC080939B0B2FEF829FC001112464E6F2
:102AE00070E00E946C166093B400089590919C0B66
:102AF000911102C081110CC080939A0B2FEF829F1D
:102B0000C001112464E670E00E946C166093B3006B
:102B10000895CF93C82F80E00E94761580E00E9430
:102B20006315C0939C0BCF9108952FB7F8948091B3
:102B3000980B9091990B2FBF0895CF92DF92EF924F
:102B4000FF920F931F93CF93DF930DE91BE0CFEF1D
:102B5000DFEFD801CD90DC90FE0131967F01C114EA
:102B6000D10429F10E9495159C01D80112968D91EE
:102B70009C911397F901E81BF90BCE16DF06B8F408
:102B800013963C932E931297EEEFF0E0C830D105E8
:102B900030F4CC0FDD1FC35AD74FE881F98130974D
:102BA00031F0D80114966D917C91C70109950A5FA7
:102BB0001F4FE701C830D10561F6DF91CF911F911A
:102BC0000F91FF90EF90DF90CF9008950F931F9398
:102BD000CF93DF939C018A01099780F486E0829F5E
:102BE000E001839FD00D1124C356D44F68837983AD
:102BF0000E9495159B838A830C831D83DF91CF915F
:102C00001F910F9108959C01099790F486E0829F8F
:102C1000F001839FF00D1124E356F44F80819181E0
:102C2000892B31F081E090E0918380836483758308
:102C300008959C01099768F486E0829FF001839FC4
:102C4000F00D1124E356F44F81E020813181232BD4
:102C500009F480E008959C01099750F486E0829F72
:102C6000F001839FF00D1124E356F44F118210827E
:102C70000895A89588E19EE00FB6F894A8958093F2
:102C800060000FBE909360000E94090C0E94BB146C
:102C90000E944C150E9440150E94110B0E94E209EF
:102CA0000E94070F0E94E3030E94391550E040E0A4
:102CB00068EC70E088E090E00E94E61578940E944D
:102CC0000D040E945A110E9402140E941E0B0E94C1
:102CD00005150E949D15F5CF97FB072E16F400945D
:102CE00007D077FD09D00E94BF1607FC05D03EF43F
:102CF000909581959F4F0895709561957F4F0895A8
:102D0000EE0FFF1F0024001C0BBE0790F691E02D74
:102D10000994002E083090F0982F872F762F652F7A
:102D2000542F432F322F22270850F4CF220F331F66
:102D3000441F551F661F771F881F991F0A95B2F7FA
:102D4000002D089597FD1094002E083098F008503B
:102D5000232F342F452F562F672F782F892F912D12
:102D6000F4CF1594979587957795679557954795DF
:102D7000379527950A95AAF71124002D0895AA1BC7
:102D8000BB1B51E107C0AA1FBB1FA617B70710F056
:102D9000A61BB70B881F991F5A95A9F78095909588
:102DA000BC01CD010895CF92DF92EF92FF92CF93B5
:102DB000DF93CDB7DEB72A970FB6F894DEBF0FBE0C
:102DC000CDBF89879A87A985BA852D913D914D916F
:102DD0005C9129833A834B835C83232B242B252B03
:102DE00041F424E239ED4BE557E029833A834B83E4
:102DF0005C8369817A818B819C812DE133EF41E095
:102E000050E00E946C1A69017A01A7EAB1E49B01C3
:102E1000AC010E948B1A69837A838B839C83ACEE0E
:102E2000B4EFA70196010E94991A9B01AC01898118
:102E30009A81AB81BC81820F931FA41FB51FB7FF7E
:102E400003C00197A109B048E985FA858083918381
:102E5000A283B3839F772A960FB6F894DEBF0FBE86
:102E6000CDBFDF91CF91FF90EF90DF90CF9008958D
:102E70000C94D31681E191E00C94D316B0E0A0E05D
:102E80008093110190931201A0931301B093140148
:102E90000895FC0105900020E9F7809590958E0F2C
:102EA0009F1F0895FB01DC014150504048F0059000
:102EB0000D920020C9F701C01D9241505040E0F72B
:102EC00008956091D50B7091D60B0C94B6190F93A1
:102ED0001F93CF93DF93CDB7DEB72E970FB6F8943D
:102EE000DEBF0FBECDBF0D891E8986E08C831A839D
:102EF00009838FEF9FE79E838D83AE01475E5F4F0F
:102F00006F89788DCE0101960E949F172F81388599
:102F1000020F131FF80110822E960FB6F894DEBF31
:102F20000FBECDBFDF91CF911F910F910895AB01DF
:102F3000BC018091D50B9091D60B0C949F172F92CA
:102F40003F924F925F926F927F928F929F92AF9239
:102F5000BF92CF92DF92EF92FF920F931F93CF9386
:102F6000DF93CDB7DEB72F970FB6F894DEBF0FBE55
:102F7000CDBF7C013B018A01DC0117961C921E9299
:102F8000169713968C9181FFD8C19AE0292EFE01E5
:102F900031964F01D70113969C91F30193FD8591D2
:102FA00093FF81913F01882309F448C1853239F4A8
:102FB00093FD859193FF81913F01853229F4B701FB
:102FC00090E00E94B619E6CFB12C412C512CBFE104
:102FD000B51538F08B3209F188F4803201F1833273
:102FE00021F157FC3AC020ED280F2A3040F556FE5B
:102FF0001FC0B29C200D1124B22E06C08D3291F05C
:10300000803379F7689450F8F30193FD859193FF2D
:1030100081913F018111DBCF20C0689451F8689401
:1030200052F8F2CF689453F8EFCF689454F8ECCF8D
:10303000429C200D1124422E689455F8E5CF8E3223
:1030400029F456FCFBC0689456F8DECF8C3619F490
:10305000689457F8D9CF8836B9F2982F9F7D955448
:103060009330C0F08336A1F18337C1F1833509F085
:103070005BC0D801CD90DD908D016B2D70E056FCCA
:1030800002C06FEF7FEFC6010E94A0195C01689437
:1030900057F80AC00C5F1F4FEFE3E983AA24A394FB
:1030A000B12C6401E89457F853FC04C04A141B0483
:1030B00009F018F5342CA114B10431F5332009F4CA
:1030C00069CFB70180E290E00E94B6193A94F6CF3A
:1030D000D8018C9189830E5F1F4FE0CFF801C1901A
:1030E000D1908F016B2D70E056FC02C06FEF7FEF27
:1030F000C6010E94AB195C01D5CFB70180E290E018
:103100000E94B6194A94D2CFF60157FC859157FE1A
:1031100081916F01B70190E00E94B61931103A9485
:10312000B1E0AB1AB108C7CF843619F0893609F07F
:1031300074C0F80157FE6AC06191719181919191BB
:103140008F01E52DEF76DE2E97FF09C090958095D3
:10315000709561957F4F8F4F9F4F6894D7F82AE005
:1031600030E0A4010E94E619C82EC818AC2C5D2CD2
:10317000D6FE0CC0E89450F8CB1440F4D4FE05C041
:10318000D2FC03C05D2D5E7E552EAB2C54FEADC02F
:10319000FE01EC0DF11D8081803309F09FC0652D8B
:1031A000697E562E752D7870372E53FCADC050FEBB
:1031B000A7C0BC2CA41418F44C0CB42CBA1854FEA0
:1031C000A9C0B70180E390E00E94B61952FE09C081
:1031D00088E790E051FE02C088E590E0B7010E94C8
:1031E000B619CB1408F4A2C0CA94D12C8FEFC81A18
:1031F000D80AC80CD91CD6018E916D01B70190E098
:103200000E94B6198C149D04B1F758CF6191719149
:10321000072E000C880B990B93CFD52CE894D4F88B
:103220002AE030E08537E1F1F52DF97FDF2E803798
:1032300051F100F5883551F18F3681F1F701868122
:1032400097812F960FB6F894DEBF0FBECDBFDF91EA
:10325000CF911F910F91FF90EF90DF90CF90BF9093
:10326000AF909F908F907F906F905F904F903F9026
:103270002F900895883711F7D4FE02C06894D2F8D1
:1032800020E130E00DC06894D4F8F6CF54FE03C0BE
:103290002F2F2660D22E20E132E002C028E030E05D
:1032A000F801D7FE15C041915191619171914C8700
:1032B0005D876E877F878F01A4016C857D858E85F4
:1032C0009F850E94E619C82EC818E894D7F84ECFFB
:1032D00081919191AC0170E060E0E9CF52FC02C0B5
:1032E000A39460CFA394A3945DCF852D867809F431
:1032F00059CFF6CFB70180E290E00E94B619A394AF
:10330000A414C0F3312C5BCF342C3A18A41408F465
:1033100056CFF8CF852D867809F463CF8BE251FE26
:1033200080E257FC8DE2B70190E059CFB70180E30E
:1033300090E00E94B619BA9454CF8FEF9FEF81CFDF
:10334000FC010590615070400110D8F78095909570
:103350008E0F9F1F0895FC01615070400190011075
:10336000D8F7809590958E0F9F1F08950F931F9308
:10337000CF93DF93182F092FEB018B8181FD09C0BB
:103380001FEF0FEF812F902FDF91CF911F910F91A2
:10339000089582FF14C02E813F818C819D81281762
:1033A00039073CF4E881F981CF010196998388833C
:1033B00010838E819F8101969F838E83E3CFE88562
:1033C000F985812F0995892BA1F3DACFFA01AA2774
:1033D000283051F1203181F1E8946F936E7F6E5F58
:1033E0007F4F8F4F9F4FAF4FB1E03ED0B4E03CD006
:1033F000670F781F891F9A1FA11D680F791F8A1FE9
:10340000911DA11D6A0F711D811D911DA11D20D04F
:1034100009F468943F912AE0269F11243019305D09
:103420003193DEF6CF010895462F4770405D4193FA
:10343000B3E00FD0C9F7F6CF462F4F70405D4A3347
:1034400018F0495D31FD4052419302D0A9F7EACF0F
:10345000B4E0A6959795879577956795BA95C9F73E
:1034600000976105710508959B01AC010A2E069431
:103470005795479537952795BA95C9F7620F731FEA
:10348000841F951FA01D0895DC01CB01FC01F99953
:10349000FECF06C0F2BDE1BDF89A319600B40D92A0
:1034A00041505040B8F70895DC01CB0103C02D9185
:1034B0000E945F1A41505040D0F70895262FF99985
:1034C000FECF1FBA92BD81BD20BD0FB6F894FA9A07
:1034D000F99A0FBE01960895052E97FB1EF40094ED
:1034E0000E94831A57FD07D00E949E1A07FC03D042
:1034F0004EF40C94831A50954095309521953F4F8A
:103500004F4F5F4F089590958095709561957F4FCF
:103510008F4F9F4F08950E94C01AA59F900DB49F92
:10352000900DA49F800D911D11240895B7FF0C9458
:103530008B1A0E948B1A821B930B0895A1E21A2EFC
:10354000AA1BBB1BFD010DC0AA1FBB1FEE1FFF1F47
:10355000A217B307E407F50720F0A21BB30BE40B97
:10356000F50B661F771F881F991F1A9469F76095DE
:103570007095809590959B01AC01BD01CF01089598
:10358000A29FB001B39FC001A39F700D811D1124A4
:10359000911DB29F700D811D1124911D0895F89405
:1035A000FFCF0C011E015201A001B901E00126026A
:1035B0000C0326032F0332035003570363038B03CB
:1035C0005E03C305D605F9059B0604060F062C0607
:1035D000370649066006770682068D069006FF08C4
:1035E0000D0914091D092609F1080609F808C30880
:1035F000DE082F09700879080608060806085A0828
:1036000063086708480851088208B508BC0806081E
:1036100006080608A408AB08AE0896089D081C100A
:10362000A10FA50FA80FC00F1E100710C30FDB0FAF
:0E363000A10FDE0FF00FF30FF30FA80F131012
:10363E00FFFF0100000002000000008D09000000E5
:10364E00000100000050C300001419010303010023
:10365E00000000000000001800000001000200033E
:10366E0000040005000600070008000900200205FE
:10367E00000000000000000000002E010500000008
:10368E0003033005050101010101010100000101E3
:10369E0001000001030300000303030303033102CF
:1036AE0005010101010101030303033205050101B7
:1036BE0001010100000000010101010101030300ED
:1036CE00000003030303033305050101010101009B
:1036DE0000000101010101010100000003030303C9
:1036EE00030303340505010000010101000001017F
:1036FE000101010101000000030300000003033576
:10370E000505010101010101010000000101010196
:10371E000100000000030303030303360505010146
:10372E00010101010100000001010101010303007B
:10373E000003030303030337050501010101010023
:10374E000000010100000001010000000303000061
:10375E00000303380505010101010101000001010B
:10376E0001010101010300000303030303030339F5
:10377E000505010101010101000001010101010125
:10378E0001000000030303030303034105050303C4
:10379E0003030303000003030300000303030303F7
:1037AE0003030300000303420505030303030003A1
:1037BE0003000300030303030303030000030303D7
:1037CE000303034305050303030303030300000080
:1037DE00030300000003030000000303030303447C
:1037EE0005050303030303000000000303030000A9
:1037FE00030303000003030303030345050503034B
:10380E000303030303000000030303030303030086
:10381E000000030303030346050503030303030329
:10382E00030000000303030303030300000003036C
:10383E000000004705050303030303030300000014
:10384E0003030003030303000003030303030348FE
:10385E000505030300000303030000030303030332
:10386E0003030300000303030000034902050303DF
:10387E0003030303030303034A05050000000303C8
:10388E000000000303000000030303000003030312
:10389E00030303034B0505030300030303030003A4
:1038AE0000030303030303030000030303000003E9
:1038BE004C05050303000000030300000003030092
:1038CE000000030300000003030303034D0605037A
:1038DE0003030303030303000300030303000300B6
:1038EE00030303000300030303000300034E050557
:1038FE000303030303030300000303030000030396
:10390E000300000303030000034F05050303030335
:10391E00030303000003030300000303030000037B
:10392E00030303030350050503030303030303000B
:10393E00000303030303030303000000030300005B
:10394E0000510605030303030300030300000300F5
:10395E00030300000300030300000300030303033B
:10396E0003035205050303030303030300000303CC
:10397E0003030303030300030003030003035305C0
:10398E000503030303030303000000030303030300
:10399E0000000000030303030303540405030303A1
:1039AE0003000303000003030000030300000303EE
:1039BE000055050503000003030300000303030085
:1039CE00000303030000030303030303035605056B
:1039DE0003030000030303000003030300000303BB
:1039EE00030000030003030303570605030300034C
:1039FE000003030300030003030300030003030398
:103A0E000003000303030303030358050503030028
:103A1E000003030300030300030303000303000377
:103A2E00030300000303590505030000030303000D
:103A3E000003030303030303000000030303030354
:103A4E0003035A05050303030303000000030303E6
:103A5E0003030303030000000003030303036106D3
:103A6E000500000000000003030303030003000031
:103A7E0003030003000003030003030303030362B5
:103A8E000505030300000003030303030303000003
:103A9E000303030000030303030303630505000090
:103AAE0000000003030303030303000000030300ED
:103ABE000000030303030364050500000003030372
:103ACE0003030303030000030303000003030303C4
:103ADE000303036505050000000000030303030351
:103AEE000303000003030300000003030303036644
:103AFE000405000303030003030003030303000391
:103B0E000300000303006705050000000000030327
:103B1E000303030300000303030303030300000076
:103B2E0003036805050303000000030303030303F7
:103B3E0003000003030300000303030000036902F4
:103B4E0005030300000303030303036A03050003D5
:103B5E00030000000003030003030303036B0505CA
:103B6E000303000000030300030303030003000329
:103B7E000303030303030000036C030503030003A5
:103B8E0003000303000303000303036D0605000097
:103B9E0000000000030303030303030300030003F9
:103BAE000303000300030303000300036E05050077
:103BBE0000000000030303030303030000030303D9
:103BCE0000000303030000036F0505000000000062
:103BDE0003030303030303000003030300000303B3
:103BEE000303030370050500000000000303030335
:103BFE000303030000030303030303030300000096
:103C0E007106050000000000000303030303000318
:103C1E00000003030003030303030000000003037B
:103C2E0003720405000000000303030303030000F6
:103C3E0003030000030300007305050000000000ED
:103C4E00030303030303030000000000000003034B
:103C5E0003030303740405000303000303030300BB
:103C6E0003030000030300000303037506050000B1
:103C7E000000000003000003030003000003030024
:103C8E00030000030300030303030303760505008B
:103C9E0000000000030300000303030000030303FE
:103CAE000000030003030303770605000000000075
:103CBE0000030300030003030300030003030300D8
:103CCE00030003030303030303780505000000004C
:103CDE0000030300030303030303000003030303B2
:103CEE000303000303790505000000000003000034
:103CFE000303030000030303030303030000000395
:103D0E00037A05050000000000030303030300000F
:103D1E000000030303000000030303030323131A2D
:103D2E000E12170B0C161920220D180A1124061F3D
:103D3E001D1507081B1C211E090F1426270402033C
:103D4E000100052510A512A512A512A5122B132BE5
:103D5E00132B132B132B132B1355125512E812BCC6
:103D6E0013A2134B12FD1216134A124A1253125378
:103D7E0012531253120409020E0D08030A0B0F10F0
:103D8E0005070C14121300060117151611B60501BE
:103D9E00039C06A302BF0256021F10E200256C64AC
:103DAE000025367300706C61790070696E62616C0B
:103DBE006C0068692073636F72650047616D654FB3
:103DCE0076657200636F696E73002564206F6620DE
:103DDE00256400696E73657274006672656567614D
:103DEE006D650062616C6C2025640073686F6F7482
:103DFE0000616761696E0074696C740068646F209D
:103E0E002530346400686463202530346400717595
:103E1E006965742025640074696C747920256400CA
:103E2E0062616C6C7320256400736F756E6420255F
:103E3E006400636F696E7320256400706C61797322
:103E4E0020256400666768732025640066676D61CF
:103E5E002025640072657365740050202020202098
:083E6E002020204F47470A0005
:00000001FF
