:100000000C94B3000C94D2000C94D2000C94D20047
:100010000C94D2000C94D2000C94D2000C94D20018
:100020000C94D2000C94D2000C94D2000C94D20008
:100030000C94D2000C94B50E0C94D2000C94D20007
:100040000C94D2000C94D2000C94D2000C94D200E8
:100050000C948E0C0C94C40C0C94D2000C94D20012
:100060000C94D2000C94D2000C94D2000C94D200C8
:100070000C948A0D0C94C00D0C94D2000C94D200F8
:100080000C94D2000C94D2000C94D2001B1A0A0BD0
:100090000B0B1C19191919191D18181818181312F7
:1000A0000F00000001020D0D0D0D030C10101010BB
:1000B0000E0E0E0E0E0E1111111111111414141436
:1000C00014140405060708091515151515151D0046
:1000D000001D01011C02021C03031B13041A050569
:1000E0001A12061907071908081809090B0C0C0D34
:1000F0000E0E0F10111415150A14154F56455231D6
:10010000004F56455230007374617274004452417E
:10011000494E3100445241494E30005354415254EB
:10012000004C4F4732004C4F4731004C4F47300096
:10013000424541524D4F5500524F41523200524FAD
:1001400041523100524F4152300044524950004810
:10015000495400710A00710A000A710A2B0A000A48
:10016000710A2B0A000011241FBECFEFD0E4DEBFBE
:10017000CDBF19E0A0E0B1E0E6ECF6E300E00BBF94
:1001800002C007900D92A433B107D9F72BE0A4E386
:10019000B9E001C01D92A83DB207E1F70E946316C5
:1001A0000C94111B0C940000AB019B012095309521
:1001B00080910001909101012817390781F4A895D9
:1001C0004F5F5F4FCA018095909590930101809396
:1001D000000164E670E089E090E00C941016089548
:1001E000FF920F931F93CF93DF93FB01673071054D
:1001F00008F07BC0ED5EF44E0C94C21610925509C7
:100200001092540924E042E350E063E070E084E29D
:1002100090E00E94FF1041E050E062E070E02BC0EF
:1002200041E050E06AE070E090E080E00E9410164B
:100230008091550991E0980F9093550923E042E38E
:1002400050E064E070E090E00E94FF10809155095A
:100250008E3108F44AC010925509809154098330B8
:1002600020F48F5F8093540940C01092540942E0FB
:1002700050E062E370E090E080E0DF91CF911F9169
:100280000F91FF900C94101642E050E06AE070E08D
:1002900090E080E00E941016D0E0C0E00AE010E09C
:1002A00046E0F42E80915509282F30E090915409B2
:1002B00090FD21C0FE018F9DE00DF11D1124E4573A
:1002C000FF4F849190E021E042E350E066E070E06F
:1002D0000E94FF102196C630D10521F78091550963
:1002E0008A30A0F48F5F80935509DF91CF911F91E1
:1002F0000F91FF900895C801821B930BF89EF001A7
:10030000F99EF00D1124EC0FFD1FD9CF1092550965
:1003100080915409853008F4A4CF1092540943E029
:1003200050E07BCFD0E0C0E020E050E040E065E06E
:1003300070E0CE010E94FF102196CE31D105A1F7C9
:1003400044E050E062E070E090E080E00E9410162F
:1003500010925509CACF44E050E062E070E090E0AE
:1003600080E00E9410168091550991E0980F9093BB
:10037000550921E049E150E063E070E090E00E941F
:10038000FF10809155098E3108F4AFCF10925509B6
:1003900080915409843008F464CF1092540945E0E8
:1003A00050E067CF45E050E06AE070E090E080E028
:1003B0000E941016D0E0C0E00EE010E033E0F32E13
:1003C00080915509282F30E09091540990FD25C067
:1003D000FE018F9DE00DF11D1124E253FF4F84912A
:1003E00090E021E042E350E066E070E00E94FF1000
:1003F0002196C330D10521F7809155098E3008F43C
:1004000071CF1092550980915409853008F429CF95
:100410001092540946E050E000CFC801821B930BB4
:10042000FC01EE0FFF1FE80FF91FEC0FFD1FD5CFEA
:10043000D0E0C0E020E050E040E065E070E0CE01B8
:100440000E94FF102196CE31D105A1F750E040E087
:1004500079CF909156098034D1F4943091F028F4FA
:10046000992331F0923051F00895963069F0089553
:1004700062E070E081E090E00C942D1664E070E0A2
:10048000F9CF66E070E0F6CF70E060E0F3CF943033
:1004900079F328F49923A9F39230B1F308959630B3
:1004A00069F3089587E090E00E94551620E050E03F
:1004B00040E065E070E082E290E00E94FF1020E002
:1004C00050E040E065E070E083E290E00E94FF10C1
:1004D00020E050E040E065E070E084E290E00C94C1
:1004E000FF10AB0161307105F9F06230710589F1DF
:1004F000672BA1F420E050E040E065E070E084E28A
:1005000090E00E94FF1020E050E040E070E060E0EA
:1005100082E290E00E94FF1041E050E06AE070E06B
:1005200087E090E00C94101620E050E040E065E099
:1005300070E082E290E00E94FF1020E050E040E096
:1005400070E060E083E290E00E94FF1042E050E043
:10055000E5CF20E050E040E065E070E083E290E02D
:100560000E94FF1020E050E040E070E060E084E294
:1005700090E00E94FF1050E040E0D0CFCF93DF9397
:10058000EB016530710598F4219623E049E150E0D4
:1005900064E070E0CE010C960E94FF10AE0164E1B1
:1005A00070E085E090E0DF91CF910C941016D0E0E0
:1005B000C0E0EBCF80915209672BB9F5811104C0DF
:1005C00082E090E00E94910F8091510990E022E03A
:1005D00044E150E066E070E048960E94FF1050E071
:1005E00040E068E070E086E090E00E9410168091A4
:1005F0005109853020F48F5F80935109089510923E
:10060000510980915209815080935209811113C080
:1006100086E090E00E94551620E049E150E066E057
:1006200070E088E190E00C94FF10843068F68F5FF2
:1006300080935209C9CF0895089542E050E062E0E6
:1006400070E081E090E00E94101650E040E068EC1D
:1006500070E090E080E00E9410160C945202CF935C
:10066000DF93FB016A30710508F09BC0E65EF44E33
:100670000C94C21684E090E00E94910F86E090E016
:100680000E94910F809138090E94741541E050E05A
:1006900069E170E083E090E0DF91CF910C94101657
:1006A00080915009811103C083E0809350098091AB
:1006B00039090E94741543E050E062E370E083E082
:1006C00090E00E94101680913909DF91CF910C942F
:1006D0007415809138090E947415809150098150D9
:1006E0008093500942E050E0811102C044E050E0A4
:1006F00062E370E083E090E00E9410168091380978
:10070000E4CF28E049E150E064E070E083E190E06C
:100710000E94FF1045E050E069E170E083E090E066
:100720000E94101610925009DF91CF910895809188
:1007300038090E9474158091500991E0980F9093A8
:10074000500946E050E0853008F0A2CF45E050E087
:100750009FCF1092500981E090E00E94FA1447E088
:1007600050E064E670E083E090E00E941016D0E074
:10077000C0E020E049E150E066E070E0CE010E9478
:10078000FF102196C430D105A1F7CECF49E050E04B
:100790007FCF80914C09811104C080E190E00E94DC
:1007A000910F809139090E94741548E050E070CF94
:1007B000CF93DF9310924A0980E00E94B315D0E0F6
:1007C000C0E021E050E040E070E060E0CE010E9437
:1007D000FF102196C732D105A1F720E050E040E09C
:1007E00065E070E08FE190E00E94FF1020E050E0B3
:1007F00040E065E070E085E290E00E94FF1020E0BC
:1008000050E040E065E070E080E290E00E94FF1080
:1008100020E050E040E065E070E081E290E00E947E
:10082000FF1020E044E650E064E070E086E290E0F3
:100830000E94FF1085E090E00E9455160E9452022F
:1008400047E050E062E370E083E090E0DF91CF9119
:100850000C94101690915709890F843670F4809388
:100860005709662361F085E090E00E94FA1468E081
:1008700070E081E090E00C942D1683E6F0CF0895AF
:1008800080913F099091400901969093400980938F
:100890003F0990913E0980915709891728F0891BDB
:1008A0008093570981E0089580E00895CF93DF9306
:1008B000CDB7DEB762970FB6F894DEBF0FBECDBFDF
:1008C00082E1E6E1F1E0DE01119601900D928A9558
:1008D000E1F782E1FE013196A4E3B9E001900D92C7
:1008E0008A95E1F762960FB6F894DEBF0FBECDBFD2
:1008F000DF91CF91089542E150E070E060E084E341
:1009000099E00E94861AE4E3F9E080E09191890F72
:1009100099E0E534F907D1F79091450998130C94C3
:1009200056040895E4E3F9E080E09191890F99E09D
:10093000E534F907D1F78093450942E150E070E0D2
:1009400060E084E399E00C94961A90E080E00E94C5
:10095000910F8CE090E00E94910F0E94D80380914B
:100960004909882301F18091430990914409019636
:10097000909344098093430960E080913E090E946E
:100980002A048091580990915909A0915A09B0916F
:100990005B098093340990933509A0933609B0938D
:1009A00037090C9492040895CF92DF92EF92FF9250
:1009B0000F931F93CF93DF93CDB7DEB766970FB634
:1009C000F894DEBF0FBECDBF10924C0910924B09B8
:1009D00081E00E94B31580E190E00E94910F20E039
:1009E00050E040E070E060E08EE190E00E94FF1097
:1009F00020E050E040E065E070E082E290E00E949C
:100A0000FF1020E050E040E065E070E083E290E01D
:100A10000E94FF1020E050E040E065E070E084E2DA
:100A200090E00E94FF1020E050E040E065E070E0C0
:100A300085E290E00E94FF1020E050E040E065E099
:100A400070E086E190E00E94FF1020E050E040E07E
:100A500065E070E087E190E00E94FF1086E1E8E247
:100A6000F1E0DE01119601900D928A95E1F78E0179
:100A70000F5F1F4F6E0187E1C80ED11CF801E19096
:100A8000F1908F01C7010E94F010892B41F420E002
:100A900049E150E066E070E0C7010E94FF10C01617
:100AA000D10661F70CE010E08091020190E09C011A
:100AB000255F3F4F2017310784F50C960E94F010F8
:100AC000069759F08091020190E020E049E150E062
:100AD00066E070E00C960E94FF1080914D0991E055
:100AE000980F90934D0990913C09891730F550E08B
:100AF00040E062E070E084E090E066960FB6F89423
:100B0000DEBF0FBECDBFDF91CF911F910F91FF9040
:100B1000EF90DF90CF900C941016C8010E94F01057
:100B2000892B41F421E050E040E065E070E0C8012D
:100B30000E94FF100F5F1F4FB7CF66960FB6F89455
:100B4000DEBF0FBECDBFDF91CF911F910F91FF9000
:100B5000EF90DF90CF900C94A5040F931F93CF9349
:100B6000DF93CDB7DEB72C970FB6F894DEBF0FBE7C
:100B7000CDBF1A821982FE0133968AE0DF011D92F1
:100B80008A95E9F780915B098F9380915A098F9339
:100B9000809159098F93809158098F9388E698E046
:100BA0009F938F938E010F5F1F4F1F930F930E9490
:100BB000A9171F930F938CE698E09F938F930E9441
:100BC0000F0A0FB6F894DEBF0FBECDBF2C960FB63E
:100BD000F894DEBF0FBECDBFDF91CF911F910F9173
:100BE0000895FB0180914A098111F1C06E307105B1
:100BF00008F0EDC0EC5DF44E0C94C216109256094C
:100C000080E798E09F938F930E940F0A41E050E0A5
:100C100060E971E081E090E00E94101610925309A3
:100C20000F900F90089580915309811103C088E0BF
:100C300080935309809153098150809353098823ED
:100C4000A9F080FF10C085E798E09F938F930E94E2
:100C50000F0A0F900F9041E050E062E370E081E0F6
:100C600090E00C9410160E942F0AF5CF42E050E05D
:100C700068EC70E0F4CF82E0809356090E94AD05E5
:100C800044E050E068EE73E0EACF84E080935609D8
:100C90008DE798E09F938F930E940F0A0F900F901B
:100CA00045E050E0E5CF809137098F938091360978
:100CB0008F93809135098F93809134098F9388E6C3
:100CC00098E09F938F930E940F0A0F900F900F90C0
:100CD0000F900F900F9046E050E068E572E0BFCFB4
:100CE00086E08093560986E898E09F938F930E9450
:100CF0000F0A0F900F9047E050E0BACF80913E0965
:100D0000882359F08FE898E09F938F930E940F0AF1
:100D10000F900F9048E050E0ABCF50E040E062E031
:100D200070E09DCF80913E091F928F93809157096B
:100D30001F928F9385E998E09F938F930E940F0AEB
:100D40000F900F900F900F900F900F9050E040E099
:100D50008FCF80913E091F928F93809157091F92E8
:100D60008F9385E998E09F938F930E940F0A0F90CD
:100D70000F900F900F900F900F904AE050E078CFB7
:100D80008EE998E09F938F930E940F0A0F900F9027
:100D90004BE050E06DCF8FE898E09F938F930E94D7
:100DA0000F0A0F900F904CE050E062CF0E942F0A84
:100DB000CDCF8DE08093560985EA98E09F938F937D
:100DC0000E940F0A0F900F9042E050E0A8CF0895C4
:100DD000CF93DF93CB0120914A09222381F0633026
:100DE000710509F490C070F46130710509F46AC0AE
:100DF0006230710509F47CC0892B09F449C0DF9188
:100E0000CF9108956430710509F488C0653071058B
:100E1000B1F781E08093480947E050E068EC70E06A
:100E200083E090E00E941016D0E0C0E020E050E0A7
:100E300040E070E060E0CE010E94FF102196C732D2
:100E4000D105A1F721E048E552E063E070E085E2DA
:100E500090E00E94FF1020E050E040E065E070E08C
:100E60008EE190E00E94FF108DE090E00E94910FD3
:100E700080E00E94B31582EC98E09F938F930E94CC
:100E80000F0A0F900F9043E050E068E572E02AC02F
:100E900081E08093470982E090E00E94FA148091FB
:100EA0004D091F928F938EEA98E09F938F930E9433
:100EB0000F0A0F900F900F900F9043E050E060E901
:100EC00071E010C082E090E00E94FA1486EB98E096
:100ED0009F938F930E940F0A0F900F9042E050E073
:100EE00068EC70E084E090E0DF91CF910C941016F4
:100EF0008CEB98E09F938F930E940F0A0F900F90B6
:100F000043E050E0EDCF10924809109247090E944B
:100F1000AD0543E050E062E370E0E4CF81E0809310
:100F2000480985EA98E09F938F930E940F0A0F90DB
:100F30000F90C3CF109258091092590910925A0974
:100F400010925B090C94AD050E94D8030E949A0789
:100F500081E080934A091092490910924D098093CB
:100F600002011092460982E090E00E94551681E04D
:100F700090E00E94551690E080E00E94551620E017
:100F800050E040E070E060E08FE190E00E94FF10F0
:100F900020E050E040E065E070E086E290E00E94F2
:100FA000FF100C94D404CF93DF9300D000D0CDB7C2
:100FB000DEB78091580990915909A0915A09B091D2
:100FC0005B09BC01CD010F900F900F900F90DF9146
:100FD000CF91089540910201489F9001499F300DA3
:100FE00011248091580990915909A0915A09B09102
:100FF0005B09820F931FA11DB11D80935809909327
:101000005909A0935A09B0935B098091460981114F
:1010100004C080913A09811104C085E090E00E94EB
:10102000FA1480914809811102C00E94AD05809197
:101030004909811124C040913409509135096091CA
:101040003609709137098091580990915909A091FA
:101050005A09B0915B09481759076A077B0778F46A
:1010600081E08093490944E050E062E070E084E070
:1010700090E00E94101690E080E00C94FA1408951D
:101080008631910509F49FC0B8F4E0914E09F091C2
:101090004F098431910559F1459709F44AC0E0910F
:1010A0004E09F0914F093197EB30F10508F039C145
:1010B000EE5CF44E0C94C216479789F710924F09D4
:1010C00010924E090E9492040E94D80350E040E022
:1010D00068EC70E090E080E00E94101650E040E084
:1010E00068EC70E081E090E00E941016D8CFEF2B02
:1010F00081F483E090E00E94551681E090E00E9428
:10110000551690E080E00E94551684E090E00E9421
:10111000551680914E0990914F0901968C3091059A
:1011200028F490934F0980934E09B9CF81E090E065
:10113000F8CF3197EB30F10508F0B1CFE35CF44E16
:101140000C94C216809138098F3108F0A8CF8F5FB8
:1011500080933809A4CF809139098F3108F09FCF4F
:101160008F5F809339099BCF80913A09823008F0D4
:1011700096CF8F5F80933A0992CF81E080933D09AB
:101180008ECF80913B09833608F089CF8F5F8093A3
:101190003B0985CF80913C09893008F080CF8F5F73
:1011A00080933C097CCF80913E09893008F077CF4D
:1011B0008F5F80933E0973CF90E080E00E94FA1425
:1011C0000E9456046CCFE0914E09F0914F0931977F
:1011D000EA30F10508F063CFE85BF44E0C94C216D8
:1011E00080913809803108F45ACF8150B1CF809175
:1011F0003909803108F453CF8150B3CF80913A0937
:10120000882309F44CCF8150B5CF10923D0947CFC8
:1012100080913B09823008F442CF8150B8CF809151
:101220003C09823008F43BCF8150BACF80913E090F
:10123000882309F434CF8150BCCF809138090E94B3
:10124000741549E050E062E370E083E090E00E94B2
:101250001016809138091F928F9387EC98E09F9326
:101260008F930E940F0A0F900F900F900F90089588
:10127000809139090E94741549E050E062E370E002
:1012800083E090E00E941016809139091F928F939D
:1012900080ED98E0E4CF80913A091F928F9389ED19
:1012A00098E0DDCF80913B091F928F9382EE98E00A
:1012B000D6CF80913C091F928F938BEE98E0CFCFD1
:1012C00080913D091F928F9384EF98E0C8CF809161
:1012D0003E091F928F938DEF98E0C1CF8091400916
:1012E0008F9380913F098F9386E099E0B8CF8091EA
:1012F00044098F93809143098F938FE099E0AFCF9A
:10130000809142098F93809141098F9387E199E001
:10131000A6CF8FE199E09F938F930E940F0A0F90C1
:101320000F900895AF92BF92CF92DF92EF92FF920B
:101330000F931F93CF93DF93162F042FCEE3D1E0AB
:1013400098818917B9F029819A81299FC00DD11DF3
:101350001124239697E0C63ED90790F380E0DF91F1
:10136000CF911F910F91FF90EF90DF90CF90BF90A2
:10137000AF900895D12CC12C209781F389818C15D1
:101380001D0469F364F3F12CE12C5E01AC0CBD1C6F
:1013900016C08E9DF0018F9DF00D9E9DF00D1124C5
:1013A000EA0DFB1D41E08381811101C040E0602F07
:1013B0006E0D812F0E944C0A8FEFE81AF80A8A817D
:1013C00090E0E816F9062CF39FEFC91AD90A1150DC
:1013D000D5CFCF93C82F42E0609103010E949209BC
:1013E000982FCA3049F40E94DB0A88E280930301F7
:1013F00090E080E0CF91089580910301891B809354
:101400000301C0E040E06C2F809103010E944C0A70
:10141000CF5FC830B9F7809103018150E7CFEF92D9
:10142000FF920F931F93CF93DF93CDB7DEB78E015B
:10143000075F1F4FF801E190F1908F010E94A90A08
:10144000B801C7010E94D9178AE090E00E94A31753
:10145000DF91CF911F910F91FF90EF9008950C9421
:10146000A90A0E941D0B84E091E09093D50B809314
:10147000D40B089584EA8093BC008091BC0087FF60
:10148000FCCF08958093BB0084E88093BC008091DA
:10149000BC0087FFFCCF08958832D8F46830C8F4C8
:1014A000423081F1B8F490E0411141C021E030E0D8
:1014B00001C0220F6A95EAF72095FC01EC57F64F20
:1014C000308132233083FC01E45AF64F9081292386
:1014D00020830895433009F00895E82FF0E081E07B
:1014E00090E001C0880F6A95EAF7DF01AC57B64F6C
:1014F0009C91982B9C93E45AF64F80959081892378
:1015000080830895E82FF0E081E090E001C0880F2B
:101510006A95EAF7DF01AC57B64F282F20959C91CA
:1015200092239C93E45AF64F9081892BE9CF21E0D6
:1015300030E001C0220F6A95EAF7FC01EC57F64F44
:101540003081322B3083FC01E45AF64F8081282B06
:10155000BFCF0F931F93CF93DF9388E2E4E8F9E0C6
:10156000DF01982F1D929A95E9F7ECE5F9E0DF018C
:101570001D928A95E9F7C0E0D4E90E943A0A8C2FBF
:10158000806E0E94420A80E00E94420A08E010E059
:1015900080E00E94420A80E00E94420A0150110944
:1015A000B9F7D093BC00CE5FCA3039F7DF91CF9145
:1015B0001F910F910895AF92BF92CF92DF92EF9259
:1015C000FF920F931F93CF93DF93D0E0C0E010E022
:1015D00004E90E943A0A812F806E0E94420A80E04C
:1015E0000E94420ACE01845A964F5C01FE01EC57DC
:1015F000F64F6F0188E0E82EF12CF50181915F0133
:101600000E94420AF60181916F010E94420AF1E0B4
:10161000EF1AF10891F70093BC001E5F2896C832BC
:10162000D105B9F6DF91CF911F910F91FF90EF9007
:10163000DF90CF90BF90AF9008951F93CF93DF932B
:1016400088B1836088B987B1836087B91092B90087
:101650008CE08093B80084E08093BC00C0E0D4E9C3
:101660000E943A0A1C2F106E812F0E94420A81E2CA
:101670000E94420AD093BC000E943A0A812F0E9425
:10168000420A81E80E94420AD093BC00CE5FCA3071
:1016900039F7DF91CF911F910C94A90A8AB18F7C01
:1016A0008AB98BB180638BB987B18F7387B988B1E1
:1016B000806C88B908950F931F93CF93DF930E9496
:1016C000BF15EC0189B1182F109584FD1BC084E073
:1016D00090E00E94EB14811115C084E690E00E9416
:1016E000EA0784E090E00E94FA1421E049E150E02A
:1016F00063E070E086E190E00E94FF1085E090E0FA
:101700000E94FA1415FF1BC083E090E00E94EB14C6
:10171000811115C084E690E00E94EA0783E090E022
:101720000E94FA1421E049E150E063E070E087E1B3
:1017300090E00E94FF1085E090E00E94FA1416B13C
:101740001095012F007C0E948A15853009F442C053
:101750008035A1F1811113C016FF11C08091AE092F
:101760009091AF099E01281B390B2333310538F0C6
:10177000D093AF09C093AE0980E50E94A0150E94E6
:1017800087158530C9F1803549F1811130C007FFD7
:101790002EC08091AC099091AD099E01281B390B98
:1017A0002333310520F1D093AD09C093AC0980E516
:1017B000DF91CF911F910F910C948D158091AE09FF
:1017C0009091AF099E01281B390B2A313105B8F2DF
:1017D00085E0D3CF16FDD3CF80E0CFCF8091AC0989
:1017E0009091AD09C81BD90B85E06A9708F7DF9186
:1017F000CF911F910F91089507FDF9CF80E0D8CFC9
:101800008EBD0DB407FEFDCF08951EBC0DB407FEBE
:10181000FDCF8EB50895CF93DF93D62FC42F98B107
:1018200027EF843008F42BEF922398B9880F867045
:1018300080640E94000C8D2F0E94000C8C2F0E944F
:10184000000C88B18C6088B9DF91CF910895CF9357
:10185000C62F98B127EF843008F42BEF922398B964
:10186000880F867081640E94000C8C2F0E94000CEF
:101870000E94050C98B19C6098B9CF910895CF93C0
:1018800084B1806A84B926982E9A2F9A2D98249A2A
:101890002C9A80E58CBD8CB581608CBD81E08DBDBE
:1018A00085B7806885BF85B7806885BF2B98239AE8
:1018B00088B18C6088B987B18C6087B980E18A95DE
:1018C000F1F72B9AC0E04CE265E08C2F0E940B0CE4
:1018D0004FEF60E08C2F0E940B0C4FEF66E08C2FD7
:1018E0000E940B0C4FEF61E08C2F0E940B0CCF5F1E
:1018F000C33049F748E265E08C2F0E940B0C40E0B2
:101900006AE08C2F0E940B0C40E060E08C2F0E945C
:101910000B0CCF5FC83071F7CF9108951F921FB69F
:101920001F9211242F932BB72F933F934F935F93C5
:101930008F939F93EF93FF932091C0004091C60037
:101940003091F709832F90E001965091F6095817CE
:101950001906C1F028713F5F3093F7098650964F02
:10196000FC0140832093F509FF91EF919F918F91A6
:101970005F914F913F912F912BBF2F911F901FBED1
:101980001F90189522E0EECF8F938FB78F938BB770
:101990008F939F93EF93FF939091F9098091F809AA
:1019A0009817B9F08091F80990E001968F73992704
:1019B0008093F8098650964FFC0180818093C60081
:1019C000FF91EF919F918F918BBF8F918FBF8F91DF
:1019D00018958091C1008F7D8093C100F1CF9C014B
:1019E0008FB7F8941092F9091092F8091092F7093C
:1019F0001092F6098FBF37FF04C082E08093C000C9
:101A00003F773093C5002093C40088E98093C100DC
:101A100086E08093C20008958FB7F8942091F7096B
:101A20009091F6098FBF291303C080E091E00895DB
:101A30008091F609E82FF0E08F5F8093F609E5507A
:101A4000F64F20819091F509892F90E0982F8827F3
:101A5000820F911D08958FB7F8942091F709909106
:101A6000F6098FBF291303C080E091E00895E0914B
:101A7000F609F0E0E550F64F20819091F509892FA5
:101A800090E0982F8827820F911D08952091F909E1
:101A900030E02F5F3F4F2F7333279091F809921753
:101AA0001306D9F3F901E650F64F80832093F90924
:101AB0008091C10080628093C1000895CF93DF932D
:101AC000EC018991811103C0DF91CF9108950E94AB
:101AD000460DF7CFCF93DF93EC01FE018491219661
:101AE000811103C0DF91CF9108950E94460DF5CF7B
:101AF0002FB7F8948091F7099091F6092FBF891BB1
:101B0000990B08958FB7F8949091F6099093F7097F
:101B10008FBF08951F921FB61F9211242F932BB7CA
:101B20002F933F934F935F938F939F93EF93FF93E5
:101B30002091C8004091CE003091B209832F90E0EF
:101B400001965091B10958171906C1F028713F5FED
:101B50003093B2098B54964FFC0140832093B00917
:101B6000FF91EF919F918F915F914F913F912F91B5
:101B70002BBF2F911F901FBE1F90189522E0EECF14
:101B80008F938FB78F938BB78F939F93EF93FF9321
:101B90009091B4098091B3099817B9F08091B30975
:101BA00090E001968F7399278093B3098B54964FD9
:101BB000FC0180818093CE00FF91EF919F918F91E6
:101BC0008BBF8F918FBF8F9118958091C9008F7DAA
:101BD0008093C900F1CF9C018FB7F8941092B4099B
:101BE0001092B3091092B2091092B1098FBF37FF5A
:101BF00004C082E08093C8003F773093CD002093EB
:101C0000CC0088E98093C90086E08093CA000895DB
:101C10009FB7F8942091B2098091B109281304C0AC
:101C20009FBF80E091E008958091B109E82FF0E036
:101C300031968F5F8093B1099FBFEB54F64F20819F
:101C40009091B009892F90E0982F8827820F911DDD
:101C500008958FB7F8942091B2099091B1098FBF80
:101C6000291303C080E091E00895E091B109F0E00C
:101C7000EA54F64F20819091B009892F90E0982F77
:101C80008827820F911D08952091B40930E02F5FBD
:101C90003F4F2F7333279091B30992171306D9F34F
:101CA000F901EB54F64F80832093B4098091C90069
:101CB00080628093C9000895CF93DF93EC018991EE
:101CC000811103C0DF91CF9108950E94440EF7CF98
:101CD000CF93DF93EC01FE0184912196811103C023
:101CE000DF91CF9108950E94440EF5CF2FB7F8945D
:101CF0008091B2099091B1092FBF891B990B08956A
:101D00008FB7F8949091B1099093B2098FBF08955D
:101D1000EEE6F0E090819D7F908367BD92E094BDF8
:101D200085BD16BC808182608083089515BC0895AE
:101D3000EFE6F0E090819D7F908350933B0A4093C3
:101D40003A0A70938900609388001092800088603E
:101D500080938100109285001092840080818260BF
:101D6000808308951092810008951F920F920FB6FC
:101D70000F9211240BB60F922F933F934F935F93C3
:101D80006F937F938F939F93AF93BF93EF93FF9343
:101D9000E0913A0AF0913B0A309709F00995FF91DA
:101DA000EF91BF91AF919F918F917F916F915F91D3
:101DB0004F913F912F910F900BBE0F900FBE0F9040
:101DC0001F901895E0E7F0E090819D7F90836093ED
:101DD000B3001092B60092E09093B0008093B100EF
:101DE0001092B20080818260808308951092B100C9
:101DF0000895662371F090916E009D7F90936E0020
:101E000067BD92E094BD85BD16BCA99AA99BFECF83
:101E100015BC089561157105B9F090916F009D7F13
:101E200090936F00709389006093880010928000F7
:101E30008860809381001092850010928400B19A8E
:101E4000B19BFECF1092810008956623A9F0909176
:101E500070009D7F909370001092B6006093B30065
:101E600092E09093B0008093B1001092B200B99AC2
:101E7000B99BFECF1092B100089587E690E00E94D2
:101E8000EF0C8FE591E00E946A0D87E690E00E94DA
:101E9000EB0D89E591E00C94680E0F931F93CF939F
:101EA000DF93CDB7DEB72E970FB6F894DEBF0FBE27
:101EB000CDBF8C018EE0E5E2F9E0DE0111960190E4
:101EC0000D928A95E1F7C8010E948B17AC01B80109
:101ED000CE0102960E94941786E591E00E946A0D59
:101EE0002FEF89EF90E0215080409040E1F700C053
:101EF0000000CE0101960E945E0D2E960FB6F8945A
:101F0000DEBF0FBECDBFDF91CF911F910F9108951E
:101F1000089588E090E00E94551683E591E00C94C6
:101F2000680EFC01419708F07BC0EE5AF44E0C9409
:101F3000C2168FE491E00C944D0F8AE491E0FBCF40
:101F40000E947C1763E070E00E94AE16813091051C
:101F500049F08230910549F0892B09F061C084E491
:101F600091E0E9CF8EE391E0E6CF88E391E0E3CF23
:101F700080E391E0E0CF0E947C1763E070E00E9474
:101F8000AE168130910549F08230910549F0892BD8
:101F900009F046C08BE291E0CECF86E291E0CBCF54
:101FA00081E291E0C8CF8BE191E0C5CF0E94890F1B
:101FB0000E947C17282F62E070E00E94AE1620FF7E
:101FC00003C0019721F0089584E191E0B4CF8DE042
:101FD00091E0B1CF87E091E0AECF0E94890F0E94DF
:101FE0007C17282F62E070E00E94AE1620FF03C02D
:101FF000019721F0089581E091E09DCF8BEF90E073
:102000009ACF46E050E068E076E188E090E00C94FA
:10201000101640E150E060EC71E2F7CF0C94890FAC
:10202000089508950F9340913C0A69E083E00E946F
:102030000B0C20913C0A30913D0A40913E0A509190
:102040003F0A6091400A7091410A8091420A909142
:10205000430A08E00E94E616422F69E084E00E94ED
:102060000B0C20913C0A30913D0A40913E0A509160
:102070003F0A6091400A7091410A8091420A909112
:10208000430A00E10E94E616422F69E085E00E94C3
:102090000B0C20913C0A30913D0A40913E0A509130
:1020A0003F0A6091400A7091410A8091420A9091E2
:1020B000430A08E10E94E616422F69E086E00E948A
:1020C0000B0C20913C0A30913D0A40913E0A509100
:1020D0003F0A6091400A7091410A8091420A9091B2
:1020E000430A00E20E94E616422F6AE087E00F9161
:1020F0000C940B0CFF920F931F93CF93DF939C01D3
:10210000F62E8897C0F52A51384FF901008121E059
:1021100030E040E050E060E070E080E090E00E945D
:10212000CB16A0913C0AF0913D0AE0913E0A009145
:102130003F0A1091400AD091410AC091420AB091E1
:10214000430AFF20F1F02A2B20933C0A3F2B3093C7
:102150003D0A4E2B40933E0A502B50933F0A612B71
:102160006093400A7D2B7093410A8C2B8093420A26
:102170009B2B9093430ADF91CF911F910F91FF907A
:10218000089520953095409550956095709580956F
:1021900090952A2320933C0A3F2330933D0A4E23F7
:1021A00040933E0A502350933F0A61236093400AB4
:1021B0007D237093410A8C238093420A9B23D9CFBD
:1021C0009C018E34910550F4220F331FF901E95F11
:1021D000F44F81E020813181232B09F480E00895C0
:1021E0009C018E34910540F4220F331FF901E95F01
:1021F000F44F80819181089590E080E00895BF922E
:10220000CF92DF92EF92FF920F931F93CF93DF93C2
:10221000EC017B01B42EC52ED22E879758F561E0D4
:1022200085E0E816F10408F460E0CE010E947A101F
:102230008E01000F111FF801E95FF44FF182E08277
:10224000F801E559F54FB082C182CC5BD54FD882F9
:102250000E94BF15F801E754F54F91838083DF9109
:10226000CF911F910F91FF90EF90DF90CF90BF9093
:102270000C941210DF91CF911F910F91FF90EF906E
:10228000DF90CF90BF9008952F923F924F925F9230
:102290006F927F928F929F92AF92BF92CF92DF9276
:1022A000EF92FF920F931F93CF93DF9387E0E82E77
:1022B0008BE0F82E04E41AE0D0E0C0E0222423945E
:1022C000312C24E0422E512C35E0632E712C43E05A
:1022D000A42EB12CD7018D919D917D018330910564
:1022E00009F476C008F58130910509F442C00297DF
:1022F00009F48EC00F5F1F4F2296CE34D10551F7DF
:10230000DF91CF911F910F91FF90EF90DF90CF90D1
:10231000BF90AF909F908F907F906F905F904F9005
:102320003F902F900C9412108D7F049719F70E9404
:10233000BF15FE01E754F54F6F0120813181821BEB
:10234000930BFE01E559F54F20813181281739079C
:1023500088F6F7013297318220820E94BF15D6019C
:102360008D939C9360E0C80184549A400E947A1037
:10237000C1CF0E94BF15FE01E754F54F4F012081E8
:102380003181821B930BFE01E559F54F208131818C
:102390002817390708F0AECFD8018C91F801E45422
:1023A000FA406F01F7013297811109C051824082D2
:1023B0000E94BF15D4018D939C9361E007C08150AA
:1023C0008C938111F3CF1182108260E0C601CECFD1
:1023D0000E94BF15FE01E754F54F6F012081318146
:1023E000821B930BFE01E559F54F2081318128179F
:1023F000390708F07FCFF701329722E030E03183D0
:1024000020830E94BF15D6018D939C9361E0ABCFD2
:102410000E94BF15FE01E754F54F4F012081318125
:10242000821B930BFE01E559F54F2081318128175E
:10243000390708F05FCFD8018C91F801E454FA40D5
:102440006F01F7013297811108C0B182A0820E940A
:10245000BF15D4018D939C93B8CF81508C9381117B
:10246000F4CF71826082A9CF08958EE090E00E943F
:10247000910F61E081E00C942A040C944008CF9302
:10248000DF93D82FC92F80914A09882309F444C0CB
:1024900084E690E00E94EA0781E090E00E94910FBC
:1024A0008D2F9C2F0E94F010059749F021E050E0FD
:1024B00040E065E070E08D2F9C2F0E94FF108AE0C5
:1024C00090E00E94F010059739F58BE090E00E94B3
:1024D000F010059709F588EE93E00E94EA0725E0E1
:1024E00049E150E064E070E08AE090E00E94FF1073
:1024F00025E049E150E064E070E08BE090E00E946C
:10250000FF1025E049E150E063E070E087E190E0F2
:10251000DF91CF910C94FF10DF91CF910895CF936D
:10252000DF93D82FC92F80914A09882309F44AC024
:1025300084E690E00E94EA0783E090E00E94910F19
:102540008D2F9C2F0E94F0100597E1F121E050E0C3
:1025500040E065E070E08D2F9C2F0E94FF10D0E0DE
:10256000C0E0CE010E94F010059761F52196C430BD
:10257000D105B9F788EE93E00E94EA0750E040E009
:1025800062E070E083E090E00E94101650E040E0CE
:1025900062E370E087E090E00E94101620E049E1DD
:1025A00050E064E070E082E190E00E94FF1020E0E3
:1025B00050E040E065E070E083E190E0DF91CF9192
:1025C0000C94FF10DF91CF91089580914A098823E0
:1025D00029F183E190E00E94F010892B71F083E1F2
:1025E00090E00E94F010059741F044E050E069E16E
:1025F00070E083E090E00C94101682E190E00E947D
:10260000F010892B91F388E893E10E94EA0785E0B6
:1026100090E00E94910F42E050E0E9CF0895809150
:102620004A098823A1F080914B098F5F80934B0961
:1026300090913B09981758F481E080934C0945E04C
:1026400050E062E070E084E090E00C941016089591
:1026500080914A09882381F084E690E00E94EA078D
:1026600082E090E00E94910F41E050E062E070E073
:1026700086E090E00C9410160895CF93DF93D82F46
:10268000C92F80914A09882309F46BC084E690E041
:102690000E94EA0787E090E00E94910F8D2F9C2F07
:1026A0000E94F010059709F45CC021E050E040E082
:1026B00065E070E08D2F9C2F0E94FF10C4E0D0E0F9
:1026C000CE010E94F010059709F04BC02196CA3048
:1026D000D105B1F788EE93E00E94EA0788E090E028
:1026E0000E94910FC4E0D0E020E049E150E066E0B4
:1026F00070E0CE010E94FF102196CA30D105A1F7EB
:10270000809102018530E8F48F5F8093020190E0B0
:1027100021E050E040E065E070E00B960E94FF1081
:102720008091020190E020E049E150E066E070E035
:102730000C960E94FF1085E090E0DF91CF910C9401
:10274000FA148091460981110CC081E080934609FA
:1027500050E040E062E070E085E090E00E941016FA
:10276000EACFDF91CF91089580914A09811115C078
:102770000E944004882351F00E94A40750E040E0EA
:1027800062E070E084E090E00C94101649E050E0C4
:1027900062E070E081E090E0F7CF0895CF93DF939F
:1027A00000D000D0CDB7DEB780914A098823C1F1AF
:1027B00050E040E062E070E084E090E00E9410169B
:1027C0008091470981112CC00E94D30769837A83C5
:1027D0008B839C83672B682B692BB1F480914D0907
:1027E000813091F480914C0981110EC041E050E09C
:1027F00062E070E084E090E00F900F900F900F90F7
:10280000DF91CF910C9410168AE090E00E94910F16
:102810000F900F900F900F90DF91CF910C94D404F4
:102820000F900F900F900F90DF91CF910895089522
:10283000AF92BF92CF92DF92EF92FF920F931F93CE
:10284000CF93DF9300D000D0CDB7DEB7CE01019695
:102850006C01E12CF12C8C0169E08F2D0E94270C7A
:10286000D6018D936D01882311F0EE24E394F39447
:10287000B3E0FB12F1CFEEE3F8E030E020E041E01E
:1028800050E071E0EE2019F028313105E9F5898139
:1028900080936D0B8A8180936E0B8B8180936F0B7D
:1028A00095E5E92E9BE0F92E10E000E0F70181911B
:1028B0007F018823A9F031971082F801EE0FFF1FE6
:1028C000E25FF74F0190F081E02D80914C09882361
:1028D00021F083E1EE3CF80719F461E0C8010995A5
:1028E0000F5F1F4F0831110509F70F900F900F90E0
:1028F0000F90DF91CF911F910F91FF90EF90DF909C
:10290000CF90BF90AF9008958191982F97705A0102
:1029100001C0AA0C9A95EAF786958695869590E06F
:102920006801C80ED91ED6016C916A2151F08359F5
:10293000944FDC018C918A2121F4D901AB5AB44F18
:102940007C932F5F3F4F9ECF9C018330910571F1A7
:1029500048F4019791F184E02230310541F1232BB5
:10296000B9F008958430910551F1059781F4809173
:102970003A09823061F0662321F18091810B9091B8
:10298000820B892B21F481E092B1892B82B90895C1
:1029900080913A098230D9F36623A9F080918B0B9C
:1029A00090918C0B892B99F782E0EECF88E0611132
:1029B000EBCF92B180958923E9CF80E2F8CF80E117
:1029C000F6CF81E0F6CF82E0F4CF82B112B881B1C8
:1029D0008FEF81B908959C01089750F4220F331F9F
:1029E000F901EF57F44F81E020813181232B09F465
:1029F00080E00895CF92DF92EF92FF920F931F93A2
:102A0000CF93DF938C010E94BF15EC0108301105B4
:102A1000E8F47801EE0CFF1C97012F58344F690140
:102A2000F901808191819E01281B390B22333105E8
:102A300068F061E0C8010E94A414F601D183C0834C
:102A4000F701EF57F44F6496D183C083DF91CF91A4
:102A50001F910F91FF90EF90DF90CF900895EF922C
:102A6000FF920F931F93CF93DF930E94BF158C01AA
:102A700081E8E82E8BE0F82ED0E0C0E0F7018191EC
:102A800091917F01009751F08017910738F43297A8
:102A90001182108260E0CE010E94A4142196C830F9
:102AA000D10561F7DF91CF911F910F91FF90EF90CA
:102AB00008958091910B9091920B01969093920BB7
:102AC0008093910B089549E555E16EE470E085E04F
:102AD0000C94980E2C98249A80E284BD84B583606F
:102AE00084BD85E085BD089588BD08958AB1806C58
:102AF0008AB98AB1806C8AB9E0EBF0E080EA808321
:102B000080818960808386E08093B1000895809100
:102B1000940B08958091930B08959091950B9111CA
:102B200002C081110CC08093940B2FEF829FC001D3
:102B3000112464E670E00E94AE166093B40008951C
:102B40009091950B911102C081110CC08093930B51
:102B50002FEF829FC001112464E670E00E94AE1640
:102B60006093B3000895CF93C82F80E00E94A01512
:102B700080E00E948D15C093950BCF9108952FB7DB
:102B8000F8948091910B9091920B2FBF0895CF9262
:102B9000DF92EF92FF920F931F93CF93DF9306E99B
:102BA0001BE0CFEFDFEFD801CD90DC90FE01319636
:102BB0007F01C114D10429F10E94BF159C01D801E5
:102BC00012968D919C911397F901E81BF90BCE1683
:102BD000DF06B8F413963C932E931297E0EFF0E0E3
:102BE000C930D10530F4CC0FDD1FCA5AD74FE88168
:102BF000F981309731F0D80114966D917C91C7011D
:102C000009950A5F1F4FE701C930D10561F6DF91D1
:102C1000CF911F910F91FF90EF90DF90CF9008958B
:102C20000F931F93CF93DF939C018A010A9780F43F
:102C300086E0829FE001839FD00D1124CA56D44FB5
:102C4000688379830E94BF159B838A830C831D83CD
:102C5000DF91CF911F910F9108959C010A9790F4F5
:102C600086E0829FF001839FF00D1124EA56F44F15
:102C700080819181892B31F081E090E09183808384
:102C80006483758308959C010A9768F486E0829FA7
:102C9000F001839FF00D1124EA56F44F81E020816A
:102CA0003181232B09F480E008959C010A9750F4A8
:102CB00086E0829FF001839FF00D1124EA56F44FC5
:102CC000118210820895A89588E19EE00FB6F894CD
:102CD000A895809360000FBE909360000E943F0C07
:102CE0000E94E5140E9476150E946A150E944E0B00
:102CF0000E94310A0E943D0F0E94D8030E947B046B
:102D00000E94631544E050E062E370E083E090E0ED
:102D10000E94101650E040E062E070E081E090E038
:102D20000E94101650E040E062E070E090E080E029
:102D30000E94101650E040E068EC70E089E090E0FE
:102D40000E94101678940E9444110E9418140E9448
:102D50005B0B0E942F150E94C715F5CF97FB072E1E
:102D600016F4009407D077FD09D00E94011707FCE4
:102D700005D03EF4909581959F4F0895709561958B
:102D80007F4F0895EE0FFF1F0024001C0BBE07901D
:102D9000F691E02D0994002E083090F0982F872F9F
:102DA000762F652F542F432F322F22270850F4CF30
:102DB000220F331F441F551F661F771F881F991F3F
:102DC0000A95B2F7002D089597FD1094002E083053
:102DD00098F00850232F342F452F562F672F782F28
:102DE000892F912DF4CF15949795879577956795B1
:102DF00057954795379527950A95AAF71124002DE1
:102E00000895AA1BBB1B51E107C0AA1FBB1FA61731
:102E1000B70710F0A61BB70B881F991F5A95A9F783
:102E200080959095BC01CD010895CF92DF92EF92ED
:102E3000FF92CF93DF93CDB7DEB72A970FB6F89402
:102E4000DEBF0FBECDBF89879A87A985BA852D9130
:102E50003D914D915C9129833A834B835C83232B75
:102E6000242B252B41F424E239ED4BE557E029834F
:102E70003A834B835C8369817A818B819C812DE1CC
:102E800033EF41E050E00E94AE1A69017A01A7EAEF
:102E9000B1E49B01AC010E94CD1A69837A838B83D4
:102EA0009C83ACEEB4EFA70196010E94DB1A9B0154
:102EB000AC0189819A81AB81BC81820F931FA41FD1
:102EC000B51FB7FF03C00197A109B048E985FA858E
:102ED00080839183A283B3839F772A960FB6F89459
:102EE000DEBF0FBECDBFDF91CF91FF90EF90DF909F
:102EF000CF9008950C94151782E191E00C9415176A
:102F0000B0E0A0E08093120190931301A09314010C
:102F1000B09315010895FC0105900020E9F7809514
:102F200090958E0F9F1F0895FB01DC01415050408A
:102F300048F005900D920020C9F701C01D92415044
:102F40005040E0F708956091D40B7091D50B0C942C
:102F5000F8190F931F93CF93DF93CDB7DEB72E975A
:102F60000FB6F894DEBF0FBECDBF0D891E8986E077
:102F70008C831A8309838FEF9FE79E838D83AE0135
:102F8000475E5F4F6F89788DCE0101960E94E117F1
:102F90002F813885020F131FF80110822E960FB66D
:102FA000F894DEBF0FBECDBFDF91CF911F910F917F
:102FB0000895AB01BC018091D40B9091D50B0C947A
:102FC000E1172F923F924F925F926F927F928F9272
:102FD0009F92AF92BF92CF92DF92EF92FF920F93A8
:102FE0001F93CF93DF93CDB7DEB72F970FB6F8942B
:102FF000DEBF0FBECDBF7C013B018A01DC0117960D
:103000001C921E92169713968C9181FFD8C19AE05C
:10301000292EFE0131964F01D70113969C91F301A1
:1030200093FD859193FF81913F01882309F448C165
:10303000853239F493FD859193FF81913F0185326B
:1030400029F4B70190E00E94F819E6CFB12C412C89
:10305000512CBFE1B51538F08B3209F188F480327C
:1030600001F1833221F157FC3AC020ED280F2A30BC
:1030700040F556FE1FC0B29C200D1124B22E06C092
:103080008D3291F0803379F7689450F8F30193FD15
:10309000859193FF81913F018111DBCF20C068941E
:1030A00051F8689452F8F2CF689453F8EFCF6894CF
:1030B00054F8ECCF429C200D1124422E689455F810
:1030C000E5CF8E3229F456FCFBC0689456F8DECF6B
:1030D0008C3619F4689457F8D9CF8836B9F2982FFE
:1030E0009F7D95549330C0F08336A1F18337C1F1B1
:1030F000833509F05BC0D801CD90DD908D016B2D3B
:1031000070E056FC02C06FEF7FEFC6010E94E2192B
:103110005C01689457F80AC00C5F1F4FEFE3E98326
:10312000AA24A394B12C6401E89457F853FC04C07A
:103130004A141B0409F018F5342CA114B10431F51C
:10314000332009F469CFB70180E290E00E94F819BA
:103150003A94F6CFD8018C9189830E5F1F4FE0CF50
:10316000F801C190D1908F016B2D70E056FC02C028
:103170006FEF7FEFC6010E94ED195C01D5CFB7015B
:1031800080E290E00E94F8194A94D2CFF60157FCF1
:10319000859157FE81916F01B70190E00E94F81967
:1031A00031103A94B1E0AB1AB108C7CF843619F0A8
:1031B000893609F074C0F80157FE6AC061917191B7
:1031C000819191918F01E52DEF76DE2E97FF09C059
:1031D00090958095709561957F4F8F4F9F4F689424
:1031E000D7F82AE030E0A4010E94281AC82EC81897
:1031F000AC2C5D2CD6FE0CC0E89450F8CB1440F4F7
:10320000D4FE05C0D2FC03C05D2D5E7E552EAB2CD6
:1032100054FEADC0FE01EC0DF11D8081803309F03C
:103220009FC0652D697E562E752D7870372E53FC04
:10323000ADC050FEA7C0BC2CA41418F44C0CB42C88
:10324000BA1854FEA9C0B70180E390E00E94F819B3
:1032500052FE09C088E790E051FE02C088E590E088
:10326000B7010E94F819CB1408F4A2C0CA94D12C5B
:103270008FEFC81AD80AC80CD91CD6018E916D01DF
:10328000B70190E00E94F8198C149D04B1F758CF53
:1032900061917191072E000C880B990B93CFD52C5F
:1032A000E894D4F82AE030E08537E1F1F52DF97F94
:1032B000DF2E803751F100F5883551F18F3681F1DD
:1032C000F701868197812F960FB6F894DEBF0FBE67
:1032D000CDBFDF91CF911F910F91FF90EF90DF90C5
:1032E000CF90BF90AF909F908F907F906F905F90A6
:1032F0004F903F902F900895883711F7D4FE02C069
:103300006894D2F820E130E00DC06894D4F8F6CF8C
:1033100054FE03C02F2F2660D22E20E132E002C0DF
:1033200028E030E0F801D7FE15C04191519161913C
:1033300071914C875D876E877F878F01A4016C85B3
:103340007D858E859F850E94281AC82EC818E8940E
:10335000D7F84ECF81919191AC0170E060E0E9CF58
:1033600052FC02C0A39460CFA394A3945DCF852D9B
:10337000867809F459CFF6CFB70180E290E00E9439
:10338000F819A394A414C0F3312C5BCF342C3A1851
:10339000A41408F456CFF8CF852D867809F463CFAE
:1033A0008BE251FE80E257FC8DE2B70190E059CFED
:1033B000B70180E390E00E94F819BA9454CF8FEFE0
:1033C0009FEF81CFFC010590615070400110D8F74C
:1033D000809590958E0F9F1F0895FC01615070405D
:1033E00001900110D8F7809590958E0F9F1F08953A
:1033F0000F931F93CF93DF93182F092FEB018B812E
:1034000081FD09C01FEF0FEF812F902FDF91CF912A
:103410001F910F91089582FF14C02E813F818C81EE
:103420009D81281739073CF4E881F981CF01019685
:103430009983888310838E819F8101969F838E83D9
:10344000E3CFE885F985812F0995892BA1F3DACFA0
:10345000FA01AA27283051F1203181F1E8946F93C5
:103460006E7F6E5F7F4F8F4F9F4FAF4FB1E03ED06B
:10347000B4E03CD0670F781F891F9A1FA11D680F09
:10348000791F8A1F911DA11D6A0F711D811D911D3C
:10349000A11D20D009F468943F912AE0269F1124B1
:1034A0003019305D3193DEF6CF010895462F477015
:1034B000405D4193B3E00FD0C9F7F6CF462F4F7070
:1034C000405D4A3318F0495D31FD4052419302D0CE
:1034D000A9F7EACFB4E0A695979587957795679574
:1034E000BA95C9F700976105710508959B01AC0174
:1034F0000A2E06945795479537952795BA95C9F79B
:10350000620F731F841F951FA01D0895DC01CB015E
:10351000FC01F999FECF06C0F2BDE1BDF89A3196E3
:1035200000B40D9241505040B8F70895DC01CB0132
:1035300003C02D910E94A11A41505040D0F7089528
:10354000262FF999FECF1FBA92BD81BD20BD0FB6BF
:10355000F894FA9AF99A0FBE01960895052E97FBF2
:103560001EF400940E94C51A57FD07D00E94E01A6D
:1035700007FC03D04EF40C94C51A50954095309535
:1035800021953F4F4F4F5F4F0895909580957095CF
:1035900061957F4F8F4F9F4F08950E94021BA59FFB
:1035A000900DB49F900DA49F800D911D112408953E
:1035B000B7FF0C94CD1A0E94CD1A821B930B08956D
:1035C000A1E21A2EAA1BBB1BFD010DC0AA1FBB1F27
:1035D000EE1FFF1FA217B307E407F50720F0A21B99
:1035E000B30BE40BF50B661F771F881F991F1A9406
:1035F00069F760957095809590959B01AC01BD0130
:10360000CF010895A29FB001B39FC001A39F700D89
:10361000811D1124911DB29F700D811D1124911DDA
:103620000895F894FFCFFE00100144019201AB0110
:10363000D20118023A03420350036903810397033E
:10364000A903C903D103C603FE0513063B06E7061B
:103650004506530670067E069206A906C006CB06EE
:10366000D606D906590967096E09770980094B09F9
:10367000600952091D0938098909CA08D3084F0889
:103680004F084F08B408BD08C108A208AB08DC0801
:103690000F0916094F084F084F08FE0805090809C9
:1036A000F008F7080E10990F9D0FA00FB80F10101B
:1036B0000110BB0FD30F990FD60FEA0FED0FED0FCF
:0636C000A00FBB0F091072
:1036C600FFFF01280000000200000000E9090000D9
:1036D60000000100000050C300001419010303019B
:1036E60000000000000000001800000001000200B9
:1036F6000300040005000600070008000900200278
:103706000500000000000000000000300505FFFF76
:10371600FFFFFFFFFF0000FFFFFF0000FFFFFF00AE
:1037260000FFFFFFFFFFFF310205FFFFFFFFFFFF67
:10373600FFFFFFFF320505FFFFFFFFFF0000000050
:10374600FFFFFFFFFFFFFFFF000000FFFFFFFFFF80
:10375600330505FFFFFFFFFF000000FFFFFFFFFF30
:10376600FFFF000000FFFFFFFFFFFFFF340505FF1F
:103776000000FFFFFF0000FFFFFFFFFFFFFF00004D
:1037860000FFFF000000FFFF350505FFFFFFFFFFFD
:10379600FFFF000000FFFFFFFFFF00000000FFFF2C
:1037A600FFFFFFFF360505FFFFFFFFFFFFFF0000DE
:1037B60000FFFFFFFFFFFFFF0000FFFFFFFFFFFF10
:1037C600370505FFFFFFFFFF000000FFFF000000B9
:1037D600FFFF000000FFFF000000FFFF380505FFA8
:1037E600FFFFFFFFFF0000FFFFFFFFFFFFFFFF00E0
:1037F60000FFFFFFFFFFFFFF390505FFFFFFFFFF8C
:10380600FF0000FFFFFFFFFFFFFF000000FFFFFFBD
:10381600FFFFFFFF410505FFFFFFFFFFFF0000FF62
:10382600FFFF0000FFFFFFFFFFFFFFFF0000FFFF9E
:10383600420505FFFFFFFF00FFFF00FF00FFFFFF40
:10384600FFFFFFFF0000FFFFFFFFFFFF430505FF30
:10385600FFFFFFFFFFFF000000FFFF000000FFFF6C
:10386600000000FFFFFFFFFF440505FFFFFFFFFF0E
:1038760000000000FFFFFF0000FFFFFF0000FFFF4A
:10388600FFFFFFFF450505FFFFFFFFFFFFFF0000EE
:1038960000FFFFFFFFFFFFFF000000FFFFFFFFFF2E
:1038A600460505FFFFFFFFFFFFFF000000FFFFFFCC
:1038B600FFFFFFFF000000FFFF000000470505FFB8
:1038C600FFFFFFFFFFFF000000FFFF00FFFFFFFFFE
:1038D6000000FFFFFFFFFFFF480505FFFF0000FF99
:1038E600FFFF0000FFFFFFFFFFFFFFFF0000FFFFDE
:1038F600FF0000FF490205FFFFFFFFFFFFFFFFFF7D
:10390600FF4A0505000000FFFF000000FFFF000062
:1039160000FFFFFF0000FFFFFFFFFFFFFF4B050556
:10392600FFFF00FFFFFFFF00FF00FFFFFFFFFFFF9E
:10393600FF0000FFFFFF0000FF4C0505FFFF000032
:1039460000FFFF000000FFFF000000FFFF00000077
:10395600FFFFFFFFFF4D0605FFFFFFFFFFFFFFFF16
:1039660000FF00FFFFFF00FF00FFFFFF00FF00FF5B
:10397600FFFF00FF00FF4E0505FFFFFFFFFFFFFFF4
:103986000000FFFFFF0000FFFFFF0000FFFFFF003A
:1039960000FF4F0505FFFFFFFFFFFFFF0000FFFFD2
:1039A600FF0000FFFFFF0000FFFFFFFFFFFF5005C6
:1039B60005FFFFFFFFFFFFFF0000FFFFFFFFFFFF09
:1039C600FFFF000000FFFF000000510605FFFFFF9C
:1039D600FFFF00FFFF0000FF00FFFF0000FF00FFEA
:1039E600FF0000FF00FFFFFFFFFFFF520505FFFF7F
:1039F600FFFFFFFFFF0000FFFFFFFFFFFFFFFF00CE
:103A0600FF00FFFF00FFFF530505FFFFFFFFFFFF5E
:103A1600FF000000FFFFFFFFFF00000000FFFFFFA9
:103A2600FFFFFF540405FFFFFFFF00FFFF0000FF3D
:103A3600FF0000FFFF0000FFFF00550505FF000027
:103A4600FFFFFF0000FFFFFF0000FFFFFF0000FF7A
:103A5600FFFFFFFFFFFF560505FFFF0000FFFFFF0B
:103A66000000FFFFFF0000FFFFFF0000FF00FFFF59
:103A7600FFFF570605FFFF00FF00FFFFFF00FF00E7
:103A8600FFFFFF00FF00FFFFFF00FF00FFFFFFFF3C
:103A9600FFFFFF580505FFFF0000FFFFFF00FFFFC8
:103AA60000FFFFFF00FFFF00FFFFFF0000FFFF59C1
:103AB6000505FF0000FFFFFF0000FFFFFFFFFFFF00
:103AC600FF000000FFFFFFFFFFFFFF5A0505FFFF96
:103AD600FFFFFF000000FFFFFFFFFFFFFFFF0000EB
:103AE6000000FFFFFFFFFF61060500000000000069
:103AF600FFFFFFFFFF00FF0000FFFF00FF0000FFCA
:103B0600FF00FFFFFFFFFFFF620505FFFF0000004C
:103B1600FFFFFFFFFFFFFF0000FFFFFF0000FFFFAB
:103B2600FFFFFFFF6305050000000000FFFFFFFF2A
:103B3600FFFFFF000000FFFF000000FFFFFFFFFF89
:103B4600640505000000FFFFFFFFFFFFFFFF000009
:103B5600FFFFFF0000FFFFFFFFFFFFFF65050500FA
:103B660000000000FFFFFFFFFFFFFF0000FFFFFF59
:103B7600000000FFFFFFFFFF66040500FFFFFF00D8
:103B8600FFFF00FFFFFFFF00FFFF0000FFFF0067D2
:103B960005050000000000FFFFFFFFFFFF0000FF1C
:103BA600FFFFFFFFFFFF000000FFFF680505FFFFA7
:103BB600000000FFFFFFFFFFFFFF0000FFFFFF0009
:103BC60000FFFFFF0000FF690205FFFF0000FFFF87
:103BD600FFFFFFFF6A030500FFFF00000000FFFF75
:103BE60000FFFFFFFFFF6B0505FFFF000000FFFF63
:103BF60000FFFFFFFF00FF00FFFFFFFFFFFFFF00CB
:103C060000FF6C0305FFFF00FFFF00FFFF00FFFF43
:103C160000FFFFFF6D0605000000000000FFFFFF2C
:103C2600FFFFFFFFFF00FF00FFFFFF00FF00FFFF9A
:103C3600FF00FF00FF6E05050000000000FFFFFF0C
:103C4600FFFFFFFF0000FFFFFF0000FFFFFF000078
:103C5600FF6F05050000000000FFFFFFFFFFFFFFED
:103C66000000FFFFFF0000FFFFFFFFFFFF700505DD
:103C76000000000000FFFFFFFFFFFFFF0000FFFF47
:103C8600FFFFFFFFFFFF00000071060500000000B8
:103C96000000FFFFFFFFFF00FF0000FFFF00FFFF28
:103CA600FFFFFF00000000FFFFFF72040500000099
:103CB60000FFFFFFFFFFFF0000FFFF0000FFFF0008
:103CC600007305050000000000FFFFFFFFFFFFFF78
:103CD60000000000000000FFFFFFFFFFFF74040567
:103CE60000FFFF00FFFFFFFF00FFFF0000FFFF00D8
:103CF60000FFFFFF750605000000000000FF000042
:103D0600FFFF00FF0000FFFF00FF0000FFFF00FFB6
:103D1600FFFFFFFFFF7605050000000000FFFF0024
:103D260000FFFFFF0000FFFFFF0000FF00FFFFFF97
:103D3600FF770605000000000000FFFF00FF00FF00
:103D4600FFFF00FF00FFFFFF00FF00FFFFFFFFFF79
:103D5600FFFF7805050000000000FFFF00FFFFFFE2
:103D6600FFFFFF0000FFFFFFFFFFFF00FFFF7905DA
:103D7600050000000000FF0000FFFFFF0000FFFF3E
:103D8600FFFFFFFFFF000000FFFF7A0505000000B0
:103D96000000FFFFFFFFFF00000000FFFFFF000025
:103DA60000FFFFFFFFFF23131A0E12170B0C161945
:103DB60020220D180A1124061F1D1507081B1C2199
:103DC6001E090F14262704020301000525108F1271
:103DD6008F128F128F123D133D133D133D133D136A
:103DE6003D133F123F12E512CE13B41335120F13D3
:103DF6002813341234123D123D123D123D120409AD
:103E0600020E0D08030A0B0F1005070C14121300FF
:103E1600060117151611F1051D032F03E806BE024C
:103E2600DA0271021110D400256C64002536730085
:103E3600706C61790070696E62616C6C00686920F3
:103E460073636F72650067616D656F766572006397
:103E56006F696E73002564206F6620256400696EA5
:103E660073657274006672656567616D650062618F
:103E76006C6C2025640073686F6F740061676169FC
:103E86006E0074696C740068646F202530346400B9
:103E96006864632025303464007175696574202573
:103EA600640074696C74792025640062616C6C73BB
:103EB60020256400736F756E6420256400636F6946
:103EC6006E7320256400706C61797320256400662A
:103ED6006768732025640066676D6120256400723B
:103EE60065736574005020202020202020204F4735
:043EF600470A000077
:00000001FF
