:100000000C9462000C947F000C94810E0C941E16CC
:100010000C947F000C947F000C947F000C947F0064
:100020000C947F000C947F000C947F000C947F0054
:100030000C947F000C947F000C947F000C947F0044
:100040000C947F000C947F000C947F000C94ED15B1
:100050000C947F001D1C0A0B0B0B1E1B1B1B1B1B78
:100060001F1A1A1A1A1A13120F00000001020D0D9E
:100070000D0D030C101010100E0E0E0E0E0E1111A1
:100080001111111114151515151504050607080988
:100090001617171717171F00001F01011E02021E57
:1000A00003031D13041C05051C12061B07071B0870
:1000B000081A09090B0C0C0D0E0E0F101114161650
:1000C0000A15170011241FBECFE5D4E0DEBFCDBF57
:1000D00011E0A0E6B0E0E0EDF0E302C005900D9283
:1000E000A836B107D9F723E0A8E6B1E001C01D9218
:1000F000AA3AB207E1F70E94C5160C9429180C948D
:100100000000FF920F931F93CF93DF93FB016730A3
:10011000710508F07BC0E55DF74E0C944317109213
:1001200078011092770124E042E350E065E070E04E
:1001300086E290E00E94EA0E41E050E062E070E06A
:100140002BC041E050E06AE070E090E080E00E9467
:1001500085168091780191E0980F9093780123E0C3
:1001600042E350E066E070E090E00E94EA0E809189
:100170007801803208F44AC01092780180917701AA
:10018000833020F48F5F8093770140C01092770115
:1001900042E050E062E370E090E080E0DF91CF91D8
:1001A0001F910F91FF900C94851642E050E06AE099
:1001B00070E090E080E00E948516D0E0C0E00AE0A8
:1001C00010E046E0F42E80917801282F30E09091E5
:1001D000770190FD21C0FE018F9DE00DF11D1124DE
:1001E000EC5AFF4F849190E021E042E350E068E058
:1001F00070E00E94EA0E2196C630D10521F7809169
:1002000078018A30A0F48F5F80937801DF91CF91DD
:100210001F910F91FF900895C801821B930BF89EC8
:10022000F001F99EF00D1124EC0FFD1FD9CF1092B3
:10023000780180917701853008F4A4CF109277017E
:1002400043E050E07BCFD0E0C0E020E050E040E071
:1002500067E070E0CE010E94EA0E2196C032D1051F
:10026000A1F744E050E062E070E090E080E00E949E
:10027000851610927801CACF44E050E062E070E049
:1002800090E080E00E9485168091780191E0980FBF
:100290009093780121E049E150E065E070E090E062
:1002A0000E94EA0E80917801803208F4AFCF10925C
:1002B000780180917701843008F464CF109277013F
:1002C00045E050E067CF45E050E06AE070E090E044
:1002D00080E00E948516D0E0C0E00EE010E033E040
:1002E000F32E80917801282F30E09091770190FDD6
:1002F00025C0FE018F9DE00DF11D1124EA56FF4F30
:10030000849190E021E042E350E068E070E00E94D8
:10031000EA0E2196C330D10521F7809178018E3005
:1003200008F471CF1092780180917701853008F43C
:1003300029CF1092770146E050E000CFC801821B20
:10034000930BFC01EE0FFF1FE80FF91FEC0FFD1FD1
:10035000D5CFD0E0C0E020E050E040E067E070E0C2
:10036000CE010E94EA0E2196C032D105A1F750E0DD
:1003700040E079CF9C019091810123303105D1F487
:10038000943091F028F4992331F0923051F008958F
:10039000963069F0089562E070E081E090E00C949E
:1003A000A21664E070E0F9CF66E070E0F6CF70E08E
:1003B00060E0F3CF943079F328F49923A9F39230D5
:1003C000B1F30895963069F3089587E090E00E94B4
:1003D000BD1620E050E040E067E070E084E290E08D
:1003E0000E94EA0E20E050E040E067E070E085E225
:1003F00090E00E94EA0E20E050E040E067E070E00C
:1004000086E290E00C94EA0EAB0161307105F9F0E0
:100410006230710589F1672BA1F420E050E040E0E3
:1004200067E070E086E290E00E94EA0E20E050E093
:1004300040E070E060E084E290E00E94EA0E41E07B
:1004400050E06AE070E087E090E00C94851620E0D0
:1004500050E040E067E070E084E290E00E94EA0E45
:1004600020E050E040E070E060E085E290E00E9433
:10047000EA0E42E050E0E5CF20E050E040E067E0E7
:1004800070E085E290E00E94EA0E20E050E040E05B
:1004900070E060E086E290E00E94EA0E50E040E00A
:1004A000D0CFCF93DF93EB016530710598F421969F
:1004B00023E049E150E066E070E0CE010C960E9436
:1004C000EA0EAE0164E170E085E090E0DF91CF914B
:1004D0000C948516D0E0C0E0EBCF80917501672BBE
:1004E000B9F5811104C082E090E00E94900D8091E6
:1004F000740190E022E044E150E068E070E04A9648
:100500000E94EA0E50E040E068E070E086E090E093
:100510000E94851680917401853020F48F5F80934E
:100520007401089510927401809175018150809337
:100530007501811113C086E090E00E94BD1620E095
:1005400049E150E068E070E08AE190E00C94EA0E46
:10055000843068F68F5F80937501C9CF08950E943B
:10056000CB1769E070E00E940D1780937901089520
:100570009C019FB79078F8941DBC1CBCC49A4CB5E4
:100580005DB542175307D8F3C4988FB7892B8FBF37
:100590000895CF93DF93FB016830710508F0A2C086
:1005A000EE5CF74E0C9443178091640390916503C1
:1005B0000E94B80250E040E069E170E083E090E022
:1005C000DF91CF910C94851680917101811103C048
:1005D00083E08093710180916603909167030E948C
:1005E000B80242E050E062E370E083E090E00E94F5
:1005F00085168091660390916703DF91CF910C94EB
:10060000B80280916403909165030E94B8028091C2
:10061000710181508093710141E050E0811102C06D
:1006200043E050E062E370E083E090E00E948516D2
:100630008091640390916503E0CF28E049E150E0A8
:1006400066E070E083E190E00E94EA0E44E050E052
:1006500069E170E083E090E00E94851610927101DC
:10066000DF91CF91089580916403909165030E947A
:10067000B8028091710191E0980F9093710145E06B
:1006800050E0853008F098CF44E050E095CF1092CC
:10069000710121E042E350E063E070E084E090E02B
:1006A0000E94061446E050E064E670E083E090E0CB
:1006B0000E948516D0E0C0E020E049E150E068E00B
:1006C00070E0CE010E94EA0E2196C430D105A1F758
:1006D000C7CF80915A0390915B030E94B80247E014
:1006E00050E06ACF80916603909167030E94B80240
:1006F00046E050E061CFCF93DF9310926B01D0E0E2
:10070000C0E021E050E040E070E060E0CE010E94F7
:10071000EA0E2196C832D105A1F721E050E040E071
:1007200070E060E083E090E00E94061421E050E079
:1007300040E070E060E082E090E00E94061420E07B
:1007400050E040E067E070E081E290E00E94EA0E55
:1007500020E050E040E067E070E087E290E00E9437
:10076000EA0E20E050E040E067E070E082E290E0D6
:100770000E94EA0E20E048EC50E063E070E083E283
:1007800090E00E94EA0E85E090E00E94BD160E9473
:10079000E50146E050E062E370E083E090E0DF9145
:1007A000CF910C948516AF92CF92EF920F93CF9387
:1007B000A12CC12C87E4E82E0EE720E040E060E0A9
:1007C00080E00E941E0C40918201842F64E60E940A
:1007D000ED16392F2AE0842F622F0E94ED16C92FC3
:1007E0003A3038F0832F0E94ED16682F82E00E9485
:1007F000510B6C2F83E00E94510B60916C0388E0D9
:10080000CF910F91EF90CF90AF900C94510B9091AE
:100810008201890F843698F480938201662389F0DF
:1008200021E046E050E068E070E087E090E00E9460
:10083000061468E070E081E090E00C94A21683E674
:10084000EBCF0895CF93DF93EB018CE090E00E9413
:10085000900DC330D10509F48EC068F4C130D105C4
:1008600009F45DC0C230D10509F464C0CD2BE1F1BB
:10087000DF91CF910895C430D10509F4A9C025971F
:10088000B9F79091790180917F0142E050E098138F
:1008900019C021E044E150E068E070E086E090E0BB
:1008A0000E94061460E080916C030E94070480910E
:1008B0006F039091700301969093700380936F0380
:1008C0004DE050E062E070E081E090E00E9485162B
:1008D00050E040E068EC70E090E080E00E94851617
:1008E000DF91CF910C94E50188E0E3E8F1E0A9E71E
:1008F000B1E001900D928A95E1F750E040E062E3AB
:1009000070E087E090E00E94851641E050E064E1ED
:1009100070E082E090E0DF91CF910C948516109208
:1009200073018091880180937F011092800142E0E1
:1009300050E0EDCF0E94CB1769E070E00E940D17E8
:10094000809379010E944F0C6091790181E00E94AF
:10095000510B60E082E00E94510B60917F0187E0C3
:100960000E94510B60E088E00E94510B10927201CE
:1009700043E050E0CCCF8091720160E08F5F0E9435
:10098000380B80917201609179018E5F0E94510B4A
:100990008091720160E08D5F0E94510B8091720125
:1009A000833038F48F5F80937201AE016AE070E0AB
:1009B000B0CF109272018091730191E0980F9093E3
:1009C0007301C5E0D0E08A3080F7C4E0D0E0EDCF1D
:1009D000909172016091790184E0891B0E94510B12
:1009E0009091720160E085E0891B0E94510B90910B
:1009F000720160E086E0891B0E94380B80917201D1
:100A000091E0980F90937201833078F2C2E0D0E0C9
:100A1000CCCF80916D0390916E03019690936E03FD
:100A200080936D0390916C0380918201891728F067
:100A3000891B8093820181E0089580E00895CF931F
:100A4000DF93CDB7DEB768970FB6F894DEBF0FBE61
:100A5000CDBF88E1E5E6F0E0DE01119601900D9250
:100A60008A95E1F788E1FE013196ACE5B3E00190AB
:100A70000D928A95E1F768960FB6F894DEBF0FBE27
:100A8000CDBFDF91CF91089548E150E070E060E084
:100A90008CE593E00E94DB17ECE5F3E080E09191B8
:100AA000890F93E0E337F907D1F790917303981317
:100AB0000C941F050895ECE5F3E080E09191890F17
:100AC00093E0E337F907D1F78093730348E150E0EF
:100AD00070E060E08CE593E00C94EB1780E890E028
:100AE0000E94900D8BE090E00E94900D0E947B038D
:100AF00080916A018823C9F08091710390917203FB
:100B00000196909372038093710360E080916C036F
:100B10000E94070488E0E3E8F1E0ACE5B3E001906F
:100B20000D928A95E1F70E945B0550E040E062E09B
:100B300070E082E090E00C948516CF92DF92EF9205
:100B4000FF920F931F93CF93DF93CDB7DEB76697D6
:100B50000FB6F894DEBF0FBECDBF10926D0110929C
:100B60006C0120E050E040E070E060E080E290E066
:100B70000E94EA0E20E050E040E067E070E084E28E
:100B800090E00E94EA0E20E050E040E067E070E074
:100B900085E290E00E94EA0E20E050E040E067E04D
:100BA00070E086E290E00E94EA0E20E050E040E033
:100BB00067E070E087E290E00E94EA0E20E050E0FB
:100BC00040E067E070E088E190E00E94EA0E20E0FB
:100BD00050E040E067E070E089E190E00E94EA0EBA
:100BE00086E1EDE7F0E0DE01119601900D928A9525
:100BF000E1F78E010F5F1F4F6E0187E1C80ED11C18
:100C0000F801E190F1908F01C7010E94E20E892B5B
:100C100041F420E049E150E068E070E0C7010E9443
:100C2000EA0EC016D10661F70CE010E0809160007A
:100C300090E09C01255F3F4F2017310794F50C96FB
:100C40000E94E20E089759F08091600090E020E049
:100C500049E150E068E070E00C960E94EA0E0E94C4
:100C60006F0C80916E0191E0980F90936E019091BE
:100C70006A03891730F550E040E062E070E084E0FC
:100C800090E066960FB6F894DEBF0FBECDBFDF9141
:100C9000CF911F910F91FF90EF90DF90CF900C9428
:100CA0008516C8010E94E20E892B41F421E050E034
:100CB00040E067E070E0C8010E94EA0E0F5F1F4F3E
:100CC000B5CF66960FB6F894DEBF0FBECDBFDF91ED
:100CD000CF911F910F91FF90EF90DF90CF900C94E8
:100CE0006E0568E083E891E00C94580BAF92CF92C8
:100CF000EF920F93FB0180916B01811120C06E3048
:100D00007105E8F4E65CF74E0C94431710928101EC
:100D10000E946F0CA12CC12C5BE3E52E07E72EE0AF
:100D200047E660E080E00E941E0C41E050E060E990
:100D300071E081E090E00E948516109276010F919B
:100D4000EF90CF90AF90089580917601811103C00C
:100D500088E08093760180917601815080937601BE
:100D60008823F1F080FF19C02EE0A22E3EE0C32EB2
:100D700047E7E42E0FE125E140E367E680E00E94CB
:100D80001E0C41E050E062E370E081E090E00F91E2
:100D9000EF90CF90AF900C9485160E944F0CF1CF3E
:100DA00042E050E068EC70E0F0CF82E08093810197
:100DB0000E94710644E050E068EE73E0E6CF84E004
:100DC000809381010FE4A02E85E0C82E9EE7E92ED6
:100DD0000EE42BE540E060E387E30E941E0C45E053
:100DE00050E0E0CF68E08CE593E00E94580B46E0CD
:100DF00050E068E572E0C9CF86E080938101F5E0BC
:100E0000AF2EAFE4CA2EBEE3EB2E0EE72FE445E192
:100E100067E78EE50E941E0C47E050E0C3CF80914B
:100E20006C03882379F0A12C7BE5C72EE5E1EE2E3B
:100E300000E32EE74EE460E080E00E941E0C48E0F4
:100E400050E0B0CF50E040E062E070E09ECF0E9402
:100E5000D30350E040E0A6CF0E94D3034AE050E025
:100E6000A1CFA12C50E7C52E65E0E62E0FE42BE5BF
:100E700045E160E380E00E941E0C4BE050E092CF21
:100E8000A12C3BE5C32E45E1E42E00E32EE74EE422
:100E900060E080E00E941E0C4CE050E083CF0E9496
:100EA0004F0CD7CF8DE0809381018FE4A82E95E180
:100EB000C92E27E7E22E0EE52FE44FE465E087E434
:100EC0000E941E0C42E050E0BFCFAF92CF92EF9253
:100ED0000F93CF93DF93CB0120916B01222381F0FD
:100EE0006330710509F4ACC090F46130710509F408
:100EF00075C06230710509F494C0892B09F44EC0A5
:100F0000DF91CF910F91EF90CF90AF900895643023
:100F1000710509F4A0C06530710591F781E08093F7
:100F2000690146E050E068EC70E083E090E00E94E8
:100F3000851621E040E951E065E070E087E290E04D
:100F40000E94EA0ED0E0C0E020E050E040E070E017
:100F500060E0CE010E94EA0E2196C032D105A1F7D1
:100F600021E050E040E070E060E083E090E00E942B
:100F7000061421E050E040E070E060E082E090E0A4
:100F80000E940614A12CC12C80E7E82E0EE020E37D
:100F900040E760E080E00E941E0CB2CF81E08093C9
:100FA000680121E042E350E068E070E085E090E015
:100FB0000E940614A12CC12CE12C0EE02EE047E784
:100FC0006FE180E00E941E0C60916E0188E00E943B
:100FD000510B43E050E060E971E019C021E042E3C9
:100FE00050E068E070E085E090E00E940614A12CDB
:100FF00060E7C62E7EE7E72E0EE727E34BE560E0CD
:1010000080E00E941E0C42E050E068EC70E084E05A
:1010100090E0DF91CF910F91EF90CF90AF900C9433
:101020008516A12C45E1C42E50E3E52E07E72EE5F9
:1010300047E760E080E00E941E0C43E050E0E5CF0F
:1010400010926901109268010E94710643E050E01D
:1010500062E370E0DCCF81E0809369019FE4A92E18
:1010600025E1C22E37E7E32E0EE52FE44FE465E0DD
:1010700087E40E941E0CADCFE3E8F1E010821182FC
:101080001282138214821582168217820C947106C2
:101090000E947B030E943C0881E080936B011092C8
:1010A0006A0110926E01809360001092590382E0F1
:1010B00090E00E94BD1681E090E00E94BD1690E095
:1010C00080E00E94BD1620E050E040E070E060E06B
:1010D00081E290E00E94EA0E0C949D05CF93DF938D
:1010E00000D000D0CDB7DEB7EBE8F1E019821A826C
:1010F0001B821C82AAE0B0E029813A814B815C818D
:101100000E94491769837A838B839C83829129810A
:101110003A814B815C81280F311D411D511D29836E
:101120003A834B835C8331E0E338F30719F7698135
:101130007A818B819C810F900F900F900F90DF919F
:10114000CF910895CF93DF93EC01809159038111E2
:1011500004C080916803811109C021E046E050E09D
:1011600068E070E087E090E00E9406143091600033
:1011700020E090E039132AC080916901811102C0FA
:101180000E94710680916A01811139C0ACE5B3E01B
:10119000E3E8F1E028E02E0F91918D91891758F541
:1011A00081E080936A0144E050E062E070E084E016
:1011B00090E00E94851621E044E150E068E070E094
:1011C00086E090E0DF91CF910C940614EBE8F1E01B
:1011D000DE01189682914E91840F820F8A3040F082
:1011E0008A50808321E0AC17BD07A1F79F5FC2CF73
:1011F000808320E0F8CF981710F02E13CDCFDF9129
:10120000CF910895AF92CF92EF920F93CF93DF9348
:1012100000D000D0CDB7DEB78631910509F4B3C058
:10122000D0F4E0916F01F09170018431910571F17A
:10123000459709F44DC0E0916F01F091700131972D
:10124000EB30F10508F009C2E85BF74EA12CC12C88
:10125000E12C0C944317479771F71092700110928C
:101260006F010E945B050E947B0350E040E068EC48
:1012700070E090E080E00E94851650E040E068EC6D
:1012800070E081E090E00E948516D5CFEF2B81F4CD
:1012900083E090E00E94BD1681E090E00E94BD16C0
:1012A00090E080E00E94BD1684E090E00E94BD16B0
:1012B00080916F019091700101968C30910528F416
:1012C0009093700180936F01B6CF81E090E0F8CFEA
:1012D0003197EB30F10508F0AECFED5AF74E0C9494
:1012E00043178091640390916503873B27E0920741
:1012F00008F0A1CF499690936503809364039BCF38
:101300008091660390916703873B37E0930708F06D
:1013100092CF499690936703809366038CCF809118
:101320006803823008F087CF8F5F8093680383CF94
:1013300081E080936B037FCF80916903833608F04F
:101340007ACF8F5F8093690376CF80916A0389306B
:1013500008F071CF8F5F80936A036DCF80916C032B
:10136000893008F068CF8F5F80936C0364CF21E0F1
:1013700044E150E068E070E086E090E00E940614EE
:101380000E941F0558CFE0916F01F09170013197D5
:10139000EA30F10508F04FCFE25AF74E0C944317AC
:1013A0008091640390916503823044E0940708F4CF
:1013B00042CF4997A0CF8091660390916703823016
:1013C00054E0950708F437CF4997A4CF809168037C
:1013D000882309F430CF8150A8CF10926B032BCF14
:1013E00080916903823008F426CF8150ABCF809181
:1013F0006A03823008F41FCF8150ADCF80916C0317
:10140000882309F418CF8150AFCF00E020E04EE7E9
:101410006DE387E30E941E0C809164039091650345
:1014200090935B0380935A0347E050E062E370E0DF
:1014300083E090E00E94851680916403909165039B
:101440009C0150E040E029833A834B835C8344E075
:1014500069817A818B819C810F900F900F900F9002
:10146000DF91CF910F91EF90CF90AF900C946A0BDA
:1014700000E020E04EE46DE387E30E941E0C8091C3
:1014800066039091670390935B0380935A0347E050
:1014900050E062E370E083E090E00E948516809166
:1014A000660390916703CCCF00E72FE440E36CE143
:1014B0008EEF0E941E0C6091680388E00F900F90E1
:1014C0000F900F90DF91CF910F91EF90CF90AF9051
:1014D0000C94510B0BE320E74EE060E380E70E94A1
:1014E0001E0C8091690364E60E94ED16892F6AE064
:1014F0000E94ED16682F87E00E94510B80916903CE
:101500006AE00E94ED16692FD8CF0BE52EE04EE081
:1015100067E78FE10E941E0C60916A03CECF0DE356
:1015200025E14CE16EE78BE50E941E0C60916B0398
:10153000C4CF0BE525E140E36EE78EE40E941E0C6C
:1015400060916C03BACF00E02BE347E76EE087E6DB
:101550000E941E0C80916D0390916E0368EE73E003
:101560000E94F91664E670E00E94F91686E00E9477
:10157000510B80916D0390916E0364E670E00E94C0
:10158000F9166AE070E00E94F91687E00E94510B9C
:1015900080916D0390916E036AE070E00E94F916ED
:1015A000682F8BCF00E02BE547E36EE587E40E94D0
:1015B0001E0C809171039091720368EE73E00E949B
:1015C000F91664E670E00E94F91686E00E94510B5D
:1015D000809171039091720364E670E00E94F916A5
:1015E0006AE070E00E94F91687E00E94510B80913A
:1015F000710390917203D0CF00E027E745E16EE5DB
:1016000087E40E941E0C80916F039091700368EE36
:1016100073E00E94F91664E670E00E94F91686E015
:101620000E94510B80916F039091700364E670E00B
:101630000E94F9166AE070E00E94F91687E00E94A5
:10164000510B80916F0390917003A6CF00E72FE4B8
:101650004BE56FE485E00E941E0C0F900F900F90F9
:101660000F90DF91CF910F91EF90CF90AF900895B1
:10167000CF93DF93D62FCFB7F8940E94660D8D2FAE
:101680000E94660DC19A61E070E080E090E00E94E7
:101690008E15C1988FB7C078C82BCFBFDF91CF917F
:1016A0000895E62FF0E0E554FF4F60810C94380B6D
:1016B0000F931F93CF938C01C0E0F80161918F01CC
:1016C000CF5F8C2F0E94510BC830B9F7CF911F917B
:1016D0000F910895EF92FF920F931F93CF93DF9393
:1016E000CDB7DEB72E970FB6F894DEBF0FBECDBFD5
:1016F000162F072FF82EE92E88E0841B8E8798E09E
:101700009D8781E090E0A0E0B0E08D839E83AF8371
:10171000B8878AE090E0A0E0B0E089839A83AB8349
:10172000BC83AE85BD85AB1779F1612F702F8F2DEE
:101730009E2D29813A814B815C810E9421172D8148
:101740003E814F8158850E942117622F8D850E940E
:10175000510BAAE0B0E029813A814B815C810E9463
:10176000491769837A838B839C832D813E814F81C6
:1017700058850E9449176D837E838F8398879D8546
:1017800091509D879111CDCF2E960FB6F894DEBF64
:101790000FBECDBFDF91CF911F910F91FF90EF90C2
:1017A00008951F93CF93DF93182F682F617088E0FF
:1017B0000E94510BC12FD0E0BE01759567956170F5
:1017C00087E00E94510BBE017595679575956795E9
:1017D000617086E00E94510BBE0123E0759567950C
:1017E0002A95E1F7617085E00E94510BBE0134E05B
:1017F000759567953A95E1F7617084E00E94510B09
:10180000BE0145E0759567954A95E1F7617083E003
:101810000E94510B56E0D595C7955A95E1F76C2F6C
:10182000617082E00E94510B612F661F6627661F60
:1018300081E0DF91CF911F910C94510BAF92CF9229
:10184000EF920F931F93CF93DF93162FD42FC22FB6
:10185000682F81E00E94380B612F82E00E94380BD4
:101860006D2F83E00E94380B6C2F84E00E94380BB0
:10187000602F85E00E94380B6E2D86E00E94380BA9
:101880006C2D87E00E94380B6A2D88E0DF91CF91A4
:101890001F910F91EF90CF90AF900C94380B60E0B8
:1018A00081E00E94380B60E082E00E94380B60E02B
:1018B00083E00E94380B60E084E00E94380B60E017
:1018C00085E00E94380B60E086E00E94380B60E003
:1018D00087E00E94380B60E088E00C94380B60E0F1
:1018E00089E00E94380B61E08CE00E94380B67E0D1
:1018F0008BE00E94380B6FE08AE00E94380B0C945A
:101900004F0C61E08FE00E94380B60E177E280E0ED
:1019100090E00E94B71560E08FE00E94380B0C94B5
:101920006F0C1F93CF93DF93EC01162F61111AC038
:1019300080915903811134C0C553DF4FC881D0E075
:101940001123B1F1CE010E94FE1321E046E050E0E8
:1019500065E070E0892B01F5CE01DF91CF911F91F9
:101960000C94061482E090E00E94B616882319F0C9
:10197000CE010E94AF0281E090E00E94B61688235B
:1019800019F0CE010E94BA0180916B01882321F0E9
:1019900080916D01882361F2DF91CF911F910895AD
:1019A000229719F0C2E0D0E0C7CFC3E0D0E0C4CFA7
:1019B00021E050E040E070E060E0CECF0F931F9355
:1019C000CF93DF93EC016623C1F180916B018823F3
:1019D000F1F180916D0181113AC0FE01E553FF4F95
:1019E000008110E0C8010E94FE13892B81F58BEA6B
:1019F00090E00E94A20821E048E050E067E070E03B
:101A0000C8010E94061489E190E0CD2B11F488E111
:101A100090E023E049E150E065E070E00E94EA0ECA
:101A200021E046E050E068E070E087E090E0DF9180
:101A3000CF911F910F910C940614C553DF4F8881ED
:101A400021E050E040E070E060E090E0F0CFDF9116
:101A5000CF911F910F910895CF92DF92EF92FF9255
:101A60000F931F93CF93C0B3C07FC09597EDE92E1E
:101A700090E0F92E10E000E0CC24C394D12CF701C3
:101A800081917F01B60101C0660F8A95EAF78091C6
:101A90008B018C27862359F0F801EE0FFF1FE153CD
:101AA000FF4F0190F081E02D6C23C80109950F5F75
:101AB0001F4F0430110519F7C0938B01CF911F916F
:101AC0000F91FF90EF90DF90CF9008950F931F93A9
:101AD000CF93DF93C7E0D0E0082F10E0C798C8018C
:101AE0000C2E02C0959587950A94E2F780FF16C0E8
:101AF000C59A6AE070E080E090E00E948E15C79A77
:101B00006AE070E080E090E00E948E15219730F747
:101B1000C598DF91CF911F910F910895C598E9CF96
:101B2000CF9390916B01992321F090916D019923AE
:101B300071F090916B03992351F0CFB7F894C0984E
:101B40000E94660DC09A8FB7C078C82BCFBFCF91C7
:101B50000895EF92FF921F93CF93DF93C7E0D0E0F9
:101B600010E0EE24E394F12CC7986AE070E080E086
:101B700090E00E948E15C79A6AE070E080E090E0E5
:101B80000E948E15B69B07C0C7010C2E01C0880F9E
:101B90000A94EAF7182B219738F7812FDF91CF911C
:101BA0001F91FF90EF9008951F93CF93DF93162F0F
:101BB000D42FCFB7C078F89495B32DEF843008F4C4
:101BC0002EEF922395BB880F867080640E94660D6D
:101BD000812F0E94660D8D2F0E94660D85B3836054
:101BE00085BB8FB78C2B8FBFDF91CF911F9108954D
:101BF000CF93DF93D62FCFB7C078F89495B32DEF5E
:101C0000843008F42EEF922395BB880F8670816490
:101C10000E94660D8D2F0E94660D0E94A90D95B33E
:101C2000936095BB9FB79C2B9FBFDF91CF91089589
:101C3000CF938BB31BBA8AB38FEF8ABB85B38F73F5
:101C400085BB84B3806C84BB82B3806F82BB81B35D
:101C50008F7081BB87B3806A87BBBE98C79AC398D1
:101C6000BB9A85B3836085BB84B3836084BB63E028
:101C700070E080E090E00E948E15C39AC0E04CE2D4
:101C800065E08C2F0E94D40D4FEF60E08C2F0E94F6
:101C9000D40D4FEF66E08C2F0E94D40D4FEF61E022
:101CA0008C2F0E94D40DCF5FC33049F748E265E026
:101CB0008C2F0E94D40D40E06AE08C2F0E94D40D3E
:101CC00040E060E08C2F0E94D40DCF5FC83071F7E8
:101CD000C198C09A87B3836087BB88E28CBF8DE0D0
:101CE00083BF89B7826089BF8EE383BD8CE085BDE9
:101CF00089B7806889BF82E08EBDC498BC9ACF91B5
:101D0000089518950F931F93CF93DF9385529F4F9C
:101D1000FC01208130E0285E3F4FC90143E09595EA
:101D200087954A95E1F727703327C1E0D0E0AE01EF
:101D300002C0440F551F2A95E2F79A018C010C50FE
:101D40001D4FF801C081662361F0C42B4C2F6AE05F
:101D50000E94D40DF801C083DF91CF911F910F91A4
:101D600008952095C223F2CF0F931F93CF93DF9353
:101D7000EC018C01000F111FF801EC5AFD4F80811E
:101D80009181019691838083FE01E452FE4F208170
:101D90002817190621F460E0CE010E94820E0C5A29
:101DA0001D4FF80180819181089739F461E0CE01DF
:101DB0000E94820EF80111821082DF91CF911F9153
:101DC0000F910895FC01EE0FFF1FEC55FD4F808130
:101DD00091810895CF92DF92EF92FF920F931F931C
:101DE000CF93DF938C01EB016A01E22E8FB78078ED
:101DF000F82EF89461E0C730D10508F460E0C8011E
:101E00000E94820EC801880F991FFC01EC55FD4FFE
:101E1000D183C083FC01EC5FFD4FC082D182F80109
:101E2000E452FE4FE08223978C010C5A1D4F2297FB
:101E3000A0F484579E4FFC0111821082F801118298
:101E400010828FB78F298FBFDF91CF911F910F9194
:101E5000FF90EF90DF90CF9008950E944216F80116
:101E600091838083EECFAF92BF92CF92DF92EF92B9
:101E7000FF920F931F93CF93DF9344EAE42E42E047
:101E8000F42E0CE811E0D0E0C0E054E0C52ED12CD7
:101E900063E0A62EB12CF701819191917F018330EF
:101EA000910599F00497B1F121960E5F1F4FC8324A
:101EB000D10589F7DF91CF911F910F91FF90EF909E
:101EC000DF90CF90BF90AF900895F801808191810D
:101ED0009C012F5F3F4F31832083FE01EE0FFF1FD8
:101EE000EC5FFD4F208131812817390778F4F80124
:101EF00011821082FE01E452FE4F80818F5F808349
:101F0000893021F4F7013297D182C082CE010E943C
:101F1000B40ECACFF801808191819C012F5F3F4FA1
:101F200031832083FE01EE0FFF1FEC5FFD4F208108
:101F300031812817390750F7F80111821082FE010C
:101F4000E452FE4F8081815080838330F9F6F8019E
:101F500031832083F7013297B182A082D7CF2F92AD
:101F60003F924F925F926F927F928F929F92AF9229
:101F7000BF92CF92DF92EF92FF920F931F93CF9376
:101F8000DF9384EAE82E82E0F82E0CED11E0D0E039
:101F9000C0E022242394312C26E0422E512C37E03D
:101FA000632E712C45E0A42EB12CD7018D919D910B
:101FB0007D018530910509F477C000F581309105E8
:101FC00009F443C0029709F48FC00F5F1F4F229698
:101FD000C035D10551F7DF91CF911F910F91FF903F
:101FE000EF90DF90CF90BF90AF909F908F907F90B9
:101FF0006F905F904F903F902F900895863091059D
:1020000011F0089711F70E944216FE01EC5AFD4F9D
:102010006F0120813181821B930BFE01EC5FFD4F2C
:10202000208131812817390780F6F70132973182F4
:1020300020820E944216D6018D939C9360E0C801D5
:102040008C5D91400E94820EC0CF0E944216FE011C
:10205000EC5AFD4F4F0120813181821B930BFE0111
:10206000EC5FFD4F208131812817390708F0ADCF93
:10207000D8018C91F801EC5DF1406F01F7013297C6
:10208000811109C0518240820E944216D4018D9371
:102090009C9361E007C081508C938111F3CF118232
:1020A000108260E0C601CECF0E944216FE01EC5ABB
:1020B000FD4F6F0120813181821B930BFE01EC5F8C
:1020C000FD4F208131812817390708F07ECFF701B5
:1020D000329722E030E0318320830E944216D601FD
:1020E0008D939C9361E0ABCF0E944216FE01EC5AA7
:1020F000FD4F4F0120813181821B930BFE01EC5F6C
:10210000FD4F208131812817390708F05ECFD801B3
:102110008C91F801EC5DF1406F01F701329781116C
:1021200008C0B182A0820E944216D4018D939C9374
:10213000B8CF81508C938111F4CF71826082A9CF86
:10214000089561E081E00C9407040C940209CF9398
:10215000DF93D82FC92F80916B01882309F444C0E5
:102160008BEA90E00E94A20881E090E00E94900D2E
:102170008D2F9C2F0E94E20E0797B1F121E050E0D5
:1021800040E067E070E08D2F9C2F0E94EA0E8AE00D
:1021900090E00E94E20E079739F58BE090E00E94F4
:1021A000E20E079709F58BE990E00E94A20825E06E
:1021B00049E150E066E070E08AE090E00E94EA0EBB
:1021C00025E049E150E066E070E08BE090E00E949D
:1021D000EA0E25E049E150E065E070E089E190E039
:1021E000DF91CF910C94EA0EDF91CF910895CF93B8
:1021F000DF93D82FC92F80916B01882309F44FC03A
:102200008BEA90E00E94A20883E090E00E94900D8B
:102210008D2F9C2F0E94E20E079709F440C021E009
:1022200050E040E067E070E08D2F9C2F0E94EA0EA6
:10223000D0E0C0E0CE010E94E20E079781F5219622
:10224000C430D105B9F78BE990E00E94A20884E080
:1022500090E00E94900D50E040E062E070E083E08A
:1022600090E00E94851650E040E062E370E087E075
:1022700090E00E94851620E049E150E066E070E0C1
:1022800082E190E00E94EA0E20E050E040E067E04A
:1022900070E083E190E0DF91CF910C94EA0EDF9142
:1022A000CF91089580916B01882329F183E190E01B
:1022B0000E94E20E892B71F083E190E00E94E20E11
:1022C000079741F043E050E069E170E083E090E07F
:1022D0000C94851682E190E00E94E20E892B91F326
:1022E00083E990E00E94A20885E090E00E94900DB2
:1022F00041E050E0E9CF089580916B01882361F0BF
:102300008BEA90E00E94A20841E050E062E070E0B9
:1023100086E090E00C9485160895CF93DF93D82F34
:10232000C92F80916B01882309F473C08BEA90E078
:102330000E94A20886E090E00E94900D8D2F9C2FB5
:102340000E94E20E079709F464C021E050E040E0EB
:1023500067E070E08D2F9C2F0E94EA0EC4E0D0E071
:10236000CE010E94E20E079709F053C02196CA30B1
:10237000D105B1F78BE990E00E94A20887E090E0D8
:102380000E94900DC4E0D0E020E049E150E068E018
:1023900070E0CE010E94EA0E2196CA30D105A1F765
:1023A00080916000863010F58F5F8093600090E030
:1023B00021E050E040E067E070E00B960E94EA0EFA
:1023C0008091600090E020E049E150E068E070E03A
:1023D0000C960E94EA0E21E046E050E068E070E0D2
:1023E00087E090E0DF91CF910C940614809159031F
:1023F00081110FC081E08093590350E040E062E01A
:1024000070E085E090E00E94851623E049E150E00D
:10241000E5CFDF91CF910895CF9380916B01882311
:1024200009F452C080916C018F5F80936C01909190
:102430006903981708F048C0CFB7F89481E08093FB
:102440006D0121E050E040E070E060E083E090E06A
:102450000E94061421E050E040E070E060E082E07D
:1024600090E00E9406148FB7C078C82BCFBF45E01C
:1024700050E062E070E084E090E00E94851620E089
:1024800050E040E070E060E084E290E00E94EA0EFC
:1024900020E050E040E070E060E085E290E00E94E3
:1024A000EA0E20E050E040E070E060E086E290E07C
:1024B0000E94EA0E20E050E040E067E070E080E239
:1024C00090E0CF910C94EA0ECF91089580916B012A
:1024D000811115C00E940905882351F00E94480807
:1024E00050E040E062E070E084E090E00C948516FB
:1024F00049E050E062E070E081E090E0F7CF0895BD
:10250000CF93DF9300D000D0CDB7DEB780916B01C1
:102510008823C1F150E040E062E070E084E090E0A8
:102520000E9485168091680181112CC00E946E085E
:1025300069837A838B839C83672B682B692BB1F427
:1025400080916E01813091F480916D0181110EC0F6
:1025500041E050E062E070E084E090E00F900F9086
:102560000F900F90DF91CF910C94851689E090E049
:102570000E94900D0F900F900F900F90DF91CF91D0
:102580000C949D050F900F900F900F90DF91CF91BD
:102590000895EF92FF921F93CF93DF9300D00F9295
:1025A000CDB7DEB7CE0101967C0110E069E0812F46
:1025B0000E94F80DF70181937F011F5F1330B1F77F
:1025C0006BE581E00E94380B60E082E00E94380BEE
:1025D0001B81612F62956F7083E00E94510B612F08
:1025E0006F7084E00E94510B1A81612F62956F70A9
:1025F00085E00E94510B612F6F7086E00E94510BA5
:102600001981612F62956F7087E00E94510B612FD5
:102610006F7088E00F900F900F90DF91CF911F9116
:10262000FF90EF900C94510BAF92BF92CF92DF923C
:10263000EF92FF920F931F93CF93DF9300D00F92EF
:10264000CDB7DEB7CE0101966C01F12CE12C8C01E7
:1026500069E08F2D0E94F80DD6018D936D018823BE
:1026600011F0EE24E394F394B3E0FB12F1CFE3E333
:10267000F1E030E020E041E050E071E0EE2019F0C0
:1026800028313105B9F48981809314038A818093BC
:1026900015038B81809316030F900F900F90DF919D
:1026A000CF911F910F91FF90EF90DF90CF90BF904F
:1026B000AF9008958191982F97705A0101C0AA0C8C
:1026C0009A95EAF786958695869590E06801C80EFA
:1026D000D91ED6016C916A2151F08C5E9C4FDC01B1
:1026E0008C918A2121F4D901A450BD4F7C932F5F96
:1026F0003F4FC4CF0F931F93CF93DF930CEF12E0A4
:10270000D0E0C0E08FB78078F894F80191918F0104
:10271000992309F1319710829FB7892B8FBFFE0152
:10272000EE0FFF1FED5FFE4F0190F081E02D8091D5
:102730006D01882321F082E1E038F80719F461E0A7
:10274000CE0109952196C831D105E1F6DF91CF91EF
:102750001F910F9108959FB7892B8FBFF3CF9C01D5
:1027600080916803823021F4C9010697029718F11D
:10277000662311F12830310570F48BB3255B3E4F91
:10278000F901908121E030E001C0220F9A95EAF72B
:10279000822B8BBB08952A30310568F485B3255B05
:1027A0003E4FF901908121E030E001C0220F9A955F
:1027B000EAF7822B85BB08952830310570F44BB3BE
:1027C000255B3E4FF901208181E090E001C0880F38
:1027D0002A95EAF780958423DCCF2A30310558F713
:1027E00045B3255B3E4FF901208181E090E001C0B7
:1027F000880F2A95EAF780958423DCCFFC01EE0F41
:10280000FF1FE95BFC4F808191810895AF92BF92D9
:10281000CF92DF92EF92FF920F931F93CF93DF93AC
:10282000EC016B015A01E22E0697029768F588E0E9
:1028300090E00E94B6168823F9F0C630D10589F4DD
:1028400081E080931703D0931903C0931803D092AB
:102850001B03C0921A03A0921C03B0921D03E092C6
:102860001E03DF91CF911F910F91FF90EF90DF90AA
:10287000CF90BF90AF90089550E040E062E370E0E9
:1028800088E090E00E948516FFB6F89461E085E04C
:10289000C816D10408F460E0CE010E94AF138E0187
:1028A000000F111FF801E95BFC4FD182C0820E942A
:1028B0004216F801E95CFC4F91838083F801E95DE1
:1028C000FC4FA082B182C15EDC4FE8828FB79F2DA2
:1028D0009078F92EF82AFFBEC4CF80911703882381
:1028E00091F01092170340911C0350911D036091C9
:1028F0001A0370911B0320911E038091180390917D
:1029000019030C94061408952F923F924F925F92F0
:102910006F927F928F929F92AF92BF92CF92DF92EF
:10292000EF92FF920F931F93CF93DF9387E4E82EEC
:1029300083E0F82E0FE113E0D0E0C0E0CC24C39494
:10294000D12C22E0222E312C33E0432E512C48E0B2
:10295000642E712C56E0A52EB12CF7018191919136
:102960007F018630910509F485C020F583309105FB
:1029700009F4B5C08530910509F441C0019709F407
:1029800097C00F5F1F4F2296C031D10531F7DF91FD
:10299000CF911F910F91FF90EF90DF90CF90BF905C
:1029A000AF909F908F907F906F905F904F903F90EF
:1029B0002F9008958730910509F43FC0089709F7D3
:1029C0000E9442169E01295C3C4F4901F901208179
:1029D0003181821B930BFE01E95DFC4F2081318127
:1029E0002817390770F6F801808181508083F7013C
:1029F0003297882309F470C05182408218C00E9427
:102A000042169E01295C3C4F4901F9012081318128
:102A1000821B930BFE01E95DFC4F20813181281759
:102A2000390708F0AECFF7013297D182C0820E94F9
:102A30004216F4019183808316C00E944216FE0163
:102A4000E95CFC4F20813181821B930BFE01E95D23
:102A5000FC4F208131812817390708F092CFF70108
:102A600032973182208260E0C8018F5193400E94EA
:102A7000AF1387CF0E9442169E01295C3C4F49014B
:102A8000F90120813181821B930B039708F479CFE0
:102A9000F7013297D182C08260E0C8018F51934024
:102AA0000E94AF130E944216F4019183808369CF84
:102AB0000E9442169E01295C3C4F4901F901208188
:102AC0003181821B930B099708F45BCFF701329792
:102AD000B182A08261E0E1CF11821082C4CF0E9456
:102AE00042169E01295C3C4F4901F9012081318148
:102AF000821B930BFE01E95DFC4F20813181281779
:102B0000390708F03ECFF7013297718260820E9448
:102B10004216F4019183808361E0A6CFCF93DF93C7
:102B200000D000D0CDB7DEB7462F572FBC01198299
:102B30001A821B821C8289819A81AB81BC81841795
:102B40009507A607B70738F00F900F900F900F90DA
:102B5000DF91CF91089589819A81AB81BC8188965C
:102B6000A11DB11D89839A83AB83BC83E4CFCF922F
:102B7000DF92EF92FF92CF93DF9300D000D0CDB7DA
:102B8000DEB76B017C0119821A821B821C8289814B
:102B90009A81AB81BC818C159D05AE05BF0558F0AF
:102BA0000F900F900F900F90DF91CF91FF90EF90CB
:102BB000DF90CF90089568EE73E080E090E00E948F
:102BC0008E1589819A81AB81BC810196A11DB11DB1
:102BD00089839A83AB83BC83DACF1F920F920FB69F
:102BE0000F9211242F933F934F935F936F937F9393
:102BF0008F939F93AF93BF93EF93FF93809157036E
:102C000090915803019690935803809357030E9424
:102C10002C0D0E9484140E941413FF91EF91BF9118
:102C2000AF919F918F917F916F915F914F913F9164
:102C30002F910F900FBE0F901F9018951F920F921B
:102C40000FB60F9211242F933F934F935F936F937F
:102C50007F938F939F93AF93BF93EF93FF930E94C4
:102C6000330FFF91EF91BF91AF919F918F917F9122
:102C70006F915F914F913F912F910F900FBE0F90E9
:102C80001F9018959FB7F8942091570330915803DF
:102C90008FB79078982B9FBFC90108950F931F930A
:102CA000CF93DF9306E813E0D0E0C0E0D8018D9128
:102CB0009D918D01892B01F10E9442169E01220FE8
:102CC000331FF801D901AC58BC4F4D915C91841B66
:102CD000950B529142914817590770F41182108256
:102CE000F901E856FC4F608171812B5A3E4FD901A2
:102CF000ED91FC91CE0109952196C930D105B1F62F
:102D0000DF91CF911F910F9108950F931F93CF9350
:102D1000DF938A01EC01CC0FDD1FFE01EA57FC4F67
:102D2000718360830E944216FE01EC58FC4F918330
:102D30008083C856DC4F08831983DF91CF911F91A0
:102D40000F910895FC01EE0FFF1FDF01AA57BC4F42
:102D50008D919C911197892B41F081E090E08D93AA
:102D60009C93E856FC4F608371830895FC01EE0F3D
:102D7000FF1FEA57FC4F80810895FC01EE0FFF1FF3
:102D8000EA57FC4F1182108208950E94180E0E948B
:102D9000810C0E947B0343E050E062E370E083E03B
:102DA00090E00E9485160E94440550E040E062E0F9
:102DB00070E081E090E00E94851650E040E062E023
:102DC00070E090E080E00E94851678940E94AF0F3A
:102DD0000E947A130E944E16F9CF991B79E004C025
:102DE000991F961708F0961B881F7A95C9F780954A
:102DF0000895AA1BBB1B51E107C0AA1FBB1FA61742
:102E0000B70710F0A61BB70B881F991F5A95A9F793
:102E100080959095BC01CD01089597FB072E16F47F
:102E2000009407D077FD09D00E94F91607FC05D061
:102E30003EF4909581959F4F0895709561957F4FD1
:102E40000895A1E21A2EAA1BBB1BFD010DC0AA1FEB
:102E5000BB1FEE1FFF1FA217B307E407F50720F003
:102E6000A21BB30BE40BF50B661F771F881F991F7E
:102E70001A9469F760957095809590959B01AC01C7
:102E8000BD01CF010895EE0FFF1F0590F491E02DD5
:102E900009940E945417A59F900DB49F900DA49F74
:102EA000800D911D11240895A29FB001B39FC00110
:102EB000A39F700D811D1124911DB29F700D811D66
:102EC0001124911D0895CF92DF92EF92FF92CF933C
:102ED000DF93CDB7DEB72A970FB6F894DEBF0FBEEB
:102EE000CDBF89879A87A985BA852D913D914D914E
:102EF0005C9129833A834B835C83232B242B252BE2
:102F000041F424E239ED4BE557E029833A834B83C2
:102F10005C8369817A818B819C812DE133EF41E073
:102F200050E00E94021869017A01A7EAB1E49B010E
:102F3000AC010E94491769837A838B839C83ACEE32
:102F4000B4EFA70196010E9424189B01AC0189816E
:102F50009A81AB81BC81820F931FA41FB51FB7FF5D
:102F600003C00197A109B048E985FA858083918360
:102F7000A283B3839F772A960FB6F894DEBF0FBE65
:102F8000CDBFDF91CF91FF90EF90DF90CF9008956C
:102F90000E946317089581E690E00E9463170895E8
:102FA000B0E0A0E08093610090936200A093630082
:102FB000B09364000895DC01CB01FC01E199FECFE0
:102FC00006C0FFBBEEBBE09A31960DB20D924150A8
:102FD0005040B8F70895DC01CB0103C02D910E9449
:102FE000F61741505040D0F70895262FE199FECFB3
:102FF0009FBB8EBB2DBB0FB6F894E29AE19A0FBE31
:1030000001960895052E97FB1EF400940E9419184E
:1030100057FD07D00E94211707FC03D04EF40C94F3
:10302000191850954095309521953F4F4F4F5F4F60
:10303000089590958095709561957F4F8F4F9F4F24
:103040000895B7FF0C9449170E944917821B930BF0
:103050000895F894FFCF8F00A100D50023013C0113
:103060006301A901D402E40201031D0333034703F2
:10307000720369038606A406D5069F06DF06F206DC
:10308000FC060F0727072C07310740074F07520799
:10309000850A990AA30AD20AFC0A540A8F0A6A0A04
:1030A000050A380A260BA509AE091B091B091B09CD
:1030B0008F0998099C0971098009B709F709FE0968
:1030C0001B091B091B09E609ED09F009D009DB09F9
:1030D000010100000000000005000000007805D696
:1030E000060103030000000000000000001A0000B9
:1030F00000010002000300040005000600070008AC
:1031000000090000000000050000000000000001B0
:1031100000000000000000000500000000000000AA
:1031200001000000000000000001007E306D7933D6
:103130005B5F707F7B771F4E3D4F4700010302DED0
:103140000CDE0C910C910C0706050423131A0E12C9
:10315000170B0C161920220D180A1125061F1D1514
:10316000240710081B1C211E090F14272602040324
:10317000010005F710F710F710F7108D118D118D64
:10318000118D118D118D11A710A71052118012668B
:1031900012A1100C127C11A010A010A510A510A552
:1031A00010A5100409020E0D08030A0B0F100507E5
:1031B0000C14121300060117151611040301050063
:1031C0000207060607810076062204C90265075138
:0831D000026D0204026D1400FF
:00000001FF
