:100000000C94B8000C94D7000C94D7000C94D70033
:100010000C94D7000C94D7000C94D7000C94D70004
:100020000C94D7000C94D7000C94D7000C94D700F4
:100030000C94D7000C94910E0C94D7000C94D7001C
:100040000C94D7000C94D7000C94D7000C94D700D4
:100050000C946A0C0C94A00C0C94D7000C94D70050
:100060000C94D7000C94D7000C94D7000C94D700B4
:100070000C94660D0C949C0D0C94D7000C94D70036
:100080000C94D7000C94D7000C94D7001B1A0A0BC1
:100090000B0B1C19191919191D18181818181312F7
:1000A0000F00000001020D0D0D0D030C10101010BB
:1000B0000E0E0E0E0E0E1111111111111414141436
:1000C00014140405060708091515151515151D0046
:1000D000001D01011C02021C03031B13041A050569
:1000E0001A12061907071908081809090B0C0C0D34
:1000F0000E0E0F10111415150A14154D41494E001E
:10010000424541524D555300710A004F56455231F8
:10011000004F56455230007374617274004452416E
:10012000494E3100445241494E30005354415254DB
:10013000004C4F4732004C4F4731004C4F47300086
:10014000424541524D4F5500524F41523200524F9D
:1001500041523100524F4152300044524950004800
:100160004954000A710A2B0A000A710A2B0A00007E
:1001700011241FBECFEFD0E4DEBFCDBF19E0A0E059
:10018000B1E0E8E7F8E300E00BBF02C007900D9292
:10019000A83BB107D9F72CE0A8EBB9E001C01D924C
:1001A000AA38B207E1F70E9461170C94F71B0C9470
:1001B0000000AB019B01209530958091000190914A
:1001C00001012817390781F4A8954F5F5F4FCA01D5
:1001D00080959095909301018093000164E670E012
:1001E00088E090E00C940E170895FF920F931F93F0
:1001F000CF93DF93FB016730710508F07BC0E750B8
:10020000F44E0C94A8171092D8091092D70924E044
:1002100042E350E063E070E084E290E00E944C1121
:1002200041E050E062E070E02BC041E050E06AE065
:1002300070E090E080E00E940E178091D80991E074
:10024000980F9093D80923E042E350E064E070E017
:1002500090E00E944C118091D8098E3108F44AC078
:100260001092D8098091D709833020F48F5F809352
:10027000D70940C01092D70942E050E062E370E035
:1002800090E080E0DF91CF911F910F91FF900C944F
:100290000E1742E050E06AE070E090E080E00E94DB
:1002A0000E17D0E0C0E00AE010E046E0F42E8091A6
:1002B000D809282F30E09091D70990FD21C0FE0188
:1002C0008F9DE00DF11D1124E457FF4F849190E0C4
:1002D00021E042E350E066E070E00E944C1121967C
:1002E000C630D10521F78091D8098A30A0F48F5FFC
:1002F0008093D809DF91CF911F910F91FF900895BE
:10030000C801821B930BF89EF001F99EF00D112499
:10031000EC0FFD1FD9CF1092D8098091D7098530F5
:1003200008F4A4CF1092D70943E050E07BCFD0E08F
:10033000C0E020E050E040E065E070E0CE010E94C7
:100340004C112196CE31D105A1F744E050E062E096
:1003500070E090E080E00E940E171092D809CACF9A
:1003600044E050E062E070E090E080E00E940E1710
:100370008091D80991E0980F9093D80921E049E144
:1003800050E063E070E090E00E944C118091D80949
:100390008E3108F4AFCF1092D8098091D7098430FC
:1003A00008F464CF1092D70945E050E067CF45E0EC
:1003B00050E06AE070E090E080E00E940E17D0E02C
:1003C000C0E00EE010E033E0F32E8091D809282F32
:1003D00030E09091D70990FD25C0FE018F9DE00D82
:1003E000F11D1124E253FF4F849190E021E042E39C
:1003F00050E066E070E00E944C112196C330D105B8
:1004000021F78091D8098E3008F471CF1092D80965
:100410008091D709853008F429CF1092D70946E09A
:1004200050E000CFC801821B930BFC01EE0FFF1FB1
:10043000E80FF91FEC0FFD1FD5CFD0E0C0E020E0A2
:1004400050E040E065E070E0CE010E944C11219642
:10045000CE31D105A1F750E040E079CF86E090E0C1
:100460000E94531720E050E040E065E070E082E237
:1004700090E00E944C1120E050E040E065E070E028
:1004800083E290E00E944C1120E050E040E065E003
:1004900070E084E290E00C944C11AB016130710586
:1004A000F9F06230710589F1672BA1F420E050E08A
:1004B00040E065E070E084E290E00E944C1120E0B2
:1004C00050E040E070E060E082E290E00E944C1179
:1004D00041E050E06AE070E086E090E00C940E1796
:1004E00020E050E040E065E070E082E290E00E94B1
:1004F0004C1120E050E040E070E060E083E290E0EA
:100500000E944C1142E050E0E5CF20E050E040E096
:1005100065E070E083E290E00E944C1120E050E042
:1005200040E070E060E084E290E00E944C1150E016
:1005300040E0D0CFCF93DF93EB016530710598F4A5
:10054000219623E049E150E064E070E0CE010C9692
:100550000E944C11AE0164E170E084E090E0DF9114
:10056000CF910C940E17D0E0C0E0EBCF672B39F0A1
:100570008091D509843018F48F5F8093D5098091DC
:10058000D40990E022E044E150E066E070E0489653
:100590000E944C1150E040E068E070E085E090E09F
:1005A0000E940E178091D409853020F48F5F8093CC
:1005B000D40908951092D4098091D509815080936F
:1005C000D50981110DC085E090E00E94531720E00D
:1005D00049E150E066E070E088E190E00C944C1155
:1005E0000895CF93DF93FB016930710508F07FC058
:1005F000E050F44E0C94A81785E090E00E94A20F02
:1006000087E090E00E943B1020E049E150E064E088
:1006100070E082E190E00E944C1120E049E150E05E
:1006200064E070E083E190E00E944C118091BC098D
:100630000E94721641E050E064E670E018C086E067
:100640008093D3098091D30980FF17C08091BD09A1
:100650000E9472168091D30981508093D30943E0A0
:1006600050E0811102C044E050E062E370E082E0BB
:1006700090E0DF91CF910C940E178091BC09E8CFE8
:100680008091BC090E94721645E050E0D5CF81E010
:1006900090E00E94F81546E050E0CECF48E050E0F0
:1006A00069E170E0E4CF20E050E040E070E060E01D
:1006B00082E190E00E944C1120E050E040E070E0C8
:1006C00060E083E190E00E944C11D0E0C0E020E0C7
:1006D00049E150E066E070E0CE010E944C112196A5
:1006E000C430D105A1F781E190E00E943B108091D8
:1006F000BD090E94721647E050E0D2CF9091D9090F
:10070000890F843650F48093D909662341F068E05C
:1007100070E081E090E00C942B1783E6F4CF08950D
:100720008091C2099091C30901969093C309809367
:10073000C2099091C1098091D909891728F0891BB4
:100740008093D90981E0089580E00895CF93DF93E5
:10075000CDB7DEB761970FB6F894DEBF0FBECDBF41
:1007600081E1E5E1F1E0DE01119601900D928A95BB
:10077000E1F781E1FE013196A8EBB9E001900D921D
:100780008A95E1F761960FB6F894DEBF0FBECDBF34
:10079000DF91CF91089541E150E070E060E088EB97
:1007A00099E00E946C1BE8EBF9E080E09191890FE1
:1007B00099E0E83CF907D1F79091C80998130C9497
:1007C000A6030895E8EBF9E080E09191890F99E0A4
:1007D000E83CF907D1F78093C80941E150E070E0A7
:1007E00060E088EB99E00C947C1BCF93DF938091C1
:1007F000CC09882301F18091C6099091C70901961F
:100800009093C7098093C60960E08091C1090E9456
:100810007E038091DA099091DB09A091DC09B09107
:10082000DD098093B8099093B909A093BA09B093F0
:10083000BB090E94E2031092CD0980E00E94B1162C
:10084000D0E0C0E021E050E040E070E060E0CE01A8
:100850000E944C112196C732D105A1F720E050E04B
:1008600040E065E070E08FE190E00E944C1120E0F4
:1008700050E040E065E070E085E290E00E944C11BD
:1008800020E050E040E065E070E080E290E00E940F
:100890004C1120E050E040E065E070E081E290E043
:1008A0000E944C1120E044E650E064E070E086E2F3
:1008B00090E00E944C1184E090E00E9453170E9447
:1008C0002E0246E050E062E370E082E090E00E9499
:1008D0000E1750E040E062E070E081E090E00E949E
:1008E0000E1750E040E062E070E090E080E0DF91C1
:1008F000CF910C940E17CF92DF92EF92FF920F934D
:100900001F93CF93DF93CDB7DEB766970FB6F894FA
:10091000DEBF0FBECDBF1092CF091092CE0981E08D
:100920000E94B11620E050E040E070E060E08EE10F
:1009300090E00E944C1120E050E040E065E070E063
:1009400082E290E00E944C1120E050E040E065E03F
:1009500070E083E290E00E944C1120E050E040E023
:1009600065E070E084E290E00E944C1120E050E0ED
:1009700040E065E070E085E290E00E944C1120E0EC
:1009800050E040E065E070E086E190E00E944C11AC
:1009900020E050E040E065E070E087E190E00E94F8
:1009A0004C1186E1E6E2F1E0DE01119601900D9234
:1009B0008A95E1F78E010F5F1F4F6E0187E1C80E28
:1009C000D11CF801E190F1908F01C7010E943D1107
:1009D000892B41F420E049E150E066E070E0C70176
:1009E0000E944C11C016D10661F70CE010E0809116
:1009F000020190E09C01255F3F4F20173107A4F5CD
:100A00000C960E943D11069759F08091020190E0EA
:100A100020E049E150E066E070E00C960E944C1145
:100A20008091D00991E0980F9093D0099091C009DE
:100A3000891750F58AE090E00E94A20F41E050E053
:100A400062E070E083E090E066960FB6F894DEBF57
:100A50000FBECDBFDF91CF911F910F91FF90EF900F
:100A6000DF90CF900C940E17C8010E943D11892B86
:100A700041F421E050E040E065E070E0C8010E94F0
:100A80004C110F5F1F4FB3CF0E94F5038CE090E035
:100A900066960FB6F894DEBF0FBECDBFDF91CF9143
:100AA0001F910F91FF90EF90DF90CF900C94A20FC9
:100AB0000F931F93CF93DF93CDB7DEB72C970FB66D
:100AC000F894DEBF0FBECDBF8093E1091A82198270
:100AD000FE0133968AE0DF011D928A95E9F7809145
:100AE000DD098F938091DC098F938091DB098F93CF
:100AF0008091DA098F9388EE98E09F938F938E010F
:100B00000F5F1F4F1F930F930E948F1861E080E0CB
:100B10000E94BB091F930F938CEE98E09F938F93D5
:100B20000E94C0090FB6F894DEBF0FBECDBF2C9651
:100B30000FB6F894DEBF0FBECDBFDF91CF911F91EE
:100B40000F910895FB018091CD098111ECC06E30A9
:100B5000710508F0E8C0E75FF34E0C94A817809188
:100B6000D609811103C080E58093D6098091D6090A
:100B70009FEF980F9093D609992379F061E0815502
:100B80000E94BB0980EF98E09F938F930E94C00959
:100B90000F900F9050E040E020C041E050E068EC42
:100BA00070E028C08091D609811103C088E080934D
:100BB000D6096091D60961506093D609662381F009
:100BC00083E00E94BB098CEF98E09F938F930E9473
:100BD000C0090F900F9041E050E062E070E00AC061
:100BE00042E050E0DCCF80E00E94580544E050E055
:100BF00068EE73E081E090E00C940E1784E099E0D9
:100C00009F938F930E94C0090F900F9045E050E092
:100C1000C6CF8091BB098F938091BA098F93809141
:100C2000B9098F938091B8098F9388EE98E09F93CC
:100C30008F930E94C0090F900F900F900F900F900C
:100C40000F9046E050E068E572E0D4CF8FE099E085
:100C50009F938F930E94C0090F900F9047E050E040
:100C60009ECF8091C109882309F494CF88E199E04F
:100C70009F938F930E94C0090F900F9048E050E01F
:100C80008ECF8091C1091F928F938091D9091F92B5
:100C90008F938EE199E09F938F930E94C0090F90EC
:100CA0000F900F900F900F900F9050E040E077CF93
:100CB0008091C1091F928F938091D9091F928F93C0
:100CC0008EE199E09F938F930E94C0090F900F903F
:100CD0000F900F900F900F904AE050E060CF87E2A6
:100CE00099E09F938F930E94C0090F900F904BE063
:100CF00050E055CF88E199E09F938F930E94C009FF
:100D00000F900F904CE050E04ACF0E94E009CDCF09
:100D10008EE299E09F938F930E94C0090F900F90ED
:100D200042E050E05ACF0895CF93DF932091CD0950
:100D3000222389F06430710509F495C078F462309B
:100D4000710509F46FC06330710509F481C0613029
:100D5000710509F449C0DF91CF910895653071059F
:100D600009F48AC066307105B1F781E08093CB0940
:100D700046E050E068EC70E082E090E00E940E17E0
:100D8000D0E0C0E020E050E040E070E060E0CE0164
:100D90000E944C112196C732D105A1F721E048E508
:100DA00052E063E070E085E290E00E944C1120E0A8
:100DB00050E040E065E070E08EE190E00E944C1170
:100DC0008DE090E00E94A20F80E00E94B1168BE4BB
:100DD00099E09F938F930E94C0090F900F9050E06D
:100DE00040E068E572E02EC081E08093CA0981E1AD
:100DF00090E00E943B1082E090E00E94F815809104
:100E0000D0091F928F9387E399E09F938F930E945D
:100E1000C0090F900F900F900F9044E050E060E9F0
:100E200071E010C082E090E00E94F8158FE399E035
:100E30009F938F930E94C0090F900F9043E050E062
:100E400068EC70E083E090E0DF91CF910C940E1796
:100E500085E499E09F938F930E94C0090F900F90B3
:100E600044E050E0EDCF1092CB091092CA0980E027
:100E7000DF91CF910C94580581E08093CB098EE2ED
:100E800099E09F938F930E94C0090F900F90C5CF58
:100E90001092DA091092DB091092DC091092DD0938
:100EA00080E00C945805CF93DF930E94480781E0BF
:100EB0008093CD091092CC091092D0098093020141
:100EC0001092C90981E090E00E94531790E080E001
:100ED0000E94531720E050E040E070E060E08FE1B6
:100EE00090E00E944C1120E050E040E065E070E0AE
:100EF00086E290E00E944C11D0E0C0E021E050E09A
:100F000040E070E060E0CE010E944C112196C732B3
:100F1000D105A1F7DF91CF910C947B04CF93DF93A0
:100F200000D000D0CDB7DEB78091DA099091DB090F
:100F3000A091DC09B091DD09BC01CD010F900F90AB
:100F40000F900F90DF91CF91089540910201489F3B
:100F50009001499F300D11248091DA099091DB09AD
:100F6000A091DC09B091DD09820F931FA11DB11D75
:100F70008093DA099093DB09A093DC09B093DD0933
:100F80008091CB09811103C08FEF0E945805809199
:100F9000CC09811124C04091B8095091B9096091E0
:100FA000BA097091BB098091DA099091DB09A0918F
:100FB000DC09B091DD09481759076A077B0778F407
:100FC00081E08093CC0945E050E062E070E083E08E
:100FD00090E00E940E1790E080E00C94F8150895C0
:100FE0008631910509F48EC0A8F4E091D109F09101
:100FF000D20984319105C9F04597C9F1E091D10931
:10100000F091D209EA30F10508F031C1E95EF34E02
:101010000C94A817479791F71092D2091092D10912
:101020000E94E2030E94F503E9CFEF2B81F482E0F6
:1010300090E00E94531781E090E00E94531790E0E7
:1010400080E00E94531783E090E00E945317809144
:10105000D1099091D20901968A30910528F4909394
:10106000D2098093D109CACF81E090E0F8CFEA306D
:10107000F10520F6EF5DF34E0C94A8178091BE09A0
:10108000823008F0BBCF8F5F8093BE09823009F0B9
:10109000B5CF81E190E00E943B10B0CF8091BC09B8
:1010A0008F3108F0ABCF8F5F8093BC09A7CF8091C1
:1010B000BD098F3108F0A2CF8F5F8093BD099ECF0D
:1010C0008091BF09833608F099CF8F5F8093BF0965
:1010D00095CF8091C009893008F090CF8F5F8093C1
:1010E000C0098CCF8091C109893008F087CF8F5F0C
:1010F0008093C10983CF90E080E00E94F8150E94A0
:10110000A6037CCF8091D1099091D20986309105B8
:1011100061F1B8F48130910579F18230910599F14E
:10112000892B09F06BCF8091BE09882309F466CF23
:1011300081508093BE09823008F060CF90E080E05B
:10114000AACF8730910551F0089709F057CF8091C9
:10115000BD09803108F452CF8150AFCF8091BC09D6
:10116000803108F44BCF81509FCF8091BF098230EE
:1011700008F444CF8150AACF8091C009823008F48E
:101180003DCF8150ACCF8091C109882309F436CF7F
:101190008150AECF8091BE091F928F9380E599E078
:1011A0009F938F930E94C0090F900F900F900F9004
:1011B00008958091BC090E94721648E050E062E3F5
:1011C00070E082E090E00E940E178091BC091F92AF
:1011D0008F9387E599E0E4CF8091BD090E94721654
:1011E00048E050E062E370E082E090E00E940E1779
:1011F0008091BD091F928F9381E699E0D1CF8091B4
:10120000BF091F928F938BE699E0CACF8091C009E6
:101210001F928F9384E799E0C3CF8091C1091F92F9
:101220008F938DE799E0BCCF8091C3098F93809114
:10123000C2098F9386E899E0B3CF8091C7098F9355
:101240008091C6098F938FE899E0AACF8091C50954
:101250008F938091C4098F9389E999E0A1CF83EAA4
:1012600099E09F938F930E94C0090F900F9008956B
:10127000AF92BF92CF92DF92EF92FF920F931F93A4
:10128000CF93DF93162F042FCCE3D1E098818917F9
:10129000B9F029819A81299FC00DD11D112423966F
:1012A00097E0CC3ED90790F380E0DF91CF911F917A
:1012B0000F91FF90EF90DF90CF90BF90AF90089587
:1012C000D12CC12C209781F389818C151D0469F3E1
:1012D00064F3F12CE12C5E01AC0CBD1C12C0E89E45
:1012E000F001E99EF00DF89EF00D1124EA0DFB1DB2
:1012F000602F6E0D4381812F0E94050A8FEFE81A3F
:10130000F80A898190E02A812E151F0409F03CF724
:101310009FEFC91AD90A1150D7CFCF93C82F609128
:10132000DE098091E009681B4091DF098C2F0E9443
:101330003809982FCA3049F40E94910A88E28093B4
:10134000DE0990E080E0CF9108958091DE09891B4D
:101350008093DE09C0E08091DE099091E00940E0D1
:101360006C2F891B0E94050ACF5FC830A1F78091BE
:10137000DE098150E4CF8093E0096093DF0908958E
:10138000EF92FF920F931F93CF93DF93CDB7DEB70A
:101390008E01075F1F4FF801E190F1908F010E94CD
:1013A0005F0AB801C7010E94BF188AE090E00E945E
:1013B0008918DF91CF911F910F91FF90EF900895C1
:1013C0000C945F0A1092E0091092DF090E94D60A7D
:1013D0008AE090E00E94891883E091E09093870C66
:1013E0008093860C089584EA8093BC008091BC00B1
:1013F00087FFFCCF08958093BB0084E88093BC00F6
:101400008091BC0087FFFCCF0895883208F048C067
:10141000683008F045C0423071F1B8F490E04111F5
:1014200017C021E030E001C0220F6A95EAF720954D
:10143000FC01E65FF54F308132233083FC01EE5131
:10144000F64F9081292320830895433051F1089568
:1014500021E030E001C0220F6A95EAF7FC01E65F67
:10146000F54F3081322B3083FC01EE51F64F209541
:1014700080812823E8CFE82FF0E081E090E001C0F0
:10148000880F6A95EAF7DF01A65FB54F282F2095F0
:101490009C9192239C93EE51F64F9081892B8083EF
:1014A0000895E82FF0E081E090E001C0880F6A9590
:1014B000EAF7DF01A65FB54F9C91982BEBCF0F9316
:1014C0001F93CF93DF9388E2EAE0FAE0DF01982FE1
:1014D0001D929A95E9F7E2EEF9E0DF011D928A95F7
:1014E000E9F7C0E0D4E90E94F3098C2F806E0E94D6
:1014F000FB0980E00E94FB0908E010E080E00E9408
:10150000FB0980E00E94FB0901501109B9F7D09353
:10151000BC00CE5FCA3039F7DF91CF911F910F9198
:101520000895AF92BF92CF92DF92EF92FF920F9306
:101530001F93CF93DF93D0E0C0E010E004E90E9456
:10154000F309812F806E0E94FB0980E00E94FB0955
:10155000CE018E51964F5C01FE01E65FF54F6F01A3
:1015600088E0E82EF12CF50191915F018091E1096D
:1015700089270E94FB09F60181916F010E94FB09F6
:10158000F1E0EF1AF10879F70093BC001E5F28968E
:10159000C832D105A1F6DF91CF911F910F91FF9035
:1015A000EF90DF90CF90BF90AF9008951F93CF93AF
:1015B000DF9388B1836088B987B1836087B910925F
:1015C000B9008CE08093B80084E08093BC00C0E058
:1015D000D4E90E94F3091C2F106E812F0E94FB0991
:1015E00081E20E94FB09D093BC000E94F309812F85
:1015F0000E94FB0981E80E94FB09D093BC000E9475
:10160000F309812F0E94FB0986EE0E94FB09D0930B
:10161000BC00CE5FCA30E9F6DF91CF911F910C94E8
:101620005F0A8AB18F7C8AB98BB180638BB987B12D
:101630008F7387B988B1806C88B908950F931F9311
:10164000CF930E94BD168C0189B19091CD09992349
:10165000E1F1C82FC09584FD1BC084E090E00E949A
:10166000E915811115C084E690E00E94A50784E089
:1016700090E00E94F81582E090E00E94A20F21E025
:1016800049E150E063E070E086E190E00E944C1197
:10169000C5FF1BC083E090E00E94E915811115C0D1
:1016A00084E690E00E94A50783E090E00E94F81590
:1016B00081E090E00E94A20F21E049E150E063E068
:1016C00070E087E190E00E944C11C6B18091CD0995
:1016D000C095C07C811101C0C0E08091C9098823F8
:1016E00029F08C2F85958074CC0FC82B0E9488160A
:1016F000853009F447C08035B9F1811115C0C6FFA6
:1017000013C08091340A9091350A9801281B390B37
:101710002333310548F01093350A0093340A80E5ED
:101720000E949E160E9481150E9485168530E1F167
:10173000803561F1811134C0C7FF32C08091320A17
:101740009091330A9801281B390B2333310540F15E
:101750001093330A0093320A80E50E948B16CF91D2
:101760001F910F910C9481158091340A9091350A44
:101770009801281B390B2A313105B0F285E00E940F
:101780009E16D2CFC6FDD0CF80E0F9CF8091320A2D
:101790009091330A081B190B85E00A31110538F4C2
:1017A000CF911F910F910895C7FDFACF80E0CF919F
:1017B0001F910F910C948B168EBD0DB407FEFDCFBB
:1017C00008951EBC0DB407FEFDCF8EB50895CF93CE
:1017D000DF93D62FC42F98B127EF843008F42BEF76
:1017E000922398B9880F867080640E94DC0B8D2F3D
:1017F0000E94DC0B8C2F0E94DC0B88B18C6088B9B6
:10180000DF91CF910895CF93C62F98B127EF843001
:1018100008F42BEF922398B9880F867081640E9498
:10182000DC0B8C2F0E94DC0B0E94E10B98B19C60BA
:1018300098B9CF910895CF9384B1806A84B92698DE
:101840002E9A2F9A2D98249A2C9A80E58CBD8CB5CF
:1018500081608CBD81E08DBD85B7806885BF85B70F
:10186000806885BF2B98239A88B18C6088B987B12E
:101870008C6087B980E18A95F1F72B9AC0E04CE241
:1018800065E08C2F0E94E70B4FEF60E08C2F0E94E9
:10189000E70B4FEF66E08C2F0E94E70B4FEF61E004
:1018A0008C2F0E94E70BCF5FC33049F748E265E019
:1018B0008C2F0E94E70B40E06AE08C2F0E94E70B20
:1018C00040E060E08C2F0E94E70BCF5FC83071F7DB
:1018D000CF9108951F921FB61F9211242F932BB7FB
:1018E0002F933F934F935F938F939F93EF93FF9328
:1018F0002091C0004091C60030917D0A832F90E076
:10190000019650917C0A58171906C1F028713F5F63
:1019100030937D0A8058954FFC01408320937B0AC9
:10192000FF91EF919F918F915F914F913F912F91F7
:101930002BBF2F911F901FBE1F90189522E0EECF56
:101940008F938FB78F938BB78F939F93EF93FF9363
:1019500090917F0A80917E0A9817B9F080917E0A53
:1019600090E001968F73992780937E0A8058954F57
:10197000FC0180818093C600FF91EF919F918F9130
:101980008BBF8F918FBF8F9118958091C1008F7DF4
:101990008093C100F1CF9C018FB7F89410927F0A19
:1019A00010927E0A10927D0A10927C0A8FBF37FF38
:1019B00004C082E08093C0003F773093C50020933D
:1019C000C40088E98093C10086E08093C200089536
:1019D0008FB7F89420917D0A90917C0A8FBF2913CC
:1019E00003C080E091E0089580917C0AE82FF0E048
:1019F0008F5F80937C0AEF57F54F208190917B0A8F
:101A0000892F90E0982F8827820F911D08958FB716
:101A1000F89420917D0A90917C0A8FBF291303C00E
:101A200080E091E00895E0917C0AF0E0EF57F54FF7
:101A3000208190917B0A892F90E0982F8827820F30
:101A4000911D089520917F0A30E02F5F3F4F2F7343
:101A5000332790917E0A92171306D9F3F901E058C3
:101A6000F54F808320937F0A8091C100806280932C
:101A7000C1000895CF93DF93EC018991811103C0D8
:101A8000DF91CF9108950E94220DF7CFCF93DF937E
:101A9000EC01FE0184912196811103C0DF91CF9169
:101AA00008950E94220DF5CF2FB7F89480917D0AFA
:101AB00090917C0A2FBF891B990B08958FB7F894DA
:101AC00090917C0A90937D0A8FBF08951F921FB654
:101AD0001F9211242F932BB72F933F934F935F9314
:101AE0008F939F93EF93FF932091C8004091CE0076
:101AF0003091380A832F90E001965091370A581799
:101B00001906C1F028713F5F3093380A855C954F04
:101B1000FC0140832093360AFF91EF919F918F91B2
:101B20005F914F913F912F912BBF2F911F901FBE1F
:101B30001F90189522E0EECF8F938FB78F938BB7BE
:101B40008F939F93EF93FF9390913A0A8091390A74
:101B50009817B9F08091390A90E001968F73992710
:101B60008093390A855C954FFC0180818093CE007B
:101B7000FF91EF919F918F918BBF8F918FBF8F912D
:101B800018958091C9008F7D8093C900F1CF9C0189
:101B90008FB7F89410923A0A1092390A1092380AC4
:101BA0001092370A8FBF37FF04C082E08093C800CD
:101BB0003F773093CD002093CC0088E98093C90013
:101BC00086E08093CA0008959FB7F8942091380A60
:101BD0008091370A281304C09FBF80E091E00895E8
:101BE0008091370AE82FF0E031968F5F8093370AB3
:101BF0009FBFE55CF54F20819091360A892F90E0D8
:101C0000982F8827820F911D08958FB7F8942091FF
:101C1000380A9091370A8FBF291303C080E091E002
:101C20000895E091370AF0E0E45CF54F208190914F
:101C3000360A892F90E0982F8827820F911D0895EA
:101C400020913A0A30E02F5F3F4F2F733327909156
:101C5000390A92171306D9F3F901E55CF54F808331
:101C600020933A0A8091C90080628093C900089548
:101C7000CF93DF93EC018991811103C0DF91CF9164
:101C800008950E94200EF7CFCF93DF93EC01FE0161
:101C900084912196811103C0DF91CF9108950E9414
:101CA000200EF5CF2FB7F8948091380A9091370A1B
:101CB0002FBF891B990B08958FB7F8949091370A1D
:101CC0009093380A8FBF0895EEE6F0E090819D7FF3
:101CD000908367BD92E094BD85BD16BC8081826013
:101CE0008083089515BC0895EFE6F0E090819D7F14
:101CF00090835093C10A4093C00A70938900609307
:101D00008800109280008860809381001092850086
:101D100010928400808182608083089510928100F7
:101D200008951F920F920FB60F9211240BB60F92C7
:101D30002F933F934F935F936F937F938F939F93D3
:101D4000AF93BF93EF93FF93E091C00AF091C10A64
:101D5000309709F00995FF91EF91BF91AF919F9155
:101D60008F917F916F915F914F913F912F910F9044
:101D70000BBE0F900FBE0F901F901895E0E7F0E09C
:101D800090819D7F90836093B3001092B60092E0A3
:101D90009093B0008093B1001092B2008081826075
:101DA000808308951092B1000895662371F0909198
:101DB0006E009D7F90936E0067BD92E094BD85BDDF
:101DC00016BCA99AA99BFECF15BC08956115710593
:101DD000B9F090916F009D7F90936F007093890090
:101DE0006093880010928000886080938100109238
:101DF000850010928400B19AB19BFECF10928100B1
:101E000008956623A9F0909170009D7F90937000D3
:101E10001092B6006093B30092E09093B00080936C
:101E2000B1001092B200B99AB99BFECF1092B100E6
:101E300008950F931F93CF93DF93CDB7DEB72E97FF
:101E40000FB6F894DEBF0FBECDBF8C018EE0E9EA7D
:101E5000F9E0DE01119601900D928A95E1F7C80133
:101E60000E947118AC01B801CE0102960E947A1846
:101E700088E091E00E94460D8091CF0981110AC04F
:101E80008091BE09882331F0012B21F0CE0101960B
:101E90000E943A0D2E960FB6F894DEBF0FBECDBF4E
:101EA000DF91CF911F910F9108950F931F93CF93BF
:101EB000DF93CDB7DEB72E970FB6F894DEBF0FBE17
:101EC000CDBF8C018091CF09811121C08091CD09B6
:101ED0008823E9F08091BE098230C8F00115110510
:101EE000B1F08EE0E9EAF9E0DE01119601900D9281
:101EF0008A95E1F7C8010E947118AC01B801CE01C2
:101F000002960E947A18CE0101960E94380E2E96F3
:101F10000FB6F894DEBF0FBECDBFDF91CF911F91FA
:101F20000F91089587E690E00E94CB0C89E691E03E
:101F30000E94460D87E690E00E94C70D83E691E07F
:101F40000C94440EFC01419708F078C0E55DF34E17
:101F50000C94A8178FE591E00C94190F8AE591E095
:101F6000FBCF0E94621863E070E00E9494178130FA
:101F7000910549F08230910549F0892B09F05EC046
:101F800084E591E0E9CF8EE491E0E6CF88E491E04A
:101F9000E3CF80E491E0E0CF0E94621863E070E05C
:101FA0000E9494178130910549F08230910549F0E3
:101FB000892B09F043C08BE391E0CECF86E391E01B
:101FC000CBCF81E391E0C8CF8BE291E0C5CF0E94F7
:101FD0006218282F62E070E00E94941720FF03C06F
:101FE000019721F0089584E291E0B6CF8DE191E070
:101FF000B3CF87E191E0B0CF90E080E00E94550F31
:102000000E946218282F62E070E00E94941720FF5F
:1020100003C0019729F0089581E191E00C94550FD8
:102020008BE091E0FBCF87E090E00E94531790E0B7
:1020300080E00E94190F90E080E0F0CF08956730B3
:10204000710521F06131710569F0089580E091E03A
:102050000E94550F47E050E068E076E187E090E0AD
:102060000C940E178BEF90E00E94550F41E150E069
:1020700060EC71E2F3CFCF93DF93EC018091C20A61
:102080009091C30A8C179D0799F090E080E00E9420
:10209000550F87E090E00E945317C730D10519F023
:1020A000C131D10529F4BE0187E090E00E941F10E4
:1020B000D093C30AC093C20ADF91CF9108950F93C2
:1020C0004091C40A69E083E00E94E70B2091C40AB2
:1020D0003091C50A4091C60A5091C70A6091C80A5A
:1020E0007091C90A8091CA0A9091CB0A08E00E94B7
:1020F000CC17422F69E084E00E94E70B2091C40ACC
:102100003091C50A4091C60A5091C70A6091C80A29
:102110007091C90A8091CA0A9091CB0A00E10E948D
:10212000CC17422F69E085E00E94E70B2091C40A9A
:102130003091C50A4091C60A5091C70A6091C80AF9
:102140007091C90A8091CA0A9091CB0A08E10E9455
:10215000CC17422F69E086E00E94E70B2091C40A69
:102160003091C50A4091C60A5091C70A6091C80AC9
:102170007091C90A8091CA0A9091CB0A00E20E942C
:10218000CC17422F6AE087E00F910C94E70BFF9287
:102190000F931F93CF93DF939C01F62E8897C0F582
:1021A0002451384FF901008121E030E040E050E057
:1021B00060E070E080E090E00E94B117A091C40A56
:1021C000F091C50AE091C60A0091C70A1091C80AA9
:1021D000D091C90AC091CA0AB091CB0AFF20F1F090
:1021E0002A2B2093C40A3F2B3093C50A4E2B4093D1
:1021F000C60A502B5093C70A612B6093C80A7D2BE7
:102200007093C90A8C2B8093CA0A9B2B9093CB0A9C
:10221000DF91CF911F910F91FF90089520953095F8
:102220004095509560957095809590952A232093C0
:10223000C40A3F233093C50A4E234093C60A502355
:102240005093C70A61236093C80A7D237093C90A1B
:102250008C238093CA0A9B23D9CF9C018E3491058D
:1022600050F4220F331FF901E157F44F81E0208130
:102270003181232B09F480E008959C018E3491056F
:1022800040F4220F331FF901E157F44F808191810F
:10229000089590E080E00895BF92CF92DF92EF9290
:1022A000FF920F931F93CF93DF93EC017B01B42E2A
:1022B000C52ED22E879758F561E085E0E816F10427
:1022C00008F460E0CE010E94C7108E01000F111FBC
:1022D000F801E157F44FF182E082F801ED50F54F3B
:1022E000B082C182C453D54FD8820E94BD16F80176
:1022F000EF5BF44F91838083DF91CF911F910F911A
:10230000FF90EF90DF90CF90BF900C945F10DF9123
:10231000CF911F910F91FF90EF90DF90CF90BF90E2
:1023200008952F923F924F925F926F927F928F9279
:102330009F92AF92BF92CF92DF92EF92FF920F9354
:102340001F93CF93DF938FE8E82E8BE0F82E0CECF1
:102350001AE0D0E0C0E022242394312C24E0422E65
:10236000512C35E0632E712C43E0A42EB12CD70103
:102370008D919D917D018330910509F476C008F51A
:102380008130910509F442C0029709F48EC00F5FB5
:102390001F4F2296CE34D10551F7DF91CF911F9177
:1023A0000F91FF90EF90DF90CF90BF90AF909F90F4
:1023B0008F907F906F905F904F903F902F900C94F4
:1023C0005F108D7F049719F70E94BD16FE01EF5B29
:1023D000F44F6F0120813181821B930BFE01ED5080
:1023E000F54F208131812817390788F6F701329798
:1023F000318220820E94BD16D6018D939C9360E0AD
:10240000C8018C5C9A400E94C710C1CF0E94BD16C3
:10241000FE01EF5BF44F4F0120813181821B930B52
:10242000FE01ED50F54F208131812817390708F062
:10243000AECFD8018C91F801EC5CFA406F01F70146
:102440003297811109C0518240820E94BD16D40189
:102450008D939C9361E007C081508C938111F3CFE1
:102460001182108260E0C601CECF0E94BD16FE012F
:10247000EF5BF44F6F0120813181821B930BFE01D2
:10248000ED50F54F208131812817390708F07FCFB3
:10249000F701329722E030E0318320830E94BD169D
:1024A000D6018D939C9361E0ABCF0E94BD16FE01D7
:1024B000EF5BF44F4F0120813181821B930BFE01B2
:1024C000ED50F54F208131812817390708F05FCF93
:1024D000D8018C91F801EC5CFA406F01F70132975A
:1024E000811108C0B182A0820E94BD16D4018D93D3
:1024F0009C93B8CF81508C938111F4CF718260820C
:10250000A9CF0F931F93CF93DF93009114081091DD
:102510001508D0911608C09117088231910581F0F5
:102520004397F1F084E190E00E943D11059731F16D
:10253000B8018D2F9C2FDF91CF911F910F9108959E
:1025400084E190E00E943D11059761F321E050E0A5
:1025500040E065E070E084E190E00E944C11E2CF41
:1025600085E190E00E943D110597E1F221E050E005
:1025700040E065E070E085E190E0EFCF85E190E03C
:102580000E943D110597A1F625E049E150E064E085
:1025900070E084E190E00E944C1125E049E150E0B8
:1025A00064E070E085E190E00E944C1160911808B1
:1025B0007091190880911A0890911B08BCCFCF9395
:1025C000DF9300D000D0CDB7DEB742E050E069E144
:1025D00070E082E090E00E940E1780911C089091BC
:1025E0001D08A0911E08B0911F08BC01CD010F90DD
:1025F0000F900F900F90DF91CF9108958091CE09A9
:102600008F5F8093CE099091BF09981758F481E0AD
:102610008093CF0946E050E062E070E083E090E014
:102620000E940E1760E070E0CB010895CF93DF9316
:1026300000D000D0CDB7DEB741E050E062E070E0FE
:1026400085E090E00E940E1780912008909121086B
:10265000A0912208B0912308BC01CD010F900F90EA
:102660000F900F90DF91CF91089561E081E00E947B
:102670007E0360E070E08EE090E008958091CD09E7
:1026800081110EC00E949003882379F00E945307A5
:1026900041E050E062E070E083E090E00E940E17BD
:1026A00060E070E089E090E0089549E050E062E089
:1026B00070E081E090E0F2CFCF93DF9300D000D0C4
:1026C000CDB7DEB741E050E062E070E083E090E03B
:1026D0000E940E178091CA09811116C00E948E07B0
:1026E000672B682B692BD1F48091D0098130B1F42C
:1026F0008091CF09811112C042E050E062E070E0A9
:1027000083E090E00E940E1760E070E0CB010F9034
:102710000F900F900F90DF91CF9108950E947B044E
:10272000F3CF0E94F00760E070E080E190E0089550
:10273000EF92FF920F931F93CF93DF937C01009151
:10274000240810912508D0912608C09127080E94DE
:102750003D11059741F021E050E040E065E070E078
:10276000C7010E944C118AE090E00E943D1105973C
:1027700051F0B8018D2F9C2FDF91CF911F910F91B8
:10278000FF90EF9008958BE090E00E943D11059737
:1027900081F725E049E150E064E070E08AE090E0F4
:1027A0000E944C1125E049E150E064E070E08BE0CC
:1027B00090E00E944C1125E049E150E063E070E0B8
:1027C00087E190E00E944C116091180870911908FF
:1027D00080911A0890911B08CFCFEF92FF920F9330
:1027E0001F93CF93DF937C01009128081091290853
:1027F000D0912A08C0912B080E943D11059799F1AC
:1028000021E050E040E065E070E0C7010E944C111B
:10281000F12CE12CC7010E943D11059721F58FEFA6
:10282000E81AF80A84E0E816F104A1F750E040E065
:1028300062E070E082E090E00E940E1750E040E01D
:1028400062E370E086E090E00E940E1785E090E081
:102850000E94F815609118087091190880911A0863
:1028600090911B0803C0B8018D2F9C2FDF91CF9151
:102870001F910F91FF90EF900895EF92FF920F93A9
:102880001F93CF93DF937C0100912C0810912D08AA
:10289000D0912E08C0912F080E943D11059709F490
:1028A0004DC021E050E040E065E070E0C7010E94CB
:1028B0004C1184E0E82EF12CC7010E943D110597D0
:1028C000E9F58FEFE81AF80A8AE0E816F104A1F7B3
:1028D000C4E0D0E020E049E150E066E070E0CE01E5
:1028E0000E944C112196CA30D105A1F780910201B6
:1028F000853070F58F5F8093020190E021E050E019
:1029000040E065E070E00B960E944C11809102015E
:1029100090E020E049E150E066E070E00C960E9413
:102920004C1185E090E00E94F815609118087091B4
:10293000190880911A0890911B0803C0B8018D2FC7
:102940009C2FDF91CF911F910F91FF90EF900895F1
:102950008091C9098111E9CF81E08093C90950E0D4
:1029600040E062E070E084E090E00E940E17D9CF72
:1029700008954F925F926F927F92AF92BF92CF92E3
:10298000DF92EF92FF920F931F93CF93DF9300D0CC
:1029900000D0CDB7DEB71A8219821C821B82CE010D
:1029A00001966C01F12CE12C8C0169E08E2D0E94C6
:1029B000030CD6018D936D01882311F0FF24F3944D
:1029C000E394B3E0EB12F1CFA0ECB8E030E020E00C
:1029D00041E050E071E0FF2021F02831310509F09D
:1029E0006CC089818093DD0B8A818093DE0B8B81A3
:1029F0008093DF0B81EEE82E8BE0F82E00E318E0E9
:102A0000D12CC12CD7018C918823B9F11C920E9442
:102A1000BD169C01F70181819281A901481B590BC8
:102A2000D80112968D919C9113978417950728F5DC
:102A3000328321838091CF09882321F015968C91D0
:102A40008823D9F08091CD09811104C0F8018481D7
:102A5000882399F0D801ED91FC9161E0C6010995B8
:102A60003C015C016115710519F0CB010E94A507BD
:102A7000AB2819F0C3010E94A20FBFEFCB1ADB0AEB
:102A8000E3E0EE0EF11C0A5F1F4FF8E1CF16D10410
:102A900009F0B8CF0F900F900F900F90DF91CF916A
:102AA0001F910F91FF90EF90DF90CF90BF90AF906C
:102AB0007F906F905F904F9008958D91982F9770B1
:102AC0005A0101C0AA0C9A95EAF7869586958695D3
:102AD00090E06801C80ED91EF60160816A2171F08C
:102AE0008352944FFC0180818A2141F4F901EE0F59
:102AF000FF1FE20FF31FEF51F44F70832F5F3F4F23
:102B00006ACFCF93DF9384E190E00E943D11EC0106
:102B100085E190E00E943D11C817D90721F184E1B9
:102B200090E00E943D1161E070E0892B11F070E0AF
:102B300060E020E050E040E084E190E00E944C1131
:102B400085E190E00E943D1161E070E0892B11F079
:102B500070E060E020E050E040E085E190E0DF914F
:102B6000CF910C944C11DF91CF9108959C0183304B
:102B7000910501F148F40197F9F084E02230310524
:102B800069F0232B89F0089584309105B9F00597F9
:102B900051F48091BE09823030F081E092B1662319
:102BA00079F0892B82B908958091BE098230D8F3DB
:102BB00082E0F4CF88E0F2CF80E2F0CF80E1EECF88
:102BC00080958923EFCF82B112B881B18FEF81B99F
:102BD00008959C01089750F4220F331FF901E75C18
:102BE000F34F81E020813181232B09F480E00895A7
:102BF000CF92DF92EF92FF920F931F93CF93DF93C9
:102C00008C010E94BD16EC0108301105E8F4780132
:102C1000EE0CFF1C9701275D334F6901F90180819C
:102C200091819E01281B390B2233310568F061E048
:102C3000C8010E94B615F601D183C083F701E75C95
:102C4000F34F6496D183C083DF91CF911F910F9191
:102C5000FF90EF90DF90CF900895EF92FF920F9347
:102C60001F93CF93DF930E94BD168C0189E3E82E5A
:102C70008CE0F82ED0E0C0E0F701819191917F01C6
:102C8000009751F08017910738F432971182108223
:102C900060E0CE010E94B6152196C830D10561F7DB
:102CA000DF91CF911F910F91FF90EF900895809148
:102CB000490C90914A0C019690934A0C8093490CD0
:102CC000089547E556E16EE470E085E00C94740EDB
:102CD0002C98249A80E284BD84B5836084BD85E00D
:102CE00085BD089588BD08958AB1806C8AB98AB17E
:102CF000806C8AB9E0EBF0E080EA808380818960B3
:102D0000808386E08093B100089580914C0C0895F3
:102D100080914B0C089590914D0C911102C081113E
:102D20000CC080934C0C2FEF829FC001112464E6ED
:102D300070E00E9494176093B400089590914D0C38
:102D4000911102C081110CC080934B0C2FEF829F18
:102D5000C001112464E670E00E9494176093B300F0
:102D60000895CF93C82F80E00E949E1680E00E94B5
:102D70008B16C0934D0CCF9108952FB7F894809186
:102D8000490C90914A0C2FBF0895CF92DF92EF9299
:102D9000FF920F931F93CF93DF930EE41CE0CFEFCE
:102DA000DFEFD801CD90DC90FE0131967F01C11498
:102DB000D10429F10E94BD169C01D80112968D9173
:102DC0009C911397F901E81BF90BCE16DF06B8F4B6
:102DD00013963C932E931297E5EFF0E0C830D1059F
:102DE00030F4CC0FDD1FC852D74FE881F9813097FE
:102DF00031F0D80114966D917C91C70109950A5F55
:102E00001F4FE701C830D10561F6DF91CF911F91C7
:102E10000F91FF90EF90DF90CF9008950F931F9345
:102E2000CF93DF939C018A01099780F486E0829F0B
:102E3000E001839FD00D1124C25BD34F6883798357
:102E40000E94BD169B838A830C831D83DF91CF91E3
:102E50001F910F9108959C01099790F486E0829F3D
:102E6000F001839FF00D1124E25BF34F808191818B
:102E7000892B31F081E090E09183808364837583B6
:102E800008959C01099768F486E0829FF001839F72
:102E9000F00D1124E25BF34F81E020813181232B7F
:102EA00009F480E008959C01099750F486E0829F20
:102EB000F001839FF00D1124E25BF34F1182108229
:102EC0000895A89588E19EE00FB6F894A8958093A0
:102ED00060000FBE909360000E941B0C0E94E315DF
:102EE0000E9474160E9468160E94110B0E94E2094B
:102EF0000E94920F0E94CB030E94611650E040E0B6
:102F000068EC70E088E090E00E940E1778940E94D0
:102F1000F5030E9491110E94B9140E941E0B0E9499
:102F20002D160E94C516F5CF97FB072E16F40094B8
:102F300007D077FD09D00E94E71707FC05D03EF4C3
:102F4000909581959F4F0895709561957F4F089555
:102F5000EE0FFF1F0024001C0BBE0790F691E02D22
:102F60000994002E083090F0982F872F762F652F28
:102F7000542F432F322F22270850F4CF220F331F14
:102F8000441F551F661F771F881F991F0A95B2F7A8
:102F9000002D089597FD1094002E083098F00850E9
:102FA000232F342F452F562F672F782F892F912DC0
:102FB000F4CF15949795879577956795579547958D
:102FC000379527950A95AAF71124002D0895AA1B75
:102FD000BB1B51E107C0AA1FBB1FA617B70710F004
:102FE000A61BB70B881F991F5A95A9F78095909536
:102FF000BC01CD010895CF92DF92EF92FF92CF9363
:10300000DF93CDB7DEB72A970FB6F894DEBF0FBEB9
:10301000CDBF89879A87A985BA852D913D914D911C
:103020005C9129833A834B835C83232B242B252BB0
:1030300041F424E239ED4BE557E029833A834B8391
:103040005C8369817A818B819C812DE133EF41E042
:1030500050E00E94941B69017A01A7EAB1E49B0148
:10306000AC010E94B31B69837A838B839C83ACEE93
:10307000B4EFA70196010E94C11B9B01AC0189819D
:103080009A81AB81BC81820F931FA41FB51FB7FF2C
:1030900003C00197A109B048E985FA85808391832F
:1030A000A283B3839F772A960FB6F894DEBF0FBE34
:1030B000CDBFDF91CF91FF90EF90DF90CF9008953B
:1030C0000C94FB1781E191E00C94FB17B0E0A0E0B9
:1030D0008093110190931201A0931301B0931401F6
:1030E0000895FC0105900020E9F7809590958E0FDA
:1030F0009F1F0895FB01DC014150504048F00590AE
:103100000D920020C9F701C01D9241505040E0F7D8
:1031100008956091860C7091870C0C94DE1A0F93C1
:103120001F93CF93DF93CDB7DEB72E970FB6F894EA
:10313000DEBF0FBECDBF0D891E8986E08C831A834A
:1031400009838FEF9FE79E838D83AE01475E5F4FBC
:103150006F89788DCE0101960E94C7182F8138851E
:10316000020F131FF80110822E960FB6F894DEBFDF
:103170000FBECDBFDF91CF911F910F910895AB018D
:10318000BC018091860C9091870C0C94C7182F92EB
:103190003F924F925F926F927F928F929F92AF92E7
:1031A000BF92CF92DF92EF92FF920F931F93CF9334
:1031B000DF93CDB7DEB72F970FB6F894DEBF0FBE03
:1031C000CDBF7C013B018A01DC0117961C921E9247
:1031D000169713968C9181FFD8C19AE0292EFE0193
:1031E00031964F01D70113969C91F30193FD859180
:1031F00093FF81913F01882309F448C1853239F456
:1032000093FD859193FF81913F01853229F4B701A8
:1032100090E00E94DE1AE6CFB12C412C512CBFE188
:10322000B51538F08B3209F188F4803201F1833220
:1032300021F157FC3AC020ED280F2A3040F556FE08
:103240001FC0B29C200D1124B22E06C08D3291F009
:10325000803379F7689450F8F30193FD859193FFDB
:1032600081913F018111DBCF20C0689451F86894AF
:1032700052F8F2CF689453F8EFCF689454F8ECCF3B
:10328000429C200D1124422E689455F8E5CF8E32D1
:1032900029F456FCFBC0689456F8DECF8C3619F43E
:1032A000689457F8D9CF8836B9F2982F9F7D9554F6
:1032B0009330C0F08336A1F18337C1F1833509F033
:1032C0005BC0D801CD90DD908D016B2D70E056FC78
:1032D00002C06FEF7FEFC6010E94C81A5C016894BC
:1032E00057F80AC00C5F1F4FEFE3E983AA24A394A9
:1032F000B12C6401E89457F853FC04C04A141B0431
:1033000009F018F5342CA114B10431F5332009F477
:1033100069CFB70180E290E00E94DE1A3A94F6CFBE
:10332000D8018C9189830E5F1F4FE0CFF801C190C7
:10333000D1908F016B2D70E056FC02C06FEF7FEFD4
:10334000C6010E94D31A5C01D5CFB70180E290E09C
:103350000E94DE1A4A94D2CFF60157FC859157FE9F
:1033600081916F01B70190E00E94DE1A31103A940A
:10337000B1E0AB1AB108C7CF843619F0893609F02D
:1033800074C0F80157FE6AC0619171918191919169
:103390008F01E52DEF76DE2E97FF09C09095809581
:1033A000709561957F4F8F4F9F4F6894D7F82AE0B3
:1033B00030E0A4010E940E1BC82EC818AC2C5D2C56
:1033C000D6FE0CC0E89450F8CB1440F4D4FE05C0EF
:1033D000D2FC03C05D2D5E7E552EAB2C54FEADC0DD
:1033E000FE01EC0DF11D8081803309F09FC0652D39
:1033F000697E562E752D7870372E53FCADC050FE69
:10340000A7C0BC2CA41418F44C0CB42CBA1854FE4D
:10341000A9C0B70180E390E00E94DE1A52FE09C005
:1034200088E790E051FE02C088E590E0B7010E9475
:10343000DE1ACB1408F4A2C0CA94D12C8FEFC81A9C
:10344000D80AC80CD91CD6018E916D01B70190E045
:103450000E94DE1A8C149D04B1F758CF61917191CE
:10346000072E000C880B990B93CFD52CE894D4F839
:103470002AE030E08537E1F1F52DF97FDF2E803746
:1034800051F100F5883551F18F3681F1F7018681D0
:1034900097812F960FB6F894DEBF0FBECDBFDF9198
:1034A000CF911F910F91FF90EF90DF90CF90BF9041
:1034B000AF909F908F907F906F905F904F903F90D4
:1034C0002F900895883711F7D4FE02C06894D2F87F
:1034D00020E130E00DC06894D4F8F6CF54FE03C06C
:1034E0002F2F2660D22E20E132E002C028E030E00B
:1034F000F801D7FE15C041915191619171914C87AE
:103500005D876E877F878F01A4016C857D858E85A1
:103510009F850E940E1BC82EC818E894D7F84ECF7E
:1035200081919191AC0170E060E0E9CF52FC02C062
:10353000A39460CFA394A3945DCF852D867809F4DE
:1035400059CFF6CFB70180E290E00E94DE1AA39433
:10355000A414C0F3312C5BCF342C3A18A41408F413
:1035600056CFF8CF852D867809F463CF8BE251FED4
:1035700080E257FC8DE2B70190E059CFB70180E3BC
:1035800090E00E94DE1ABA9454CF8FEF9FEF81CF64
:10359000FC010590615070400110D8F7809590951E
:1035A0008E0F9F1F0895FC01615070400190011023
:1035B000D8F7809590958E0F9F1F08950F931F93B6
:1035C000CF93DF93182F092FEB018B8181FD09C069
:1035D0001FEF0FEF812F902FDF91CF911F910F9150
:1035E000089582FF14C02E813F818C819D81281710
:1035F00039073CF4E881F981CF01019699838883EA
:1036000010838E819F8101969F838E83E3CFE8850F
:10361000F985812F0995892BA1F3DACFFA01AA2721
:10362000283051F1203181F1E8946F936E7F6E5F05
:103630007F4F8F4F9F4FAF4FB1E03ED0B4E03CD0B3
:10364000670F781F891F9A1FA11D680F791F8A1F96
:10365000911DA11D6A0F711D811D911DA11D20D0FD
:1036600009F468943F912AE0269F11243019305DB7
:103670003193DEF6CF010895462F4770405D4193A8
:10368000B3E00FD0C9F7F6CF462F4F70405D4A33F5
:1036900018F0495D31FD4052419302D0A9F7EACFBD
:1036A000B4E0A6959795879577956795BA95C9F7EC
:1036B00000976105710508959B01AC010A2E0694DF
:1036C0005795479537952795BA95C9F7620F731F98
:1036D000841F951FA01D0895DC01CB01FC01F99901
:1036E000FECF06C0F2BDE1BDF89A319600B40D924E
:1036F00041505040B8F70895DC01CB0103C02D9133
:103700000E94871B41505040D0F70895262FF99909
:10371000FECF1FBA92BD81BD20BD0FB6F894FA9AB4
:10372000F99A0FBE01960895052E97FB1EF400949A
:103730000E94AB1B57FD07D00E94C61B07FC03D09D
:103740004EF40C94AB1B50954095309521953F4F0E
:103750004F4F5F4F089590958095709561957F4F7D
:103760008F4F9F4F08950E94E81BA59F900DB49F17
:10377000900DA49F800D911D11240895B7FF0C9406
:10378000B31B0E94B31B821B930B0895A1E21A2E58
:10379000AA1BBB1BFD010DC0AA1FBB1FEE1FFF1FF5
:1037A000A217B307E407F50720F0A21BB30BE40B45
:1037B000F50B661F771F881F991F1A9469F760958C
:1037C0007095809590959B01AC01BD01CF01089546
:1037D000A29FB001B39FC001A39F700D811D112452
:1037E000911DB29F700D811D1124911D0895F894B3
:1037F000FFCF0301150149019701B001D7011D0257
:10380000FC0216031F0322034003470353037703FD
:103810004E03AF05D205F3059306FE0509062606FD
:103820003106410658066F067A0685068806CA08DC
:1038300006090D0914091D092609FF08D908EC0815
:103840002F093E0869087208FE07FE07FE07600898
:103850004E0857087B081310AA0FAA0FAE0FAA0F25
:10386000C90FB10F1E10CC0FE40FE70FF90FFC0FBB
:083870001310B10FAE0FAE0FF3
:10387800FFFF0100000002000000008D09000000A9
:10388800000100000050C3000014190203030000E7
:103898000000000000001800000001000200030002
:1038A80004000500060007000800090020020500C2
:1038B8000000000000000000002E010500000003C9
:1038C80003300505010101010101010000010101A9
:1038D800000001030300000303030303033102058F
:1038E800010101010101030303033205050101017F
:1038F80001010000000001010101010103030000B2
:10390800000303030303330505010101010100005E
:103918000001010101010101000000030303030389
:103928000303340505010000010101000001010144
:103938000101010100000003030000000303350535
:10394800050101010101010100000001010101015E
:10395800000000000303030303033605050101010A
:103968000101010100000001010101010303000040
:1039780003030303030337050501010101010000E7
:103988000001010000000101000000030300000025
:1039980003033805050101010101010000010101CE
:1039A80001010101030000030303030303033905B5
:1039B80005010101010101000001010101010101ED
:1039C8000000000303030303030341050503030386
:1039D80003030300000303030000030303030303BB
:1039E8000303000003034205050303030300030365
:1039F800000300030303030303030000030303039B
:103A08000303430505030303030303030000000343
:103A1800030000000303000000030303030344053D
:103A2800050303030303000000000303030000036E
:103A3800030300000303030303034505050303030E
:103A4800030303030000000303030303030300004D
:103A580000030303030346050503030303030303EA
:103A68000000000303030303030300000003030033
:103A780000004705050303030303030300000003D5
:103A880003000303030300000303030303034805C0
:103A980005030300000303030000030303030303F8
:103AA80003030000030303000003490205030303A3
:103AB800030303030303034A05050000000303008F
:103AC80000000303000000030303000003030303D3
:103AD8000303034B0505030300030303030003006B
:103AE8000303030303030300000303030000034C61
:103AF80005050303000000030300000003030000A2
:103B080000030300000003030303034D060503033A
:103B18000303030303030003000303030003000379
:103B28000303000300030303000300034E0505031A
:103B38000303030303030000030303000003030359
:103B480000000303030000034F05050303030303F9
:103B5800030300000303030000030303000003033F
:103B680003030303500505030303030303030000D2
:103B7800030303030303030300000003030000001F
:103B880051060503030303030003030000030003B6
:103B980003000003000303000003000303030303FF
:103BA8000352050503030303030303000003030390
:103BB8000303030303000300030300030353050582
:103BC80003030303030303000000030303030300C9
:103BD8000000000303030303035404050303030362
:103BE80000030300000303000003030000030300B5
:103BF8005505050300000303030000030303000049
:103C0800030303000003030303030303560505032B
:103C1800030000030303000003030300000303037E
:103C28000000030003030303570605030300030012
:103C3800030303000300030303000300030303005B
:103C480003000303030303030358050503030000EC
:103C58000303030003030003030300030300030338
:103C680003000003035905050300000303030000D4
:103C78000303030303030300000003030303030315
:103C8800035A0505030303030300000003030303AA
:103C98000303030300000000030303030361060595
:103CA80000000000000003030303030003000003F7
:103CB8000300030000030300030303030303620577
:103CC80005030300000003030303030303000003C9
:103CD8000303000003030303030363050500000057
:103CE80000000303030303030300000003030000B1
:103CF8000003030303036405050000000303030333
:103D08000303030300000303030000030303030387
:103D18000303650505000000000003030303030314
:103D28000300000303030000000303030303660406
:103D38000500030303000303000303030300030355
:103D480000000303006705050000000000030303EB
:103D5800030303000003030303030303000000033A
:103D680003680505030300000003030303030303BB
:103D780000000303030000030303000003690205B6
:103D8800030300000303030303036A03050003039B
:103D98000000000003030003030303036B0505038E
:103DA80003000000030300030303030003000303ED
:103DB80003030303030000036C0305030300030369
:103DC800000303000303000303036D06050000005E
:103DD80000000003030303030303030003000303BA
:103DE80003000300030303000300036E050500003E
:103DF800000000030303030303030000030303009D
:103E0800000303030000036F050500000000000322
:103E18000303030303030000030303000003030376
:103E280003030370050500000000000303030303F8
:103E380003030000030303030303030300000071EB
:103E4800060500000000000003030303030003004D
:103E5800000303000303030303000000000303033C
:103E680072040500000000030303030303000003BA
:103E780003000003030000730505000000000003B1
:103E8800030303030303000000000000000303030F
:103E9800030303740405000303000303030300037F
:103EA8000300000303000003030375060500000078
:103EB80000000003000003030003000003030003E5
:103EC8000000030300030303030303760505000052
:103ED80000000003030000030303000003030300C2
:103EE8000003000303030377060500000000000039
:103EF8000303000300030303000300030303000399
:103F08000003030303030303780505000000000012
:103F18000303000303030303030000030303030372
:103F280003000303790505000000000003000003F7
:103F38000303000003030303030303000000030358
:103F48007A050500000000000303030303000000D6
:103F580000030303000000030303030323131A0EE3
:103F680012170B0C161920220D180A1124061F1DF2
:103F78001507081B1C211E090F142627040203011C
:103F88000005251064000F00E803090088130600E7
:103F98006400030064000100640004006400080079
:103FA800ED1314000000ED1314000000ED131400CD
:103FB8000000ED13140000003D14140000003D142F
:103FC800140000003D14140000003D14140000000B
:103FD8003D14140000003D14140000009813140050
:103FE8000000981314000000DF12320000015C1377
:103FF800320000013E133200010035133200010186
:10400800FE121400000016131400000081121400A0
:104018000000811214000000911332000101911375
:1040280032000101911332000101911332000101A4
:104038000409020E0D08030A0B0F1005070C1412D1
:104048001300010617151611A205F10294069A022B
:10405800B6024D021F10D900256C64002536730086
:10406800436162696E2046657665720070696E62AA
:10407800616C6C00486967682053636F726500471C
:10408800616D654F76657200636F696E73002564B4
:10409800206F6620256400696E736572740066720D
:1040A800656567616D650062616C6C2025640073ED
:1040B800686F6F7400616761696E0074696C740081
:1040C800566F6C2025640042722E4F2025303464D0
:1040D8000042722E4320253034640054696C7453B6
:1040E8002025640042616C6C7320256400436F696D
:1040F8006E7320256400506C617973202564004636
:104108002E4869676820256400462E4D6174632037
:10411800256400524553455400502020202020207B
:0841280020204F47470A000068
:00000001FF
